:100000000C94800C0C94EA0C0C94EA0C0C94EA0C02
:100010000C94EA0C0C94EA0C0C94EA0C0C94EA0C88
:100020000C94EA0C0C94EA0C0C94EA0C0C94EA0C78
:100030000C94EA0C0C948E0F0C94CD0F0C946B0D59
:100040000C94EA0C0C94EA0C0C94EA0C0C94EA0C58
:100050000C94EA0C0C94EA0C0C94EA0C0C94EA0C48
:100060000C94EA0C0C94EA0C0C94EA0C0C94EA0C38
:10007000810045005DFF5E1027FF2AD22B7D210CF9
:1000800022FB850084008903888D81096F02444228
:1000900047004501B083B300B10124B925578A1D3B
:1000A0008B035A55012001010038080000000000B0
:1000B0000000000000000000000000000000000040
:1000C000000006120912651269127012111216123E
:1000D0001B1278121E12211224125F126212881251
:1000E00000408891D2E4ADB5B6BEBFFF0503001352
:1000F0001415161718191A1B1C1D1E1F00050400C5
:100100000102030405060708090A0B0C0D000E0F77
:1001100010111200000000000000000000000000AC
:1001200000000000000000000000000000000000CF
:1001300000000000000000000000000000000000BF
:1001400000000000000000000000000000000000AF
:10015000000000000000000000000000000000009F
:10016000000000000000000000000000000000008F
:1001700000004900000000004952520000004952AE
:10018000531C25004952522425251B52525C2D2D0B
:100190001C121200000000000000000000000040DF
:1001A00049494900404949525B5B5B4A52525B1CDA
:1001B0001C13125B1C241C12090909241B120909B7
:1001C00009090A0A0A0A0A0A0A0A130A0A120A0A80
:1001D00012130A0000000000000000925252525216
:1001E00052524913121309001C1B130A1212401B0E
:1001F00065641C090A0009241B1C65120000251CEB
:100200001C1C1C010025241C1C1C1C00242524244F
:10021000241C1C00000000000000004940000000F9
:1002200000000052494900000000001C5B4A4800E1
:100230000000001C255249000000006524644900AC
:1002400000000065256449000000006D2E5C490037
:10025000000000000000000000405200000000000C
:1002600049525C0000000053522425000000535204
:1002700025252500004A5225251B0000005B25137B
:1002800000001B005B53000A1C3737095B1C657FAD
:10029000372E2E522E2E1C131312002E251B131236
:1002A0000000121C1C12000012251C120000122E4D
:1002B000371C1300132E37361C131B37372E2E25F1
:1002C000131C1C2E2E2E2E1B1C1C1C6E6E6E1C1C3A
:1002D0001C1C1C09131312121313001313131313F2
:1002E0001C0009131313131C0100371313131C13E1
:1002F000002E2E1B1B1C1C001C772E1B1B25001305
:100300007F251C1C1C010A37241C1C1C130A2E25CB
:10031000250900132E2425252525252E25252525CF
:1003200025252525252D2E251B1C1C2E2E251C1391
:10033000251B13251C1C1C1C0109521C1C1300012D
:100340001C5B5C0A000165775C1B00016E7F6E52CE
:100350001B00006D1C5249000000001C13530000DC
:100360000000001C524A00000000005B5B0000001F
:100370000000005C00000000000000000000000021
:10038000000000000000000000000000000000006D
:10039000000000135B7F776E6E6E6E136577766E6E
:1003A0006E6E6E1B65777676766E771B5BBF76B664
:1003B00076767609136DBFB7B6B765001B125C760B
:1003C000BF766D0000121B125B5B5C000000000931
:1003D0000A12136E77241C1C1C1C1C77251C1C1C69
:1003E0001C24256E1C1C1C2425251B1C1C242525B7
:1003F000130000646D6D1B00096EBF6D5B09126E0A
:10040000BF6D5B5B125B645B121312131B1212094C
:100410000100001C242E1C0900096E25240100097E
:10042000767F7F000012777F7F641264BFBF775BA7
:10043000121B09BF6D5B121B09000012131B090080
:1004400000000009000000000000000000000000A3
:100450000000007F7F53131300000064121B010093
:100460000000001B1200000000000000000000005F
:10047000000000000000000000000000000000007C
:10048000000000000000000000000000000000006C
:100490000000000000000000000000260000002610
:1004A0000026262F0000002F000000370000003734
:1004B000000000FF000000FF000000BF000000BFC0
:1004C0000000BF370000370000370000262600007C
:1004D0000026260000000000000000262626002638
:1004E00026262600002F002F0000000037000037CE
:1004F000000000FF000000FFFFFFFF00000000BF42
:10050000000000000000003700000026262600261C
:1005100026262600000000000000002600262626D1
:1005200026000000002F0000002F00000037000010
:100530000037000000FFFFFFFF00000000BF0000C9
:1005400000BF0000003700000037002600262626E6
:100550002600000000000000000000000026262603
:10056000002600002F00002F002F0037000000376A
:10057000000037FF000000FF000000BF000000BFC8
:100580000000BF3700003700003700262626000095
:10059000002600000000000000000000002600000F
:1005A00000000000002F00000000000037000000E5
:1005B000000000FF0000000000000000BF0000007D
:1005C00000000000003700000000000000260000CE
:1005D000000000000000000000000000000000001B
:1005E000000000000000000000000000000000000B
:1005F0000000E400000000099BEDF60000009BA451
:10060000ADBFBF00529BA4767F7FB75B9B6D777FAA
:10061000766EB70000000000000000000000005BE4
:10062000B6F6F6005BF6FFFFFFFFBFF6FFFFFFFF2A
:10063000BFBFAEFFBFFFFFFFB7AD65BFBFFFFFB7D7
:10064000B6AD65B7BFFFFFBFB7AE6EB7BFFFFFBFA9
:10065000B7B7650000000000000000F6F6EDEDAD54
:10066000A4A49BB66D6D5C526E656465656552654C
:10067000766D255C5C52536E24656E6552526E2514
:100680002524255B52772D25252524526E6E2D2598
:1006900025252500000000000000009B4900000007
:1006A000000000A49B920000000000256493490014
:1006B000000000652E9B52000000006D2565520071
:1006C0000000006D2D6552000000006E2E64520087
:1006D000000000000000000000495B000000000076
:1006E0004A5B65000000005B9B6D2D0000005B5BBA
:1006F0002D2E250000525B2E2E1C0900015B2D1CA7
:1007000001091C005C5B014A65777F4A5B1C6E7FB8
:100710007777769B77776D656E6EA4776E65656586
:100720005BA4B725255C52526DBFBF130949647F96
:10073000BFBFBF095C7F7FBFBFB7BF7F7F777F7FB2
:10074000B7BFBF77777F7F6EB7BFBF777F7F6E778B
:10075000BFBFBFB6FFFFFFBFBFB75BBFFFFFFFBF9E
:10076000BFA464BFFFFFFFBFADA47FBFFFFFFFBFFC
:10077000A4BF7FFFFFFFBFADBFBFBFFFFFFFB6BF7F
:10078000BFBF77FFFFF7BFBFBF7777FFFFFFBFBFD9
:10079000BF64526D7F6E2E2D2D256E7F766E6E6E30
:1007A0002E2565777777762E1C25247F776E251C7E
:1007B000251C1B776525251C090A5B6E6E1C0949E3
:1007C0002564645B494A6E7F645C005377BF775B46
:1007D0005C00006E255B4A000000001C1B5B0000F3
:1007E000000000245B5300000000005B5C00000080
:1007F0000000006400000000000000000000000095
:1008000000000000000000000000000000000000E8
:100810000000005B5C7FBF777677775C6D7FB77792
:100820007777775C6D7FBF777777BF5C64BFBFBF3B
:10083000BFBF7F0A5C6EBFBFBFBF760065646DBF80
:10084000BFBFBF00005B6D646DADB600000000125D
:100850005B646D777F6E6E77BFBFBF7F766D767797
:10086000BFBFBF776D6E767FBFBFBF6D6E767FBF38
:10087000B7ADF676BFBF76A4ADFFFFBFB664ADFFE0
:10088000FFFFFFB6ADBFFFFFFFFFF6ADB6AD645B88
:10089000520000FFFFBFBFAD5B64BFFFFFB6ADAD51
:1008A000BFFFBFFFF6FFFFFFFFBF64FFFFFFFFBFFC
:1008B000B6765BFFFFFFBFBF5B0000FFFFFF5C0082
:1008C000000000A400000000000000000000000084
:1008D000000000BFBF645C5C0000006E5C65490006
:1008E0000000006D5B000000000000000000000040
:1008F00000000000000000000000000000000000F8
:1009000000000000000000000000000000000000E7
:100910000000000000001C090000000000020800A8
:10092000085504085A0000F8000990000A1E320514
:100930000000FF020202020202020202020202029E
:100940000202020202020202020202020202020287
:100950000202020202020202020202020202020277
:100960000202020202020202020202020202020267
:100970000202020202020202020202020202020257
:100980000202020202020202020202020202020247
:100990000202020202020202020202020202020237
:1009A0000202020202020202020202020202020227
:1009B0000202020202020202020202020202020217
:1009C0000202020202020202020202020202020207
:1009D00002020202020202020202020202020202F7
:1009E00002020202020202020202020202020202E7
:1009F00002020202020202020202020202020202D7
:100A000002020202020202020202020202020202C6
:100A100002020202020202020101010101010101BE
:100A200001020202020202030600000000000000B0
:100A3000030202020202020101010101010100039D
:100A40000202010101020203000000000000000395
:100A50000300000003020300000000000000030385
:100A60000000000302030001010100000003030075
:100A70000000030203000000000000000302030066
:100A80000302020300000000000000030203000351
:100A90000101030000000101000003020300000047
:100AA0000000000100000000280302020101010112
:100AB000030101000000000003020202020202031F
:100AC0000000000001000003020202020202030013
:100AD0000000000000000302020202020202010103
:100AE00001010101010202020202020202020202EB
:100AF00002020202020202020201010101010101DD
:100B000002020202020202030000000000000003D1
:100B10000202020202020300010000010028030297
:100B200002020202020300000000000000030202B1
:100B300002020202030000000000000003020202A1
:100B4000020202030001000000030003020202028D
:100B5000020203000000000003000302020202027E
:100B6000020203010101010100030202020202026A
:100B7000020300000000000003020202020202025F
:100B8000030001010101010101030202020202034B
:100B90000000000000000005030202020202020140
:100BA000010101010101000302020202020202022C
:100BB0000202020202020202020202020202020215
:100BC0000202020202020202020202020202020205
:100BD00002020202020202020202020202020202F5
:100BE000020202020F0101010E020F0101010700C2
:100BF000000003020300000000000A0003020300DB
:100C00000F010E00000003020300030204010101B2
:100C100007020300030202020202020203000101B2
:100C200002020202020203000006020202020202A3
:100C30000401010202020202020202020202020294
:100C40000202020202020202020202020202020284
:100C500002030204010E0202020202020202020266
:100C60000305000003020202020202020202020461
:100C7000010E00030202020202020202020202024A
:100C800003000302020202020202020202020F0732
:100C90000003020202020202020101010107000038
:100CA000040E020202020202010000000000000025
:100CB000030202020202020100010E000000000312
:100CC000020202020202010603040E0000000302F7
:100CD00002020202020101010F07000000030202EA
:100CE00002020202020202030000010003020202E9
:100CF00002020202020203000000000302020202DA
:100D000002020202020401010101070202020202C0
:100D100002020202020202020202020202020202B3
:100D2000020202020202020202020F01010101019B
:100D30000E0202020202020202030000000000038F
:100D4000020202020202020203000000000003028B
:100D50000202020202020203000000030003020278
:100D60000202020202020300000003000302020268
:100D70000202020202030000000300030202020258
:100D80000202020204010100030107020202020240
:100D9000020202020300000302020F01010202022A
:100DA000020202030001030E020305000202020216
:100DB000020F07000000040107000F0202020202F6
:100DC0000300000000000000000302020202020310
:100DD000000100000F0101010702020202020300EC
:100DE00000000003020202020202020202040101E8
:100DF0000101070202020202020202020F010101C6
:100E0000010E0202020203000000000302020202BD
:100E100003000000000302020202030000000003BE
:100E200002020202030000000A030202020204019D
:100E30000E000F0702020202020201000302020278
:100E4000020202020100040E02020202020201007A
:100E50000203020202020202010100010202020276
:100E60000202030003020202020202020202020262
:100E7000020300040E020202020202020202020245
:100E8000030500030202020202020202020202043D
:100E90000E00030202010101020202020202020329
:100EA0000003020201060002020202020202030023
:100EB000030202010001020202020F010107000306
:100EC000020201000102020202030000000003020C
:100ED00002010001020202020300000000030202FC
:100EE00001000102020202030000000004010101EE
:100EF00000010202020203000000000000000000E6
:100F0000010202020203000000000F0101010101C1
:100F100002020202030000000003020202020202B7
:100F200002020203000000000302020202020202A7
:100F300002020E0101010107020202020202020284
:100F40000202020202020F0101010101010E02026E
:100F5000020202020203000000000000030202027B
:100F600002020202030000000000000302020F015F
:100F7000010101070000000000000302020300005D
:100F800000000000000000000003020203000F0147
:100F90000E00000000000000030202030003020331
:100FA000000000000000000302020300030203002F
:100FB000000000000000030202030003020401011C
:100FC00001010101010702020700030202020202FD
:100FD00002020202020202000503020202020202EF
:100FE00002020202020201010702020202020202DE
:100FF00002020202020202020202020202020202D1
:1010000002020202020202020202020202020202C0
:1010100002020202020202020202020202020202B0
:1010200002020000000000000000000000000000BC
:1010300000000000000000000000000000000000B0
:1010400000000000000000000000000000000000A0
:101050000000000000000000000000000000000090
:101060000000FFFFFFFFFFFFFFFFFFFFFFFFFFFF8E
:10107000FFFFFFFFFFFFFFFFFFFFFFFFFFFFFFFF80
:10108000FFFFFFFFFFFFFFFFFFFFFFFFFFFFFFFF70
:10109000FFFFFFFFFFFFFFFFFFFFFFFFFFFFFFFF60
:1010A000FFFFF6F6F6F6F6F6F6F6F6F6F6F6F6F6CE
:1010B000F6F6F6F6F6F6F6F6F6F6F607F6F6F6F6BF
:1010C00007F6FF0707F6F607FF0707FF07F607F61D
:1010D00007FFF607F607FF0707F6F607F6F607F627
:1010E00007F66F6F666F6EF6F6F6377677376FF640
:1010F000F6F6000000007666F6F607000700376F88
:10110000F6F600000000776F66F6377737767737A8
:101110006FF677767777377666F667666F6F6F6606
:1011200066F6F6F6F66E2F666F2FF6F6F66F3777E1
:101130007637F6F6667600000000F6F66F370007A1
:101140000007F6666F7700000000F66F3777763796
:101150007737F666763777777677F666666F6F6FEE
:101160006667F6F6F6F6F6F6F665F6F6F6F6F6F6CF
:101170006526F6F6F6F6F6656F6FF6F6F6F6652670
:101180002626F6F6F6656F6F6F65F6F66526262657
:101190006525F6656F6F6F6525256526262665250D
:1011A000252565F6F6F6F6F6F6F62665F6F6F6F673
:1011B000F6F66F6F65F6F6F6F6F626262665F6F66F
:1011C000F6F6656F6F6F65F6F6F6256526262665D9
:1011D000F6F62525656F6F6F65F6252525652626AC
:1011E0002665F607F6F607F607F6F607F607FF0791
:1011F00007F607FF07F607F607FFFF0707F6F607EC
:10120000FF07F607F6F6F6F607F6F6F6F6F6F6F642
:10121000F6F6F6F6F6F6F6F6F6F6F6F6F6F6F6F66E
:10122000F6F6677737000700372F667677000000FD
:10123000766F6F773700070077666F77760000006C
:10124000372F6F37777737766F6E6676376F6F66C3
:10125000F6F666666F66F6F6F6F6F6F6F6F6F6F665
:10126000F6F6F6F6F6F6F6F6F6F666666F66F6F655
:10127000F6F66676376F6F66F6F66F3777773776FE
:101280006F6E6F7776000000372F6F77370007009B
:101290007766667677000000766F6777370007001D
:1012A000372FB1B1B1B1B1B1B1B1B1B1F6F6F6F616
:1012B000B1F6B1F6B1B1B1B1F6B1B1F6B1F6F6B180
:1012C000F6B1B1F6B1F6F6B1F6B1B1F6B1B1B1B170
:1012D000F6B1B1B1F6F6F6F6B1F6B1F6B1B1B1B01C
:1012E000F6B0B0B1B1B1B1B1B1B1F6B1F6F6F6F652
:1012F000B1B1B1F6B1B1B1B1F6B1B1F6B1F6F6B185
:10130000F6B1B1F6B1F6F6B1F6B1B1F6B1B1B1B12F
:10131000F6B1F6B1F6F6F6F6B1B1B1F6B1B1B1B0DB
:10132000F6B0B0B0B0B0B0B0B0B0F6F6F6F6F6F6D3
:10133000F6F6B0B0B0B0B0B0B0B0B0F6F6B0B0F64F
:10134000F6B0B0F6F6B0B0F6F6B0B0B0B0B0B0B03F
:10135000B0B0F6F6F6F6F6F6F6F6B0B0B0B0B0B05D
:10136000B0B0F6F6F6F6F6F6F6F6F6F6F6F6F6F6A9
:10137000F6F6F6F6F6F6F6F6F6F6F6F6F6F6F6F60D
:10138000F6F6F6F6F6F6F6F6F6F6F6F6F6F6F6F6FD
:10139000F6F6F6F6F6F6F6F6F6F6F6F6F6F6F6F6ED
:1013A000F6F6B1F6B1B1B1B1F6B1B1B1F6F6F6F605
:1013B000B0F6B1F6B1B1B1B1F6B0B1F6B1F6F6B082
:1013C000F6B0B1F6B1F6F6B0F6B0B1F6B1B0B1B173
:1013D000F6B0B1B1F6F6F6F6B0F6B1B1B1B1B1B062
:1013E000B0B0B1F6B1B1B1B1F6B1F6B1F6F6F6F60C
:1013F000B1B1B1F6B1B1B1B1F6B1B1F6B1F6F6B184
:10140000F6B1B1F6B1F6F6B1F6B1B1F6B1B1B1B12E
:10141000F6B1F6B1F6F6F6F6B1B1B1B1B1B1B1B01F
:10142000B0B0B0F6B0B0B0B0F6B0B0F6B0F6F6B05E
:10143000F6B0B0F6B0F6F6B0F6B0B0F6B0B0B0B008
:10144000F6B0B0F6B0B0B0B0F6B0B0F6B0F6F6B0F8
:10145000F6B0B0F6B0F6F6B0F6B0B0F6B0B0B0B0E8
:10146000F6B00037370000000000003737000000FA
:101470000000003737000000000000373700000090
:101480000000003737000000000000373700000080
:1014900000000037373737373700003737373737EF
:1014A00037000037373737370000003737373737DF
:1014B00000000037370000000000003737373700E2
:1014C00000000037373737000000003737000000D2
:1014D00000000037373737370000003737373737E6
:1014E000000037370000003737003737000000377B
:1014F0003700373700000037370037370000003734
:1015000037003737000000373700373737003737B5
:1015100037000037373737370000000037373700DC
:1015200000003737000000000000373700000000DF
:1015300000003737000000000000373700000000CF
:1015400000003737000000000000373700000000BF
:1015500000003737373737370000373737373737F7
:10156000000000003737000000000000373700009F
:10157000000000003737000000000000373700008F
:10158000000000003737000000000000373700007F
:10159000000000003737000000000000373700006F
:1015A000000000000037370000000000003737005F
:1015B000000000000037370000000000003737004F
:1015C0000000000000373700000000000037373708
:1015D00000370000000037373737000000000037C1
:1015E00037373737000000000000373700000000B1
:1015F000000037370000000000003737000000000F
:1016000000003737000000000000373700000000FE
:101610000000370000000000000000000000000093
:101620000000000037370000373700003737000070
:1016300037370000373700003737000037370000F2
:1016400037370000373700003737000037370000E2
:1016500037370000373700003737000037370000D2
:101660003737373700003737000037370000373754
:1016700000003737000037370000373700003737B2
:1016800000003737000037370000373700003737A2
:101690000000370000003737000000000000373737
:1016A000000037370000000000003737000000005E
:1016B000000037370000000000003737000000004E
:1016C000000037370000000000003737000000003E
:1016D000000037370000000000003737000000002E
:1016E00000000000373700003737000037370000B0
:1016F0003737000037370000373700003737000032
:101700003737000037370000373700003737000021
:101710003737000037370000003700003737000048
:1017200000000000003737000000000000373700DD
:1017300000000000003737000000000000373700CD
:10174000000000000037370000003700373737004F
:101750000000373737370000000037373700000008
:1017600000003737000037370000373700003737C1
:1017700000003737000037370000373700003737B1
:1017800000003737000037370000373700003737A1
:101790000000373700003737000037370000373791
:1017A00000000000373700003737000037370000EF
:1017B00037370000373700000037000037370000A8
:1017C000000000003737000000000000373700003D
:1017D0000037000037370000373700003737000088
:1017E0003737000000373700000037003737370041
:1017F0000000373737370000000037373700000068
:101800000000373737000000000037373737000057
:10181000000037003737370000000000003737007E
:10182000000000003737000000370000373737006E
:1018300037370000003737373737000000003737B9
:101840003700000000003737370000000037373717
:101850003737000037373700373700003737000099
:1018600000373700000000000000370000000000D3
:101870000000000000000000000000000000000068
:101880000000000000000000000000000000000058
:1018900000003700000000000000370000000000DA
:1018A00000000101060101050201202102011E1FA5
:1018B000030116191D030116191A02011619020156
:1018C000161702011B1C0101150101180101150564
:1018D00001111213121401010D01010F01010B017D
:1018E000010E01010A01010C0101100101030101B6
:1018F00004010109010108010107010102010100C0
:1019000011241FBECFEFD0E1DEBFCDBF11E0A0E0BC
:10191000B1E0E0EFF6E402C005900D92A230B1070D
:10192000D9F720E1A2E0B1E001C01D92AD37B207C6
:10193000E1F714BE0FB6F894A89580916000886115
:1019400080936000109260000FBEF89480E790E0F2
:10195000FC0125913491F901FF273083029620E0A4
:10196000823A9207A9F70E94ED11811102C00E94EC
:10197000CB1181E08093B60D8093B70D8093B50DA8
:101980001092A20D1092A80D1092AE0D1092B40DEF
:101990001092BA0D1092700D1092720D92E1909308
:1019A000710D90EE9093780D94E19093770D1092D5
:1019B0007C0D10927B0D1092800D10927F0D809304
:1019C000A10D0E94511D78940E94B71D0E944922CA
:1019D0000C9476230C94000003E80A95F1F700C0FC
:1019E0000091600DECEFFCE023E0029FE00DF11DA3
:1019F00020915F0D3CE3321B300F201751F00000A7
:101A00000000A191B1911C9111930C9303950217C1
:101A1000C0F313E01A95F1F700C03A95D1F7C0E290
:101A2000D1E0662717E01A95F1F700C040916E0DDE
:101A300050916F0D60906A0D70906B0DD3015E0137
:101A4000762F00C030916D0D303009F0C8E609F0F6
:101A5000D4E009F0DA0115E01A95F1F78090780DDD
:101A600007E00093360001E00093810001E000935D
:101A70006F0008E0609F8D0100541840000D111D9B
:101A800018010CEB14E0000D111D280100E4E02EFC
:101A900003E31AEFCF93DF93599100C000C01FD327
:101AA0002CE02A95F1F71093850000938400789438
:101AB00000275E9D5132F10108F4F201001FE00D94
:101AC000F11D1AE01A95F1F70000112700FF02C07E
:101AD000000065C048C018B90F900F90DF91CF91FA
:101AE00003E00A95F1F700C063958A94B1F068307D
:101AF00029F007E00A95F1F700C0BBCF66276E9684
:101B00000491049100C03A9509F4672F09F4E501A6
:101B100000C000C009F4D301ACCF20E12A95F1F751
:101B200000E0009385000CE200938400D8D21124D9
:101B30000E94140FE091720D42E0E160E427E0930F
:101B4000720D07E00093360009E00093810002E087
:101B500000936F000895059108B9020C00000591EB
:101B600008B9131CF001059108B900C0059108B926
:101B70004991059108B900C0059108B94E9D05919C
:101B800008B941320000059108B928F70000059115
:101B900008B9040C0000059108B9151CF0010000FB
:101BA000019108B949910000019108B900004E9DCA
:101BB000019108B90491019108B90491019108B902
:101BC000413200C0019108B950F40000040C0191A9
:101BD00008B9151C00000191F00108B9E0CF020C12
:101BE000019108B9131C00000191F00108B9BBCFA5
:101BF00020E4E0916A0DF0916B0D829FE00DF11DE4
:101C0000ACEBB4E0629FA00DB11D15901D92159034
:101C10001D9215901D9215901D9215901D92159074
:101C20001D9215901D9215901D9215901D92159064
:101C30001D9215901D9215901D9215901D92159054
:101C40001D9215901D9215901D9215901D92159044
:101C50001D9215901D9215901D9215901D92159034
:101C60001D9215901D9215901D9215901D92159024
:101C70001D9215901D9215901D9215901D92159014
:101C80001D9215901D9215901D9215901D92159004
:101C90001D9215901D9215901D9215901D921590F4
:101CA0001D9215901D9215901D9215901D921590E4
:101CB0001D9215901D9215901D9215901D921590D4
:101CC0001D9215901D9215901D9215901D921590C4
:101CD0001D9215901D9215901D9215901D921590B4
:101CE0001D9215901D9215901D9215901D921590A4
:101CF0001D9215901D9215901D9215901D92159094
:101D00001D9215901D9215901D921124089520E4A6
:101D1000ECEBF4E0829FE00DF11DACEBB4E0629FD0
:101D2000A00DB11D11901D9211901D9211901D9248
:101D300011901D9211901D9211901D9211901D9263
:101D400011901D9211901D9211901D9211901D9253
:101D500011901D9211901D9211901D9211901D9243
:101D600011901D9211901D9211901D9211901D9233
:101D700011901D9211901D9211901D9211901D9223
:101D800011901D9211901D9211901D9211901D9213
:101D900011901D9211901D9211901D9211901D9203
:101DA00011901D9211901D9211901D9211901D92F3
:101DB00011901D9211901D9211901D9211901D92E3
:101DC00011901D9211901D9211901D9211901D92D3
:101DD00011901D9211901D9211901D9211901D92C3
:101DE00011901D9211901D9211901D9211901D92B3
:101DF00011901D9211901D9211901D9211901D92A3
:101E000011901D9211901D9211901D9211901D9292
:101E100011901D9211901D9211901D9211901D9282
:101E200011901D9211240895E091600D8E2FEE0FF8
:101E3000E80FFF27E450F34F00905F0D801930F456
:101E4000A191B19101900C928395D1F7089598E0FA
:101E5000799FA12DBB27AE59B24FED91FD9190E432
:101E6000699FE00DF11D899FD001A454BB4F90E004
:101E700040FD09C0822F48E0421B70FF0AC0179640
:101E8000E80FF91F08C088E0821B422F70FFF8CFCF
:101E90001197A20FB91F68E028E0231B50FD09C06D
:101EA000639FA00DB11D71FDE85C71FDFF4F122E07
:101EB00008C0132E1A9471FF122E619DE00DF11DC2
:101EC000132E71FD409770FD05C057EF540F70E061
:101ED00061E004C059EF541B7FEF6FEF3EEF042E1B
:101EE000469530F461F0259123132C93A60FB71F6C
:101EF000259123132C93A60FB71F4150A1F72591CD
:101F000023132C931A9449F0E80FF91FA51BBF4F18
:101F1000402D469568F739F7F2CF08950F921F923A
:101F2000EF93FF93FFB7E0918400FF93E2FD04C0BD
:101F3000E1FD02C0000000C0E0FF00C0E091710DB3
:101F4000EA95E093710DF091700DF0FD51C0EC3009
:101F500098F0F3E0F0938900FDE8F0938800E0FB4F
:101F6000289826F4E1E00E948010B2C0E5E1EA95ED
:101F7000F1F70000289AACC0E63008F100C000C0BC
:101F80002898E0FBE4E016F40E948010E4E0E0937F
:101F90003600E6E0E0936F009BC0EF93E091840091
:101FA000E2FD04C0E1FD02C0000000C0E0FF00C08F
:101FB000E2E00000289AE0936F00EF91189500C0CE
:101FC000E0FB289826F4E1E00E94801005C0E5E1DE
:101FD000EA95F1F70000289AE091710DE03009F0E0
:101FE00077C0EDEFE093710DE1E0E093700D70C00C
:101FF000E7E0E0938900EBE1E093880000C02898D7
:10200000E2E000C00E948010FDEF0090770DF01913
:10201000E091710DEF17D8F4FDEF0090770DF019F6
:102020000090780DF019EF1790F0EDE1FF27008098
:102030000F92EA95E1F70DE00A95F1F700C00E94D2
:10204000EC0CE1E0FF270F900192EE31E0F3E0911C
:10205000710DE03009F03CC02F933F934F935F9395
:102060006F937F938F939F93AF93BF937894112433
:10207000EE27E093700DE2E1E093710D8091810D08
:102080009091820D01968093810D9093820DE09145
:10209000730DF091740DE115F10509F009950E9499
:1020A000BB110E94141E0E947A101124E091750D3C
:1020B000F091760DE115F10509F00995BF91AF9109
:1020C0009F918F917F916F915F914F913F912F9150
:1020D000EF91EFBFFF91EF911F900F901895289807
:1020E000E2E000C00E948010E091710DEA95E0935B
:1020F000710D0895E091A10DE0FD0E940214089574
:102100002F931F930F932E2F1091A50DE091A60DE5
:10211000F091A70D0091A30D100F0091A40DE01FE9
:102120000491E093A60D1093A50D1091A20D01034B
:1021300000081091AB0DE091AC0DF091AD0D009148
:10214000A90D100F0091AA0DE01F0491E093AC0DB2
:102150001093AB0DF0011091A80D010300081F0EA4
:102160001091B10D20FD289A0E1EE091B20DF09154
:10217000B30D0091AF0D100F0091B00DE01F049151
:10218000E093B20D1093B10DF0011091AE0D01036B
:1021900000081F0E0E1E0091B60D1091B70DF091A4
:1021A000B40DF695889400FDF195EE0B1F0E0E1EF2
:1021B000E091B80DE25020F0E491E491E4910AC07E
:1021C000E02F16950795E027E0FB16F9E091B50D95
:1021D000E0FF06F90093B60D1093B70DE093B80D2C
:1021E00010E0E091BD0DF091BB0D21FD289AEF0F9D
:1021F000E093BD0DE091BE0DF091BF0D0091BC0DBF
:10220000E01FF11F0091C20D1091C30DE017F107FF
:1022100018F4049100C006C00091C00D1091C10DCA
:10222000E01BF10BE093BE0DF093BF0D0491F001A4
:102230001091BA0D010300081F0E0E1EF0010F9140
:102240001F91F058EF4F1AF4F0E0000003C0E030A7
:1022500009F0FFEFF093B3002F9108958093620D82
:102260009093630D0895E8E4F3E0A0E2B1E061E249
:102270006D933197E9F711240895992777272EE177
:10228000629F080E191EA0E2B1E0A00DB11D4F5DC6
:102290004C931124089580936A0D90936B0D0895CB
:1022A0008091720D817008952091720D2E7F209380
:1022B000720D0895882329F48091790D90917A0DFB
:1022C000089580917D0D90917E0D0895E0E6F0E0F7
:1022D000808183FD089588E198E0F894808390835D
:1022E0007894FFCFF999FECF92BD81BD60BDF8947F
:1022F000FA9AF99A78940895F999FECF92BD81BD22
:10230000F894F89A80B578940895129AC895C8956B
:10231000C895C895129840E190E080E030E020E058
:102320003695279596958795C895C895C895C8956B
:102330001398009B3068019B9068139AC895C895C4
:10234000C895C895415061F730937A0D2093790D67
:1023500090937E0D80937D0D8091790D90917A0DF3
:102360000F9731F080917D0D90917E0D0F9711F4B4
:102370000C94661108951092C40D009903C081E079
:102380008093C40D019905C08091C40D8260809333
:10239000C40D0C948511CF93DF93D0E0C0E0FE0113
:1023A000EE55FF4F6491CE010E9472112196C0320A
:1023B000D105A9F7C0E2D0E06FEFCE010E94721103
:1023C0006FEFCE0101960E947211A096C11588E0B0
:1023D000D80791F7DF91CF910895CF93DF9390E0E5
:1023E00080E00E947C11C82F81E090E00E947C1167
:1023F00090E0982F8827C80FD92FD11D81E0CA35CA
:10240000D54509F080E0DF91CF910895FC01678701
:102410000895E2EAFDE081E091E0958B848B638B87
:102420000895FC0190819F7590830895FC0190812F
:10243000906490830895FC0166870895FC0162878B
:102440000895FC0163870895CF93DF93EC01262F55
:102450003981832F90E0FC01EE0FFF1FEE5EF34DFC
:1024600045915491FC01E60FF11D67FDFA95EE0FC1
:10247000FF1FEE5EF34D85919491841B950B68854B
:1024800070E00E9459236115710511F461E070E05C
:10249000EA8186E0E89FF0011124EE55F24F818138
:1024A0009281860F971F928381837E836D838881BB
:1024B00088608883230F2F83DF91CF910895FC01DB
:1024C00060870895FC0164830895FC0182810C9467
:1024D000EC15FC018181680F618382810C94D51514
:1024E000FC019181961B692F918382810C94D515F3
:1024F0001F93CF93DF93EC01162F8A810E94D5158D
:1025000019838881877F8883DF91CF911F910895F8
:10251000CF93DF93EC018C818823A1F02D893E8934
:10252000662399F0062E000C770B6F5F7F4FAB018F
:10253000440F551F640F751F261B370B3E8B2D8BC9
:1025400081508C83DF91CF91089523503109F90197
:102550003297E491ED3091F3EF3FB9F7EFCF9093DD
:102560003D0E80933C0E8FE680933F0E1092A00D9F
:10257000E7ECFDE080E090E13FEF28E1828390838B
:1025800015863487108A238790878F5F77968530EA
:10259000A9F70895CF93DF93EC01E881F981CF018A
:1025A000019699838883949197FD05C0892F90E0C7
:1025B000DF91CF9108959F77892F90E09F012E5F43
:1025C0003F4F9695982F882797958795522F432FA1
:1025D000F9013197E4916E2F6F77860F911D2F5F70
:1025E0003F4FE7FDEECF58834983E2CFFF920F9331
:1025F0001F93CF93DF93EC01162F022FF8801F86D5
:102600008FEF8E874D871C8A9F2D977B9883298318
:102610001A8619861C828B838A81833031F5F7FCF8
:10262000062F81E091E09093B70D8093B60D81E085
:102630008093B50D102FF7FE52C0198BE0913C0E20
:10264000F0913D0E89E0189FE00DF11D11243396A5
:1026500085919491009709F044C01E8A1D8ADF91EC
:10266000CF911F910F91FF900895843009F031C0F0
:102670001092BD0D80913C0E90913D0E29E0629F1D
:10268000800D911D1124FC01319645915491509378
:10269000BF0D4093BE0D9C01295F3F4FF90165912D
:1026A00074910596FC0185919491681B790B709348
:1026B000C10D6093C00DF90185919491480F591F88
:1026C0005093C30D4093C20D602F84E00E94D51536
:1026D000B2CF60E00E94EC15602F8A81F7CF188B93
:1026E000ADCF1B8AFC0124912A8B01969E8B8D8B8A
:1026F000B6CFCF93DF93E0913C0EF0913D0E99E081
:10270000899FE00DF11D1124E491C3E0E130F1F067
:10271000C4E0E230D9F09091DE0D97FF16C09091A1
:10272000EF0D981302C0411110C09091F50D97FF65
:1027300023C09091060E981302C041111DC0209134
:10274000F20D9091090E9217B8F4C1E097E1C99F7C
:10275000E0011124C953D24F90E898831E8A1D8A44
:1027600020E5462F682FCE010E94F61288818062F4
:102770008883DF91CF910895C2E0E8CFCF93DF93B4
:10278000A82FB0E097E1899FF0011124E953F24F9F
:10279000908195FF02C097FD19C021111AC087E1F1
:1027A0008A9FF0018B9FF00D1124E953F24F87852A
:1027B000811102C096FF158687E18A9FF0018B9FE9
:1027C000F00D1124E953F24F9F7B9083DF91CF915D
:1027D0000895322F242F97E19A9FE0019B9FD00DFF
:1027E0001124C953D24F18821E8A1D8A899FC001A5
:1027F0001124432F8953924F0E94F61288818062E0
:102800008883E4CFEF92FF920F931F93CF93DF93D0
:10281000C7ECDDE002EA1DE0C801DE01FD014785ED
:10282000442389F02685042E000C550B240F352FE8
:10283000311D2F3F310519F014F02FEF30E037FD37
:1028400020E0FD0126876C9163FF1CC0FD014581DE
:102850005681FC0121813281240F351F328321836F
:10286000FD017781E72FF0E0EE0FFF1FEE5EF34DE5
:10287000E590F490141615060CF0CEC02E153F0509
:1028800008F0D1C057960696FEE0AA33BF0731F68E
:102890008091A00D882381F187E1F82E80913A0E76
:1028A00090913B0E2091400E3091410E821793077C
:1028B000F1F42091430E3091440EB9016F5F7F4FC8
:1028C0007093440E6093430EF90144914F3F09F019
:1028D000DBC0A9014E5F5F4F5093440E4093430EFF
:1028E000FB0164916F3209F0A4C01092A00D019613
:1028F00090933B0E80933A0EEE24EA94F12C88815B
:1029000085FF1CC02D893E89232BC1F086FD16C092
:102910009B898A89981310C0ED89FE89BF016F5F7A
:102920007F4F7E8B6D8B84918F3F09F020C1888112
:102930008F7788831E8A1D8A9F5F9B8B988180E09A
:1029400095FF59C08C898F3F11F08F5F8C8B97FD5D
:1029500028C19C858D852985882309F424C16E852D
:10296000662309F420C1992309F41DC130913F0E5B
:10297000332309F418C1899FC00111249395892F2D
:102980009927689FA001699F500D1124CA01939552
:102990006B81892F9927689FA001699F500D112491
:1029A0005395452F5527349FC001359F900D112415
:1029B0009395892F99273A853323D1F0E22FF0E0C0
:1029C000E050F24DE491E058E39FF0011124F395BB
:1029D000EF2FFF27B7016E1B7F0B689FA001699F38
:1029E000500D789F500D1124CA019395892F992776
:1029F0003B85230F2987F801808367960A5F1F4F65
:102A0000FEE0CA33DF0709F07ACFDF91CF911F9143
:102A10000F91FF90EF900895452B09F433CFE21604
:102A2000F30608F42FCFFC01F282E182677F6C93FA
:102A300029CF663089F4FA014491C9010496909334
:102A4000440E8093430EF9013396E491E33589F403
:102A50009093460E8093450E83E49EE00E94CA1236
:102A60009093410E8093400E10923B0E10923A0EBE
:102A700015CFE53489F78091450E9091460E9093DD
:102A8000440E8093430EE8CF47FD40933E0E909155
:102A90003E0E892F8F7047FF08C02E5F3F4F309347
:102AA000440E2093430EFB014491907F903BD9F05C
:102AB000903C09F455C0903979F6E091430EF091BD
:102AC000440E9F012F5F3F4F3093440E2093430EDF
:102AD0002491220FF89EF0011124E953F24F6089EE
:102AE0000E94BE13B9CFE091430EF091440E9F01B6
:102AF0002F5F3F4F3093440E2093430EE4914730B5
:102B000051F4F89EC00111248953924F2E2F220FA9
:102B1000FC012487A1CF4B3051F4F89EC001112451
:102B20008953924F2E2F220FFC01238395CF4C35D2
:102B300051F4F89EC00111248953924F2E2F220F79
:102B4000FC01228789CF443609F086CFF89EC00168
:102B500011248953924F2E2F220FFC0123877CCF03
:102B6000F89EF0011124E953F24F408B75CF329655
:102B7000FE8BED8BFB016491E82FF0E0EE0FFF1F61
:102B8000EE53FF4F25913491CE01F9010995ED895E
:102B9000FE89CF0101969E8B8D8BE491EA8B1B8A77
:102BA000B7CE9FEFD7CE80E023CF9927772783300A
:102BB00009F40895E2E1FCE2660F771FE60FF71FC4
:102BC000A591B491E2EAFDE026E0289FE00DF11D19
:102BD000A183B2831124089599277727E2EAFDE0C3
:102BE00026E0289FE00DF11D6E3F31F46091B50D98
:102BF0006E7F6093B50D0BC06F3F31F46091B50DE2
:102C00006E6F6093B50D03C07EE2760F758311245D
:102C1000089522002400260028002B002D003000FB
:102C20003300360039003D004000440048004C00AD
:102C3000510056005B00600066006C007300790074
:102C40008100880090009900A200AC00B600C1008D
:102C5000CC00D800E500F300010110012101320190
:102C6000440157016C0181019801B001CA01E501DD
:102C700002022102410264028802AE02D70203036B
:102C8000300361039403CB03050442048304C704A7
:102C900010055D05AF0505066106C2062907960702
:102CA0000908830805098E09200ABA0A5D0B0A0C77
:102CB000C10C840D510E2B0F121007110A121D1397
:102CC00040147415BA1614188319071BA31C571E39
:102CD00024200E22142439267F28E82A752D293035
:102CE00006330F364539AD3C49401B442848734CE8
:102CF000FE50CF55EA5A51600C661D6C8B725A79A2
:102D0000928037885090E598FDA19FABD3B5A3C0C2
:102D100000000000000000000000000000000000B3
:102D200000000000000000000000000000000000A3
:102D30000000000000000000000000000000000093
:102D40000000000000000000000000000000000083
:102D50000000000000000000000000000000000073
:102D60000000000000000000000000000000000063
:102D70000000000000000000000000000000000053
:102D80000000000000000000000000000000000043
:102D90000000000000000000000000000000000033
:102DA0000000000000000000000000000000000023
:102DB0000000000000000000000000000000000013
:102DC0000000000000000000000000000000000003
:102DD00000000000000000000000000000000000F3
:102DE00000000000000000000000000000000000E3
:102DF00000000000000000000000000000000000D3
:102E0000000306090C101316191C1F2225282B2E4F
:102E1000313336393C3F414447494C4E5153555864
:102E20005A5C5E60626466686A6B6D6F7071737421
:102E3000757678797A7A7B7C7D7D7E7E7E7F7F7FDA
:102E40007F7F7F7F7E7E7E7D7D7C7B7A7A797876C0
:102E500075747371706F6D6B6A68666462605E5CD6
:102E60005A585553514E4C494744413F3C393633EB
:102E7000312E2B2825221F1C191613100C090603AE
:102E800000FDFAF7F4F0EDEAE7E4E1DEDBD8D5D2B5
:102E9000CFCDCAC7C4C1BFBCB9B7B4B2AFADABA880
:102EA000A6A4A2A09E9C9A9896959391908F8D8CA3
:102EB0008B8A8887868685848383828282818181CA
:102EC0008181818182828283838485868687888AC4
:102ED0008B8C8D8F9091939596989A9C9EA0A2A48E
:102EE000A6A8ABADAFB2B4B7B9BCBFC1C4C7CACD59
:102EF000CFD2D5D8DBDEE1E4E7EAEDF0F4F7FAFD76
:102F0000808182838485868788898A8B8C8D8E8F49
:102F1000909192939495969798999A9B9C9D9E9F39
:102F2000A0A1A2A3A4A5A6A7A8A9AAABACADAEAF29
:102F3000B0B1B2B3B4B5B6B7B8B9BABBBCBDBEBF19
:102F4000C0C1C2C3C4C5C6C7C8C9CACBCCCDCECF09
:102F5000D0D1D2D3D4D5D6D7D8D9DADBDCDDDEDFF9
:102F6000E0E1E2E3E4E5E6E7E8E9EAEBECEDEEEFE9
:102F7000F0F1F2F3F4F5F6F7F8F9FAFBFCFDFEFFD9
:102F8000000102030405060708090A0B0C0D0E0FC9
:102F9000101112131415161718191A1B1C1D1E1FB9
:102FA000202122232425262728292A2B2C2D2E2FA9
:102FB000303132333435363738393A3B3C3D3E3F99
:102FC000404142434445464748494A4B4C4D4E4F89
:102FD000505152535455565758595A5B5C5D5E5F79
:102FE000606162636465666768696A6B6C6D6E6F69
:102FF000707172737475767778797A7B7C7D7E7F59
:1030000000020406080A0C0E10121416181A1C1ED0
:1030100020222426282A2C2E30323436383A3C3EC0
:1030200040424446484A4C4E50525456585A5C5EB0
:1030300060626466686A6C6E70727476787A7C7EA0
:103040007F7D7B79777573716F6D6B696765636180
:103050005F5D5B59575553514F4D4B494745434170
:103060003F3D3B39373533312F2D2B292725232160
:103070001F1D1B19171513110F0D0B090705030150
:10308000FFFDFBF9F7F5F3F1EFEDEBE9E7E5E3E140
:10309000DFDDDBD9D7D5D3D1CFCDCBC9C7C5C3C130
:1030A000BFBDBBB9B7B5B3B1AFADABA9A7A5A3A120
:1030B0009F9D9B99979593918F8D8B898785838110
:1030C00080828486888A8C8E90929496989A9C9E10
:1030D000A0A2A4A6A8AAACAEB0B2B4B6B8BABCBE00
:1030E000C0C2C4C6C8CACCCED0D2D4D6D8DADCDEF0
:1030F000E0E2E4E6E8EAECEEF0F2F4F6F8FAFCFEE0
:103100007F7F7F7F7F7F7F7F7F7F7F7F7F7F7F7FCF
:103110007F7F7F7F7F7F7F7F7F7F7F7F7F7F7F7FBF
:103120007F7F7F7F7F7F7F7F7F7F7F7F7F7F7F7FAF
:103130007F7F7F7F7F7F7F7F7F7F7F7F7F7F7F7F9F
:103400000309131E28313A40464C5054585B5E6104
:10341000636567696B6C6E6F7071727374757677C4
:10342000777879797A7A7B7B7C7C7C7D7D7D7E7EEA
:103430007E7E7F7F7F7F7F7F7F7F7F7F7F7F7F7F9E
:103440007F7F7F7F7F7F7F7F7F7F7F7F7F7E7E7E8F
:103450007E7D7D7D7C7C7C7B7B7A7A7979787777C1
:10346000767574737271706F6E6C6B69676563618A
:103470005E5B5854504C46403A31281E13090300F5
:10348000C6CCD5DBDFE3E5E7E9EAEBECEDEEEFEF09
:10349000F0F0F0F1F1F1F1F2F2F2F2F2F2F2F2F315
:1034A000F3F3F3F3F3F3F3F3F3F3F3F3F3F3F3F3EC
:1034B000F3F3F3F3F3F3F3F3F3F3F3F3F3F3F3F3DC
:1034C000F3F3F3F3F3F3F3F3F3F3F3F3F3F3F3F3CC
:1034D000F3F3F3F3F3F3F3F3F3F3F3F3F3F3F3F3BC
:1034E000F2F2F2F2F2F2F2F2F1F1F1F1F0F0F0EFC9
:1034F000EFEEEDECEBEAE9E7E5E3DFDBD5CCC60088
:1035000000283D42302D2C2B2C2D2E2F30323335E0
:1035100037393B3D3F414345484A4C4E5053555740
:10352000595B5D5F61636567696B6C6E7071737425
:10353000757778797A7B7C7D7D7E7E7F7F7F7F7FCC
:103540007F7F7F7F7F7F7E7E7D7D7C7B7A797877B2
:1035500075747371706E6C6B69676563615F5D5BD9
:1035600059575553504E4C4A484543413F3D3B39CE
:1035700037353332302F2E2D2C2B2C2D30423D2839
:1035800000E9E5FED4D7D7D7D6D4D2D0CECCCAC89E
:10359000C6C3C1BFBDBAB8B6B4B1AFADABA9A7A5DC
:1035A000A3A19F9E9C9A999795949391908F8D8CAF
:1035B0008B8A8988888786858584848483838383AE
:1035C0008383838383848484858586878888898AA6
:1035D0008B8C8D8F909193949597999A9C9E9FA197
:1035E000A3A5A7A9ABADAFB1B4B6B8BABDBFC1C3AF
:1035F000C6C8CACCCED0D2D4D6D7D7D7D4FEE5E968
:10360000F9F8F9F5EBE1DDDEE0E2E4E5E6E5E4E238
:10361000DED9D2CAC1B7ACA299918A868381808053
:103620008182838586888A8C8D8F909293959697D8
:1036300098999A9B9B9C9D9D9D9E9E9E9F9F9F9FC0
:103640009F9F9F9E9E9E9D9D9D9C9B9B9A999897B8
:1036500096959392908F8D8C8A88868583828180BF
:10366000808183868A9199A2ACB7C1CAD2D9DEE2A1
:10367000E4E5E6E5E4E2E0DEDDE1EBF5F9F8F900AA
:103680000708070B151F2322201E1C1B1A1B1C1EBC
:1036900022272E363F49545E676F767A7E7F7F7F82
:1036A0007F7E7D7B7A7876747371706E6D6B6A69DC
:1036B00068676665656464636362626261616161D3
:1036C00061616162626263636364656566676869BC
:1036D0006A6B6D6E7071737476787A7B7D7E7F7F96
:1036E0007F7F7E7A766F675E54493F362E27221E93
:1036F0001C1B1A1B1C1E2022231F150B070807006A
:103700001F313D444E5354565A5F64696E74767946
:103710007C7F7F7F7F7F7F7F7F7F7F7F7F7F7F7FBC
:103720007F7F7F7F7F7F7F7F7F7F7F7F7F7F7F7FA9
:103730007F7F7F7F7F7F7F7F7F7F7F7F7F7F7F7F99
:103740007F7F7F7F7F7F7F7F7F7F7F7F7F7F7F7F89
:103750007F7F7F7F7F7F7F7F7F7F7F7F7F7F7F7F79
:103760007F7F7F7F7F7F7F7F7F7F7F7F7F7F7F7F69
:103770007F7F7F7F7F7F7F7F7F7F7F7C7871684CBB
:103780002C1C120C0A0B0A05FDF3E9DFD4CAC0B7E2
:10379000AEA69E97918B8685828080808080808077
:1037A0008080808080808080808080808080808019
:1037B0008080808080808080808080808080808009
:1037C00080808080808080808080808080808080F9
:1037D00080808080808080808080808080808080E9
:1037E00080808080808080808080808080808080D9
:1037F000808080808087919DACC4CBD4DDF2FAFAC2
:103800002F923F924F925F926F927F928F929F92F0
:10381000AF92BF92CF92DF92EF92FF920F931F93DE
:10382000CF93DF9300D000D0CDB7DEB780910001F9
:10383000882309F4C0C08091610D8093600D80934E
:103840005F0D28E634E03C832B83EB81FC816380B1
:1038500062FC87C0908188E0890F86958695869561
:1038600081508A83977009F49FC0F2E0F983EB815D
:10387000FC81818158E0552E580E569456945694EA
:103880005A94877022E009F421E0712C762C66248A
:10389000EB81FC813281630E711C082F10E0102F28
:1038A0000027090F111D252C220EB12CA12CFBE1A4
:1038B000F51508F452C02EE1529E400111243A80C1
:1038C000D12CC12C3DE1331508F43FC0C401830D58
:1038D000911DFC01E05EFE4F7F0140808091600DF4
:1038E000481618F0F0E2F41520F560915F0D613292
:1038F000E8F420E2241508F05AC08FED840D0E94F0
:10390000F80D80915F0D282F30E0F901EE0FFF1FB9
:10391000E20FF31FE450F34FF182E0824282F7019D
:10392000808391E0980F90935F0D482EF0E2F4159C
:1039300060F08091600D481640F09801A5014C0D93
:103940005D1DB301842D0E94270F2FEFC21AD20AEA
:1039500033943981C31608F4B5CF5394B3945210FD
:10396000A6CFEB81FC813496FC83EB832CEB34E017
:103970002E173F0709F069CF0F900F900F900F900F
:10398000DF91CF911F910F91FF90EF90DF90CF903B
:10399000BF90AF909F908F907F906F905F904F906F
:1039A0003F902F900C94140F21E0298360CF842D39
:1039B0000E94870EA6CF0F900F900F900F90DF916F
:1039C000CF911F910F91FF90EF90DF90CF90BF901C
:1039D000AF909F908F907F906F905F904F903F90AF
:1039E0002F900895CF92DF92EF92FF920F931F9343
:1039F000CF93DF93FB01549131969491BFEFB50FB4
:103A00001FEF40FD02C011E0B0E02FEF290F0FEFD4
:103A100041FD02C001E020E0A0E0A91701F125036B
:103A2000E0011124D82ED50E3B2F14C0FE01E30F68
:103A3000F11D37FDFA953296E60FF71FC490F4E0BA
:103A40008F9F70011124F701E859FB4FC2828F5FED
:103A50004383310F8D11EACF200FAF5FDECFDF91AF
:103A6000CF911F910F91FF90EF90DF90CF9008952D
:103A70000F9330E0301799F0582F520F962F0AC04D
:103A800074E0879FF0011124E859FB4F9083418334
:103A90008F5F985F8513F4CF3F5F485FEBCF0F9147
:103AA0000895E8E6F4E090EF80EE90838183349609
:103AB00024E0EC3BF207C9F710925F0D1092610D04
:103AC00008958F929F92AF92BF92CF92DF92EF9222
:103AD000FF920F931F93CF93DF93882ED62F8A01E7
:103AE000FA0194903196C491C92CD12CC60FDC13E5
:103AF00020C0DF91CF911F910F91FF90EF90DF9049
:103B0000CF90BF90AF909F908F900895F501EE0DEC
:103B1000FF1D449150E06D2F882D8E0D0E943D11A8
:103B2000FFEFEF1AFF0AE91488F30C0D1D1DDF5F8C
:103B3000DECFF12CE12C580182E0A80EB11CF3CFAE
:103B40000F931F93CF93DF938C01D0E0C0E0C01799
:103B5000D1072CF0DF91CF911F910F9108950E9412
:103B600050118823E1F30E9454112196F0CF83E194
:103B700099E00E94AF1283E191E00E944B110E94F4
:103B800033118FE090E00E94A01D41E06FEF80E0D4
:103B90000E9479134DEF50E06CE08DE00E94611DB2
:103BA00083E090E00E94A01D4CEE50E06CE08DE0C0
:103BB0000E94611D82E090E00E94A01D4DEF50E048
:103BC0006CE08DE00E94611D81E490E00E94A01DE8
:103BD0000E94331184E190E00C94A01D80914A0E64
:103BE000882309F180914B0E81111AC08091480EF3
:103BF00080934B0EE0914C0EE150FF0BE052FF4FD3
:103C0000E491E7B980914C0E9091490E890F809311
:103C10004C0E882311F08D3031F410924A0E089525
:103C2000815080934B0E08950E94EE1D0C94001C51
:103C300080912E0F8F5F80932E0F10921010823084
:103C4000C1F441EE50E06BE17DE08DE49EE00E9426
:103C50006D2341EE50E06AE37CE08FE29FE00E943A
:103C60006D2344E650E066ED7BE087E190E10C9443
:103C70006D23833079F441EE50E065EF7AE08DE416
:103C80009EE00E946D2341EE50E064E17AE08FE215
:103C90009FE0EDCF08950F938091151081111DC005
:103CA000683071F480911610811119C08091141040
:103CB00081508093141080911210885080931210BC
:103CC00082E090E00E94A01D01E021E040911210EE
:103CD0006091111080E00E94381D0F91089581308D
:103CE00049F4809114108F5F80931410809112100A
:103CF000885FE4CF823059F4809113108150809313
:103D0000131080911110885080931110D9CF8330F7
:103D1000B9F6809113108F5F80931310809111106A
:103D2000885FF2CF5F926F927F928F929F92AF9255
:103D3000BF92CF92DF92EF92FF920F931F93CF9398
:103D4000DF935C017A01EB018DE4882E8EE0982EE2
:103D50009FE2C92E9FE0D92E3B018FE0680E711CB7
:103D600010E000E0F40181E0A816B10429F082E03F
:103D7000A816B10421F4F601E00FF11F5080D7FD21
:103D800036C0C8018E0D9F1D97FD31C046ED58E12C
:103D9000552041F181E048EE58E1581619F183E0D1
:103DA00045EE58E15816F1F084E04CED58E1581614
:103DB000C9F087E049ED58E15816A1F08EE04FEDCB
:103DC00058E1581679F08FE042EE58E1581651F05C
:103DD0008AE045EA58E1581629F088E2581207C0EF
:103DE0004AEF58E16E2D600F8C2F0E94611D0F5F0E
:103DF0001F4F0F30110509F0B5CF21968FE0880EC7
:103E0000911C8FE0C80ED11CC615D70509F0A8CFAC
:103E1000DF91CF911F910F91FF90EF90DF90CF90A6
:103E2000BF90AF909F908F907F906F905F9008951C
:103E3000AF92BF92CF92DF92EF92FF920F931F93B8
:103E4000CF93DF937B0127E1C22E20E1D22E8C019C
:103E50005C018AE0A80EB11CD0E0C0E017FD2EC0C6
:103E6000C7018C0F9D1F97FD29C0F601EC0FFD1FA8
:103E7000808146ED58E18823E1F048EE58E1813039
:103E8000C1F045EE58E18330A1F04CED58E18430AB
:103E900081F049ED58E1873061F04FED58E18E3007
:103EA00041F042EE58E18F3021F08A3039F445EA92
:103EB00058E16C2F6E0D802F0E94611D2196CA3033
:103EC000D10561F68AE0C80ED11C0F5F1F4F0A159D
:103ED0001B0511F6DF91CF911F910F91FF90EF908D
:103EE000DF90CF90BF90AF9008950F931092101075
:103EF00081E0809315100E9433114FEC58E16AE184
:103F00008CE00E94611D80912E0F813041F590E779
:103F1000909311109093121094E09093131099E0E5
:103F200090931410809315106DEF7FEF84E090E074
:103F30000E94181F4DEF5FEF6AE070E082E090E0B2
:103F40000E94921E45E050E06AE070E081E090E05F
:103F50000E94921E4CEC58E16AE181E14FC0823030
:103F600029F580E78093111088E58093121086E090
:103F70008093131085E08093141060E170E084E07A
:103F800090E00E94181F48E050E06AE070E082E094
:103F900090E00E94921E46E050E068E070E081E010
:103FA00090E00E94921E49EC58E1D6CF833009F090
:103FB00042C090E49093111098E690931210809371
:103FC000131087E08093141046E050E06EE070E03C
:103FD00082E090E00E94921E46E050E065E070E0D2
:103FE00081E090E00E94921E49EC58E16AE181E193
:103FF0000E94611D46EC58E16AE182E10E94611D68
:1040000040E06EEE78E180E00E94F21C70E060E03B
:1040100083E090E00E944B1E82E090E00E94A01D91
:1040200001E021E0409112106091111080E00E94A7
:10403000381D0F91089542EC58E1843009F48CCF7B
:104040004EEB58E1853009F487CF4AEB58E18630D2
:1040500009F482CF45EB58E1873009F47DCF40EB7E
:1040600058E1883009F478CF4CEA58E1893009F4F6
:1040700073CF8A3029F648EA58E16ECF909110103C
:104080008823C9F19F5F909310100E943311809193
:104090001010811145C04FEC58E16AE18CE00E949C
:1040A000611D80912E0F813041F598E7909311109A
:1040B00090E39093121095E0909313108093141056
:1040C0006DEF7FEF84E090E00E94181F4DEF5FEFEF
:1040D0006AE070E082E090E00E94921E45E050E0CD
:1040E0006AE070E081E090E00E94921E4CEC58E1A2
:1040F0006AE181E113C09150C6CF49EC58E18230AA
:10410000B9F3833009F042C049EC58E16AE181E13A
:104110000E94611D46EC58E16AE182E10E94611D46
:1041200080911010813009F068C04FEC58E161E0D7
:104130008CE00E94611D80912E0F813009F04AC0F1
:1041400080E78093111088E78093121089E08093B4
:1041500013108093141066E070E08FEF9FEF0E94C1
:10416000181F46E050E065E070E082E090E00E94B9
:10417000921E4EE050E065E070E081E090E00E9429
:10418000921E4CEC58E161E081E135C042EC58E10F
:10419000843009F4ADCF4EEB58E1853009F4A8CF57
:1041A0004AEB58E1863009F4A3CF45EB58E187305C
:1041B00009F49ECF40EB58E1883009F499CF4CEADE
:1041C00058E1893009F494CF8A3009F0A9CF48EA40
:1041D00058E18ECF49EC58E18230A9F2833009F0E2
:1041E00043C049EC58E161E081E10E94611D46EC69
:1041F00058E161E082E10E94611D809110108230DF
:1042000009F08AC04FEC58E161E08CE00E94611D2A
:1042100080912E0F813009F04BC080E880931110FF
:1042200080E68093121088E08093131085E08093DD
:10423000141067E070E088E090E00E94181F47E0EB
:1042400050E06EE070E082E090E00E94921E4FE04D
:1042500050E06EE070E081E090E00E94921E4CEC35
:1042600058E161E081E134C042EC58E1843009F466
:104270008ACF4EEB58E1853009F485CF4AEB58E1FF
:10428000863009F480CF45EB58E1873009F47BCFC5
:1042900040EB58E1883009F476CF4CEA58E1893098
:1042A00009F471CF8A3009F0A8CF48EA58E16BCF02
:1042B00049EC58E18230A9F2833061F449EC58E1CD
:1042C00061E081E10E94611D46EC58E161E082E11C
:1042D0000C94611D42EC58E1843019F24EEB58E128
:1042E000853009F4BECF4AEB58E1863009F4B9CFE6
:1042F00045EB58E1873009F4B4CF40EB58E1883002
:1043000009F4AFCF4CEA58E1893009F4AACF8A30DA
:1043100019F448EA58E1A5CF08950F939091101031
:10432000911110C02FE08202F0011124E35BF14FE4
:10433000E60FF11D67FDFA952081211115C080E07F
:104340000F910895913039F42FE08202F001112489
:10435000E15DF04FEDCF923081F72AE08202F0016B
:104360001124E95EFF4EE4CF2230D1F491509093B6
:10437000101080912E0F813011F081E0E1CF88E59F
:10438000809312102093131084E08093141001E0A6
:1043900021E048E56091111080E00E94381DEDCFCA
:1043A000253069F580912E0F8230A9F49F5F90939C
:1043B0001010913039F488E08093131086E08093D8
:1043C0001410BDCF923009F0BACF88E0809313105B
:1043D00090931410B4CF833051F49F5F90931010DA
:1043E000913009F0ACCF909313108BE0E8CF92306E
:1043F0000CF0A5CF81E090E00E943E20A0CF2630B7
:1044000029F580912E0F823089F4915090931010ED
:10441000911105C08AE08093131088E0D0CF9130CD
:1044200009F08DCF809313108AE0C9CF833059F4FF
:10443000915090931010911182CF8AE080931310C5
:10444000209314107CCF90E080E0D6CF2A30D1F4B6
:1044500040E06DEF78E180E00E94F21C01E021E095
:104460004FEF6FEF80E00E94381D0E9433118EE104
:1044700090E00E94A01D0E94181E0E94751F1092BD
:1044800015107BCF28522A3008F077CF0E94751F75
:1044900074CF10922E0F0E94331182E290E10E949D
:1044A0004B1182E290E10E942E1181E08093151061
:1044B000C1E0D0E714E089E0F82E93E0E92E22E095
:1044C000D22E80E00E945A1190937C1080937B1032
:1044D00090FD0E94751F80917B1090917C1091FF40
:1044E00059C080912E0F811153C0C0932E0FD093CD
:1044F0001110D093121010931310F092141041EE7B
:1045000050E061E47FE08DE49EE00E946D2341EE87
:1045100050E060E67EE08FE29FE00E946D2344E67B
:1045200050E06CEF7DE087E190E10E946D2340E078
:104530006EEE78E180E00E94F21C01E021E0409103
:1045400012106091111080E00E94381D6DEF7FEF16
:1045500084E090E00E94181F4DEF5FEF6AE070E08A
:1045600082E090E00E94921E45E050E06AE070E038
:1045700081E090E00E94921E4FEC58E16AE18CE0ED
:104580000E94611D4CEC58E16AE181E10E94611DCD
:104590001092151080917B1084FF20C040E064EFE2
:1045A00078E180E00E94F21C1092161060911410C5
:1045B0006150809113100E948D21811104C080915F
:1045C0001510882329F081E090E00E94A01D79CF8A
:1045D00068E0809116100E944B1EE8CF85FF1BC03B
:1045E00040E061EF78E180E00E94F21CC093161079
:1045F000609114106F5F809113100E948D218111C2
:10460000E2CF809115108111DECF68E08091161005
:104610000E944B1EEDCF86FF1BC040E06BEE78E1A1
:1046200080E00E94F21CD0921610809113106091CD
:10463000141081500E948D218111C5CF80911510D9
:104640008111C1CF68E0809116100E944B1EEDCF02
:1046500087FFB9CF40E06EEE78E180E00E94F21C67
:10466000E092161080911310609114108F5F0E94D9
:104670008D218111A8CF809115108111A4CF68E000
:10468000809116100E944B1EEDCFAA1BBB1B51E15F
:1046900007C0AA1FBB1FA617B70710F0A61BB70BB2
:1046A000881F991F5A95A9F780959095BC01CD0157
:1046B000089597FB072E16F4009407D077FD09D0D4
:1046C0000E94452307FC05D03EF4909581959F4FAD
:1046D0000895709561957F4F0895FB01DC0102C03C
:1046E00005900D9241505040D8F70895F894FFCFAF
:0246F0000100C7
:00000001FF
