:100000000C94BC060C9426070C9426070C94260727
:100010000C9426070C9426070C9426070C942607AC
:100020000C9426070C9426070C9426070C9426079C
:100030000C9426070C94CA090C94090A0C94A7077F
:100040000C9426070C9426070C9426070C9426077C
:100050000C9426070C9426070C9426070C9426076C
:100060000C9426070C9426070C9426070C9426075C
:10007000810045005DFF5E1027FF2AD22B7D210CF9
:1000800022FB850084008903888D81096F02444228
:1000900047004501B083B300B10124B925578A1D3B
:1000A0008B035A55012001010038080000000000B0
:1000B0000000000000000000000000000000000040
:1000C0000000510C540CB00CB40CBB0C5C0C610C5B
:1000D000660CC30C690C6C0C6F0CAA0CAD0CD30C29
:1000E00000408891D2E4ADB5B6BEBFFF0503001352
:1000F0001415161718191A1B1C1D1E1F00050400C5
:100100000102030405060708090A0B0C0D000E0F77
:1001100010111200000000000000000000000000AC
:1001200000000000000000000000000000000000CF
:1001300000000000000000000000000000000000BF
:1001400000000000000000000000000000000000AF
:10015000000000000000000000000000000000009F
:10016000000000000000000000000000000000008F
:1001700000004900000000004952520000004952AE
:10018000531C25004952522425251B52525C2D2D0B
:100190001C121200000000000000000000000040DF
:1001A00049494900404949525B5B5B4A52525B1CDA
:1001B0001C13125B1C241C12090909241B120909B7
:1001C00009090A0A0A0A0A0A0A0A130A0A120A0A80
:1001D00012130A0000000000000000925252525216
:1001E00052524913121309001C1B130A1212401B0E
:1001F00065641C090A0009241B1C65120000251CEB
:100200001C1C1C010025241C1C1C1C00242524244F
:10021000241C1C00000000000000004940000000F9
:1002200000000052494900000000001C5B4A4800E1
:100230000000001C255249000000006524644900AC
:1002400000000065256449000000006D2E5C490037
:10025000000000000000000000405200000000000C
:1002600049525C0000000053522425000000535204
:1002700025252500004A5225251B0000005B25137B
:1002800000001B005B53000A1C3737095B1C657FAD
:10029000372E2E522E2E1C131312002E251B131236
:1002A0000000121C1C12000012251C120000122E4D
:1002B000371C1300132E37361C131B37372E2E25F1
:1002C000131C1C2E2E2E2E1B1C1C1C6E6E6E1C1C3A
:1002D0001C1C1C09131312121313001313131313F2
:1002E0001C0009131313131C0100371313131C13E1
:1002F000002E2E1B1B1C1C001C772E1B1B25001305
:100300007F251C1C1C010A37241C1C1C130A2E25CB
:10031000250900132E2425252525252E25252525CF
:1003200025252525252D2E251B1C1C2E2E251C1391
:10033000251B13251C1C1C1C0109521C1C1300012D
:100340001C5B5C0A000165775C1B00016E7F6E52CE
:100350001B00006D1C5249000000001C13530000DC
:100360000000001C524A00000000005B5B0000001F
:100370000000005C00000000000000000000000021
:10038000000000000000000000000000000000006D
:10039000000000135B7F776E6E6E6E136577766E6E
:1003A0006E6E6E1B65777676766E771B5BBF76B664
:1003B00076767609136DBFB7B6B765001B125C760B
:1003C000BF766D0000121B125B5B5C000000000931
:1003D0000A12136E77241C1C1C1C1C77251C1C1C69
:1003E0001C24256E1C1C1C2425251B1C1C242525B7
:1003F000130000646D6D1B00096EBF6D5B09126E0A
:10040000BF6D5B5B125B645B121312131B1212094C
:100410000100001C242E1C0900096E25240100097E
:10042000767F7F000012777F7F641264BFBF775BA7
:10043000121B09BF6D5B121B09000012131B090080
:1004400000000009000000000000000000000000A3
:100450000000007F7F53131300000064121B010093
:100460000000001B1200000000000000000000005F
:10047000000000000000000000000000000000007C
:10048000000000000000000000000000000000006C
:100490000000000000000000000000260000002610
:1004A0000026262F0000002F000000370000003734
:1004B000000000FF000000FF000000BF000000BFC0
:1004C0000000BF370000370000370000262600007C
:1004D0000026260000000000000000262626002638
:1004E00026262600002F002F0000000037000037CE
:1004F000000000FF000000FFFFFFFF00000000BF42
:10050000000000000000003700000026262600261C
:1005100026262600000000000000002600262626D1
:1005200026000000002F0000002F00000037000010
:100530000037000000FFFFFFFF00000000BF0000C9
:1005400000BF0000003700000037002600262626E6
:100550002600000000000000000000000026262603
:10056000002600002F00002F002F0037000000376A
:10057000000037FF000000FF000000BF000000BFC8
:100580000000BF3700003700003700262626000095
:10059000002600000000000000000000002600000F
:1005A00000000000002F00000000000037000000E5
:1005B000000000FF0000000000000000BF0000007D
:1005C00000000000003700000000000000260000CE
:1005D000000000000000000000000000000000001B
:1005E000000000000000000000000000000000000B
:1005F0000000E400000000099BEDF60000009BA451
:10060000ADBFBF00529BA4767F7FB75B9B6D777FAA
:10061000766EB70000000000000000000000005BE4
:10062000B6F6F6005BF6FFFFFFFFBFF6FFFFFFFF2A
:10063000BFBFAEFFBFFFFFFFB7AD65BFBFFFFFB7D7
:10064000B6AD65B7BFFFFFBFB7AE6EB7BFFFFFBFA9
:10065000B7B7650000000000000000F6F6EDEDAD54
:10066000A4A49BB66D6D5C526E656465656552654C
:10067000766D255C5C52536E24656E6552526E2514
:100680002524255B52772D25252524526E6E2D2598
:1006900025252500000000000000009B4900000007
:1006A000000000A49B920000000000256493490014
:1006B000000000652E9B52000000006D2565520071
:1006C0000000006D2D6552000000006E2E64520087
:1006D000000000000000000000495B000000000076
:1006E0004A5B65000000005B9B6D2D0000005B5BBA
:1006F0002D2E250000525B2E2E1C0900015B2D1CA7
:1007000001091C005C5B014A65777F4A5B1C6E7FB8
:100710007777769B77776D656E6EA4776E65656586
:100720005BA4B725255C52526DBFBF130949647F96
:10073000BFBFBF095C7F7FBFBFB7BF7F7F777F7FB2
:10074000B7BFBF77777F7F6EB7BFBF777F7F6E778B
:10075000BFBFBFB6FFFFFFBFBFB75BBFFFFFFFBF9E
:10076000BFA464BFFFFFFFBFADA47FBFFFFFFFBFFC
:10077000A4BF7FFFFFFFBFADBFBFBFFFFFFFB6BF7F
:10078000BFBF77FFFFF7BFBFBF7777FFFFFFBFBFD9
:10079000BF64526D7F6E2E2D2D256E7F766E6E6E30
:1007A0002E2565777777762E1C25247F776E251C7E
:1007B000251C1B776525251C090A5B6E6E1C0949E3
:1007C0002564645B494A6E7F645C005377BF775B46
:1007D0005C00006E255B4A000000001C1B5B0000F3
:1007E000000000245B5300000000005B5C00000080
:1007F0000000006400000000000000000000000095
:1008000000000000000000000000000000000000E8
:100810000000005B5C7FBF777677775C6D7FB77792
:100820007777775C6D7FBF777777BF5C64BFBFBF3B
:10083000BFBF7F0A5C6EBFBFBFBF760065646DBF80
:10084000BFBFBF00005B6D646DADB600000000125D
:100850005B646D777F6E6E77BFBFBF7F766D767797
:10086000BFBFBF776D6E767FBFBFBF6D6E767FBF38
:10087000B7ADF676BFBF76A4ADFFFFBFB664ADFFE0
:10088000FFFFFFB6ADBFFFFFFFFFF6ADB6AD645B88
:10089000520000FFFFBFBFAD5B64BFFFFFB6ADAD51
:1008A000BFFFBFFFF6FFFFFFFFBF64FFFFFFFFBFFC
:1008B000B6765BFFFFFFBFBF5B0000FFFFFF5C0082
:1008C000000000A400000000000000000000000084
:1008D000000000BFBF645C5C0000006E5C65490006
:1008E0000000006D5B000000000000000000000040
:1008F00000000000000000000000000000000000F8
:1009000000000000000000000000000000000000E7
:100910000000000000001C090000000000020800A8
:10092000085504085A0000F8000990000A1E320514
:100930000000FFFFFFFFFFFFFFFFFFFFFFFFFFFFC5
:10094000FFFFFFFFFFFFFFFFFFFFFFFFFFFFFFFFB7
:10095000FFFFFFFFFFFFFFFFFFFFFFFFFFFFFFFFA7
:10096000FFFFFFFFFFFFFFFFFFFFFFFFFFFFFFFF97
:10097000FFFFFFB0F6B0B0B0B0F6B0B0F6B0F6F62C
:10098000B0F6B0B0F6B0F6F6B0F6B0B0F6B0B0B0C3
:10099000B0F6B0B0F6B0B0B0B0F6B0B0F6B0F6F6B3
:1009A000B0F6B0B0F6B0F6F6B0F6B0B0F6B0B0B0A3
:1009B000B0F6B000000000000000000000000000E1
:1009C0000000000000000000000000000000000027
:1009D0000000000000000000000000000000000017
:1009E0000000000000000000000000000000000007
:1009F000000000B1F6B1B1B1B1F6B1B1B1F6F6F6A1
:100A0000F6B0F6B1F6B1B1B1B1F6B0B1F6B1F6F6F5
:100A1000B0F6B0B1F6B1F6F6B0F6B0B1F6B1B0B12D
:100A2000B1F6B0B1B1F6F6F6F6B0F6B1B1B1B1B11A
:100A3000B0B0B0B0B0B0B0B0B0B0B0F6F6F6F6F658
:100A4000F6F6F6B0B0B0B0B0B0B0B0B0F6F6B0B048
:100A5000F6F6B0B0F6F6B0B0F6F6B0B0B0B0B0B0F2
:100A6000B0B0B0F6F6F6F6F6F6F6F6B0B0B0B0B056
:100A7000B0B0B0B0B1B1B1B1B1B1B1F6B1F6F6F656
:100A8000F6B1B1B1F6B1B1B1B1F6B1B1F6B1F6F6B8
:100A9000B1F6B1B1F6B1F6F6B1F6B1B1F6B1B1B1A8
:100AA000B1F6B1F6B1F6F6F6F6B1B1B1F6B1B1B153
:100AB000B0F6B0B1B1B1B1B1B1B1B1B1B1F6F6F614
:100AC000F6B1F6B1F6B1B1B1B1F6B1B1F6B1F6F633
:100AD000B1F6B1B1F6B1F6F6B1F6B1B1F6B1B1B168
:100AE000B1F6B1B1B1F6F6F6F6B1F6B1F6B1B1B113
:100AF000B0F6B0B1F6B1B1B1B1F6B1F6B1F6F6F605
:100B0000F6B1B1B1F6B1B1B1B1F6B1B1F6B1F6F637
:100B1000B1F6B1B1F6B1F6F6B1F6B1B1F6B1B1B127
:100B2000B1F6B1F6B1F6F6F6F6B1B1B1B1B1B1B117
:100B3000B0B0B000000000000000000000000000A5
:100B4000000000000000000000000000070000009E
:100B5000000700FF0707000007FF0707FF07000760
:100B60000007FF00070007FF070700000700000756
:100B7000000700B0F6B1B1B1B1F6B1B1B1F6F6F619
:100B8000F6B1F6B1F6B1B1B1B1F6B1B1F6B1F6F672
:100B9000B1F6B1B1F6B1F6F6B1F6B1B1F6B1B1B1A7
:100BA000B1F6B1B1B1F6F6F6F6B1F6B1B1B1B1B197
:100BB000B0B0B0B0F6B1B1B1B1F6B1F6B1F6F6F68B
:100BC000F6B1B1B1F6B1B1B1B1F6B1B1F6B1F6F677
:100BD000B1F6B1B1F6B1F6F6B1F6B1B1F6B1B1B167
:100BE000B1F6B1F6B1F6F6F6F6B1B1B1B1B1B1B157
:100BF000B0B0B03F3F3F3F3F3F01003F2F3F2F3F4F
:100C00003F01003F003F003F3F3F3F3F003F003F6D
:100C10003F01003F3F3F3F3F3F3F3F3F3F00003FDF
:100C20003F01002F3F3F3F3F2F0000002F2F2F2F6E
:100C300000000000013F3F3F3F3F3F00013F3F2F8B
:100C40003F2F3F3F3F3F3F003F003F00013F3F00FE
:100C50003F003F3F3F3F3F3F3F3F3F00013F3F009F
:100C6000003F3F00002F3F3F3F3F2F0000002F2F4E
:100C70002F2F00002F3F3F3F3F3F3F2F3F3F3F0081
:100C8000002F3F2F3F003F3F3F3F3F2F3F003F00A0
:100C9000002F3F2F3F3F3F3F3F3F3F002F3F3F3F12
:100CA0003F3F3F0000013F013F01010000003F00C6
:100CB0003F00000000003F003F00000000013F0136
:100CC0003F0101002F3F3F3F3F3F3F2F3F3F3F3F0F
:100CD0003F3F3F2F3F003F00002F3F2F3F003F3F50
:100CE0003F3F3F2F3F3F3F00002F3F002F3F3F3F01
:100CF0003F3F3F01010B01010C01010E01010D09F4
:100D0000040604040404040A0201010202020202AD
:100D100002020101020604040404040A01020100A3
:100D2000000000000009090000000102030404059E
:100D30000604040702020202010102020202020288
:100D40000201010202020202020201010202020287
:100D50000202020101020202020202020101020277
:100D60000202020202010102020208020202010959
:100D7000040404040404040A11241FBECFEFD0E1CC
:100D8000DEBFCDBF11E0A0E0B1E0ECE0F4E302C0D3
:100D900005900D92A637B107D9F72EE0A6E7B1E08E
:100DA00001C01D92A73BB207E1F714BE0FB6F8943D
:100DB000A895809160008861809360001092600027
:100DC0000FBEF89480E790E0FC0125913491F90181
:100DD000FF273083029620E0823A9207A9F70E940B
:100DE000380C811102C00E94160C81E08093160E0F
:100DF0008093170E8093150E1092020E1092080E1B
:100E000010920E0E1092140E10921A0E1092D00D17
:100E10001092D20D92E19093D10D90EE9093D80D57
:100E200094E19093D70D1092DC0D1092DB0D10928F
:100E3000E00D1092DF0D8093010E0E9451177894FF
:100E40000E94B7170E9426190C94041A0C940000F3
:100E500003E80A95F1F700C00091C00DECE5FDE054
:100E600023E0029FE00DF11D2091BF0D3CE3321BFA
:100E7000300F201751F000000000A191B1911C919A
:100E800011930C9303950217C0F313E01A95F1F731
:100E900000C03A95D1F7C0E8D1E0662717E01A956F
:100EA000F1F700C04091CE0D5091CF0D6090CA0D6A
:100EB0007090CB0DD3015E01762F00C03091CD0D27
:100EC000303009F0C8EC09F0D4E009F0DA0115E09F
:100ED0001A95F1F78090D80D07E00093360001E0F5
:100EE0000093810001E000936F0008E0609F8D0196
:100EF00000541840000D111D18010CE115E0000D03
:100F0000111D280100E4E02E03E31AEFCF93DF93D5
:100F1000599100C000C01FD32CE02A95F1F710931F
:100F2000850000938400789400275E9D5132F10182
:100F300008F4F201001FE00DF11D1AE01A95F1F717
:100F40000000112700FF02C0000065C048C018B9AA
:100F50000F900F90DF91CF9103E00A95F1F700C059
:100F600063958A94B1F0683029F007E00A95F1F7AB
:100F700000C0BBCF66276E960491049100C03A95DD
:100F800009F4672F09F4E50100C000C009F4D3019A
:100F9000ACCF20E12A95F1F700E0009385000CE248
:100FA00000938400D8D211240E945009E091D20D00
:100FB00042E0E160E427E093D20D07E000933600C1
:100FC00009E00093810002E000936F00089505910D
:100FD00008B9020C0000059108B9131CF001059135
:100FE00008B900C0059108B94991059108B900C038
:100FF000059108B94E9D059108B94132000005914F
:1010000008B928F70000059108B9040C0000059103
:1010100008B9151CF0010000019108B949910000C0
:10102000019108B900004E9D019108B90491019108
:1010300008B90491019108B9413200C0019108B981
:1010400050F40000040C019108B9151C0000019136
:10105000F00108B9E0CF020C019108B9131C00009F
:101060000191F00108B9BBCF20E4E091CA0DF091E5
:10107000CB0D829FE00DF11DACE1B5E0629FA00DAC
:10108000B11D15901D9215901D9215901D921590F1
:101090001D9215901D9215901D9215901D92159000
:1010A0001D9215901D9215901D9215901D921590F0
:1010B0001D9215901D9215901D9215901D921590E0
:1010C0001D9215901D9215901D9215901D921590D0
:1010D0001D9215901D9215901D9215901D921590C0
:1010E0001D9215901D9215901D9215901D921590B0
:1010F0001D9215901D9215901D9215901D921590A0
:101100001D9215901D9215901D9215901D9215908F
:101110001D9215901D9215901D9215901D9215907F
:101120001D9215901D9215901D9215901D9215906F
:101130001D9215901D9215901D9215901D9215905F
:101140001D9215901D9215901D9215901D9215904F
:101150001D9215901D9215901D9215901D9215903F
:101160001D9215901D9215901D9215901D9215902F
:101170001D9215901D9215901D9215901D9215901F
:101180001D921124089520E4ECE1F5E0829FE00D2A
:10119000F11DACE1B5E0629FA00DB11D11901D9253
:1011A00011901D9211901D9211901D9211901D92FF
:1011B00011901D9211901D9211901D9211901D92EF
:1011C00011901D9211901D9211901D9211901D92DF
:1011D00011901D9211901D9211901D9211901D92CF
:1011E00011901D9211901D9211901D9211901D92BF
:1011F00011901D9211901D9211901D9211901D92AF
:1012000011901D9211901D9211901D9211901D929E
:1012100011901D9211901D9211901D9211901D928E
:1012200011901D9211901D9211901D9211901D927E
:1012300011901D9211901D9211901D9211901D926E
:1012400011901D9211901D9211901D9211901D925E
:1012500011901D9211901D9211901D9211901D924E
:1012600011901D9211901D9211901D9211901D923E
:1012700011901D9211901D9211901D9211901D922E
:1012800011901D9211901D9211901D9211901D921E
:1012900011901D9211901D9211901D92112408958C
:1012A000E091C00D8E2FEE0FE80FFF27E45AF24FAA
:1012B0000090BF0D801930F4A191B19101900C9272
:1012C0008395D1F7089598E0799FA12DBB27AE5360
:1012D000B24FED91FD9190E4699FE00DF11D899F62
:1012E000D001A45EBA4F90E040FD09C0822F48E0D3
:1012F000421B70FF0AC01796E80FF91F08C088E06C
:10130000821B422F70FFF8CF1197A20FB91F68E020
:1013100028E0231B50FD09C0639FA00DB11D71FD86
:10132000E85C71FDFF4F122E08C0132E1A9471FF56
:10133000122E619DE00DF11D132E71FD409770FD81
:1013400005C057EF540F70E061E004C059EF541B23
:101350007FEF6FEF3EEF042E469530F461F025915C
:1013600023132C93A60FB71F259123132C93A60F9D
:10137000B71F4150A1F7259123132C931A9449F0DC
:10138000E80FF91FA51BBF4F402D469568F739F7A9
:10139000F2CF08950F921F92EF93FF93FFB7E09162
:1013A0008400FF93E2FD04C0E1FD02C0000000C024
:1013B000E0FF00C0E091D10DEA95E093D10DF091EE
:1013C000D00DF0FD51C0EC3098F0F3E0F0938900BF
:1013D000FDE8F0938800E0FB289826F4E1E00E9405
:1013E000BC0AB2C0E5E1EA95F1F70000289AACC06A
:1013F000E63008F100C000C02898E0FBE4E016F4F5
:101400000E94BC0AE4E0E0933600E6E0E0936F005F
:101410009BC0EF93E0918400E2FD04C0E1FD02C0B7
:10142000000000C0E0FF00C0E2E00000289AE09366
:101430006F00EF91189500C0E0FB289826F4E1E0DA
:101440000E94BC0A05C0E5E1EA95F1F70000289A80
:10145000E091D10DE03009F077C0EDEFE093D10DD0
:10146000E1E0E093D00D70C0E7E0E0938900EBE1AC
:10147000E093880000C02898E2E000C00E94BC0A07
:10148000FDEF0090D70DF019E091D10DEF17D8F4D2
:10149000FDEF0090D70DF0190090D80DF019EF175F
:1014A00090F0EDE1FF2700800F92EA95E1F70DE063
:1014B0000A95F1F700C00E942807E1E0FF270F908E
:1014C0000192EE31E0F3E091D10DE03009F03CC043
:1014D0002F933F934F935F936F937F938F939F933C
:1014E000AF93BF9378941124EE27E093D00DE2E1FF
:1014F000E093D10D8091E10D9091E20D01968093E2
:10150000E10D9093E20DE091D30DF091D40DE11532
:10151000F10509F009950E94060C0E9414180E941A
:10152000B60A1124E091D50DF091D60DE115F10523
:1015300009F00995BF91AF919F918F917F916F9124
:101540005F914F913F912F91EF91EFBFFF91EF91FD
:101550001F900F9018952898E2E000C00E94BC0AE6
:10156000E091D10DEA95E093D10D0895E091010E3F
:10157000E0FD0E944D0E08952F931F930F932E2F81
:101580001091050EE091060EF091070E0091030EEA
:10159000100F0091040EE01F0491E093060E1093CB
:1015A000050E1091020E0103000810910B0EE09140
:1015B0000C0EF0910D0E0091090E100F00910A0E05
:1015C000E01F0491E0930C0E10930B0EF0011091AC
:1015D000080E010300081F0E1091110E20FD289A1D
:1015E0000E1EE091120EF091130E00910F0E100FCF
:1015F0000091100EE01F0491E093120E1093110E53
:10160000F00110910E0E010300081F0E0E1E009136
:10161000160E1091170EF091140EF695889400FD99
:10162000F195EE0B1F0E0E1EE091180EE25020F009
:10163000E491E491E4910AC0E02F16950795E02724
:10164000E0FB16F9E091150EE0FF06F90093160E87
:101650001093170EE093180E10E0E0911D0EF0911C
:101660001B0E21FD289AEF0FE0931D0EE0911E0E38
:10167000F0911F0E00911C0EE01FF11F0091220E31
:101680001091230EE017F10718F4049100C006C072
:101690000091200E1091210EE01BF10BE0931E0E25
:1016A000F0931F0E0491F00110911A0E010300082F
:1016B0001F0E0E1EF0010F911F91F058EF4F1AF4FC
:1016C000F0E0000003C0E03009F0FFEFF093B3005A
:1016D0002F9108958093C20D9093C30D0895E8E46F
:1016E000F3E0A0E8B1E061E26D933197E9F71124EE
:1016F0000895992777272EE1629F080E191EA0E80A
:10170000B1E0A00DB11D4F5D4C931124089580935D
:10171000CA0D9093CB0D0895992777272EE1629FEC
:10172000080E191EA0E8B1E0A00DB11D8C918152E8
:101730009927112408958091D20D817008952091E8
:10174000D20D2E7F2093D20D0895882329F4809105
:10175000D90D9091DA0D08958091DD0D9091DE0DF7
:101760000895E0E6F0E0808183FD089588E198E047
:10177000F894808390837894FFCFF999FECF92BD3F
:1017800081BD60BDF894FA9AF99A78940895F99910
:10179000FECF92BD81BDF894F89A80B578940895F3
:1017A000129AC895C895C895C895129840E190E0DE
:1017B00080E030E020E03695279596958795C8958E
:1017C000C895C895C8951398009B3068019B906890
:1017D000139AC895C895C895C895415061F730933C
:1017E000DA0D2093D90D9093DE0D8093DD0D80915D
:1017F000D90D9091DA0D0F9731F08091DD0D909118
:10180000DE0D0F9711F40C94B10B08951092240E75
:10181000009903C081E08093240E019905C0809156
:10182000240E82608093240E0C94D00BCF93DF9310
:10183000D0E0C0E0FE01EE55FF4F6491CE010E9462
:10184000BD0B2196C032D105A9F7C0E2D0E06FEF01
:10185000CE010E94BD0B6FEFCE0101960E94BD0B21
:10186000A096C11588E0D80791F7DF91CF91089530
:10187000CF93DF9390E080E00E94C70BC82F81E0F8
:1018800090E00E94C70B90E0982F8827C80FD92FAF
:10189000D11D81E0CA35D54509F080E0DF91CF91B7
:1018A0000895FC0167870895E2E0FEE081E091E0A1
:1018B000958B848B638B0895FC0190819F75908339
:1018C0000895FC019081906490830895FC016687DF
:1018D0000895FC0162870895FC0163870895CF9302
:1018E000DF93EC01262F3981832F90E0FC01EE0F6E
:1018F000FF1FE855FF4D45915491FC01E60FF11D86
:1019000067FDFA95EE0FFF1FE855FF4D8591949105
:10191000841B950B688570E00E94F01961157105B4
:1019200011F461E070E0EA8186E0E89FF0011124A3
:10193000EE5FF14F81819281860F971F92838183A1
:101940007E836D83888188608883230F2F83DF9156
:10195000CF910895FC0160870895FC016483089588
:10196000FC0182810C943710FC018181680F618336
:1019700082810C942010FC019181961B692F918328
:1019800082810C9420101F93CF93DF93EC01162FCC
:101990008A810E94201019838881877F8883DF9144
:1019A000CF911F910895CF93DF93EC018C81882311
:1019B000A1F02D893E89662399F0062E000C770B45
:1019C0006F5F7F4FAB01440F551F640F751F261BC0
:1019D000370B3E8B2D8B81508C83DF91CF910895F7
:1019E00023503109F9013297E491ED3091F3EF3F43
:1019F000B9F7EFCF90939D0E80939C0E8FE6809366
:101A00009F0E1092000EE7E2FEE080E090E13FEFD3
:101A100028E18283908315863487108A23879087F4
:101A20008F5F77968530A9F70895CF93DF93EC0108
:101A3000E881F981CF01019699838883949197FD7C
:101A400005C0892F90E0DF91CF9108959F77892F6E
:101A500090E09F012E5F3F4F9695982F882797958E
:101A60008795522F432FF9013197E4916E2F6F77AD
:101A7000860F911D2F5F3F4FE7FDEECF58834983BF
:101A8000E2CFFF920F931F93CF93DF93EC01162FBA
:101A9000022FF8801F868FEF8E874D871C8A9F2D1F
:101AA000977B988329831A8619861C828B838A8167
:101AB000833031F5F7FC062F81E091E09093170E0B
:101AC0008093160E81E08093150E102FF7FE52C002
:101AD000198BE0919C0EF0919D0E89E0189FE00D0E
:101AE000F11D1124339685919491009709F044C01B
:101AF0001E8A1D8ADF91CF911F910F91FF9008954B
:101B0000843009F031C010921D0E80919C0E90918E
:101B10009D0E29E0629F800D911D1124FC013196DC
:101B20004591549150931F0E40931E0E9C01295FC6
:101B30003F4FF901659174910596FC01859194914F
:101B4000681B790B7093210E6093200EF90185912B
:101B50009491480F591F5093230E4093220E602FEB
:101B600084E00E942010B2CF60E00E943710602F06
:101B70008A81F7CF188BADCF1B8AFC0124912A8B69
:101B800001969E8B8D8BB6CFCF93DF93E0919C0E09
:101B9000F0919D0E99E0899FE00DF11D1124E491D3
:101BA000C3E0E130F1F0C4E0E230D9F090913E0EB4
:101BB00097FF16C090914F0E981302C0411110C0AC
:101BC0009091550E97FF23C09091660E981302C016
:101BD00041111DC02091520E9091690E9217B8F4D8
:101BE000C1E097E1C99FE0011124C95DD14F90E8A0
:101BF00098831E8A1D8A20E5462F682FCE010E94F9
:101C0000410D888180628883DF91CF910895C2E081
:101C1000E8CFCF93DF93A82FB0E097E1899FF00141
:101C20001124E95DF14F908195FF02C097FD19C025
:101C300021111AC087E18A9FF0018B9FF00D1124BA
:101C4000E95DF14F8785811102C096FF158687E116
:101C50008A9FF0018B9FF00D1124E95DF14F9F7B6E
:101C60009083DF91CF910895322F242F97E19A9F8F
:101C7000E0019B9FD00D1124C95DD14F18821E8AAF
:101C80001D8A899FC0011124432F895D914F0E94B5
:101C9000410D888180628883E4CFEF92FF920F9399
:101CA0001F93CF93DF93C7E2DEE002E01EE0C8019E
:101CB000DE01FD014785442389F02685042E000CB2
:101CC000550B240F352F311D2F3F310519F014F01E
:101CD0002FEF30E037FD20E0FD0126876C9163FF98
:101CE0001CC0FD0145815681FC0121813281240FF8
:101CF000351F32832183FD017781E72FF0E0EE0F5E
:101D0000FF1FE855FF4DE590F490141615060CF0F2
:101D1000CEC02E153F0508F0D1C057960696FEE0BE
:101D2000AA39BF0731F68091000E882381F187E13F
:101D3000F82E80919A0E90919B0E2091A00E3091DA
:101D4000A10E82179307F1F42091A30E3091A40EF7
:101D5000B9016F5F7F4F7093A40E6093A30EF901DA
:101D600044914F3F09F0DBC0A9014E5F5F4F509394
:101D7000A40E4093A30EFB0164916F3209F0A4C03E
:101D80001092000E019690939B0E80939A0EEE2473
:101D9000EA94F12C888185FF1CC02D893E89232B74
:101DA000C1F086FD16C09B898A89981310C0ED8901
:101DB000FE89BF016F5F7F4F7E8B6D8B84918F3F5C
:101DC00009F020C188818F7788831E8A1D8A9F5FD2
:101DD0009B8B988180E095FF59C08C898F3F11F0D3
:101DE0008F5F8C8B97FD28C19C858D8529858823E5
:101DF00009F424C16E85662309F420C1992309F4EE
:101E00001DC130919F0E332309F418C1899FC00171
:101E100011249395892F9927689FA001699F500DE0
:101E20001124CA0193956B81892F9927689FA0017E
:101E3000699F500D11245395452F5527349FC0019C
:101E4000359F900D11249395892F99273A85332337
:101E5000D1F0E22FF0E0E050FE4DE491E058E39F36
:101E6000F0011124F395EF2FFF27B7016E1B7F0BB5
:101E7000689FA001699F500D789F500D1124CA01E1
:101E80009395892F99273B85230F2987F801808314
:101E900067960A5F1F4FFEE0CA39DF0709F07ACF65
:101EA000DF91CF911F910F91FF90EF900895452BF7
:101EB00009F433CFE216F30608F42FCFFC01F282C7
:101EC000E182677F6C9329CF663089F4FA014491EF
:101ED000C90104969093A40E8093A30EF901339642
:101EE000E491E33589F49093A60E8093A50E83EADE
:101EF0009EE00E94150D9093A10E8093A00E10926B
:101F00009B0E10929A0E15CFE53489F78091A50E9D
:101F10009091A60E9093A40E8093A30EE8CF47FD58
:101F200040939E0E90919E0E892F8F7047FF08C0A0
:101F30002E5F3F4F3093A40E2093A30EFB014491DC
:101F4000907F903BD9F0903C09F455C0903979F6D8
:101F5000E091A30EF091A40E9F012F5F3F4F3093AD
:101F6000A40E2093A30E2491220FF89EF0011124B9
:101F7000E95DF14F60890E94090EB9CFE091A30E8F
:101F8000F091A40E9F012F5F3F4F3093A40E20933A
:101F9000A30EE491473051F4F89EC0011124895DED
:101FA000914F2E2F220FFC012487A1CF4B3051F4EB
:101FB000F89EC0011124895D914F2E2F220FFC0144
:101FC000238395CF4C3551F4F89EC0011124895DCF
:101FD000914F2E2F220FFC01228789CF443609F022
:101FE00086CFF89EC0011124895D914F2E2F220FBC
:101FF000FC0123877CCFF89EF0011124E95DF14FAD
:10200000408B75CF3296FE8BED8BFB016491E82FF0
:10201000F0E0EE0FFF1FEE53FF4F25913491CE01FC
:10202000F9010995ED89FE89CF0101969E8B8D8B73
:10203000E491EA8B1B8AB7CE9FEFD7CE80E023CF07
:1020400099277727833009F40895E8EAF0E2660FCC
:10205000771FE60FF71FA591B491E2E0FEE026E0BE
:10206000289FE00DF11DA183B283112408959927C3
:102070007727E2E0FEE026E0289FE00DF11D6E3FAD
:1020800031F46091150E6E7F6093150E0BC06F3F9B
:1020900031F46091150E6E6F6093150E03C072E2FD
:1020A000760F75831124089522002400260028004D
:1020B0002B002D0030003300360039003D00400079
:1020C000440048004C00510056005B006000660070
:1020D0006C00730079008100880090009900A200D4
:1020E000AC00B600C100CC00D800E500F30001014F
:1020F000100121013201440157016C018101980155
:10210000B001CA01E5010202210241026402880213
:10211000AE02D7020303300361039403CB0305042B
:1021200042048304C70410055D05AF05050661067A
:10213000C206290796070908830805098E09200A9F
:10214000BA0A5D0B0A0CC10C840D510E2B0F121034
:1021500007110A121D1340147415BA1614188319A6
:10216000071BA31C571E24200E22142439267F2867
:10217000E82A752D293006330F364539AD3C4940E4
:102180001B442848734CFE50CF55EA5A51600C66E8
:102190001D6C8B725A79928037885090E598FDA11A
:1021A0009FABD3B5A3C000000000000000000000FA
:1021B000000000000000000000000000000000001F
:1021C000000000000000000000000000000000000F
:1021D00000000000000000000000000000000000FF
:1021E00000000000000000000000000000000000EF
:1021F00000000000000000000000000000000000DF
:10220000000306090C101316191C1F2225282B2E5B
:10221000313336393C3F414447494C4E5153555870
:102220005A5C5E60626466686A6B6D6F707173742D
:10223000757678797A7A7B7C7D7D7E7E7E7F7F7FE6
:102240007F7F7F7F7E7E7E7D7D7C7B7A7A797876CC
:1022500075747371706F6D6B6A68666462605E5CE2
:102260005A585553514E4C494744413F3C393633F7
:10227000312E2B2825221F1C191613100C090603BA
:1022800000FDFAF7F4F0EDEAE7E4E1DEDBD8D5D2C1
:10229000CFCDCAC7C4C1BFBCB9B7B4B2AFADABA88C
:1022A000A6A4A2A09E9C9A9896959391908F8D8CAF
:1022B0008B8A8887868685848383828282818181D6
:1022C0008181818182828283838485868687888AD0
:1022D0008B8C8D8F9091939596989A9C9EA0A2A49A
:1022E000A6A8ABADAFB2B4B7B9BCBFC1C4C7CACD65
:1022F000CFD2D5D8DBDEE1E4E7EAEDF0F4F7FAFD82
:10230000808182838485868788898A8B8C8D8E8F55
:10231000909192939495969798999A9B9C9D9E9F45
:10232000A0A1A2A3A4A5A6A7A8A9AAABACADAEAF35
:10233000B0B1B2B3B4B5B6B7B8B9BABBBCBDBEBF25
:10234000C0C1C2C3C4C5C6C7C8C9CACBCCCDCECF15
:10235000D0D1D2D3D4D5D6D7D8D9DADBDCDDDEDF05
:10236000E0E1E2E3E4E5E6E7E8E9EAEBECEDEEEFF5
:10237000F0F1F2F3F4F5F6F7F8F9FAFBFCFDFEFFE5
:10238000000102030405060708090A0B0C0D0E0FD5
:10239000101112131415161718191A1B1C1D1E1FC5
:1023A000202122232425262728292A2B2C2D2E2FB5
:1023B000303132333435363738393A3B3C3D3E3FA5
:1023C000404142434445464748494A4B4C4D4E4F95
:1023D000505152535455565758595A5B5C5D5E5F85
:1023E000606162636465666768696A6B6C6D6E6F75
:1023F000707172737475767778797A7B7C7D7E7F65
:1024000000020406080A0C0E10121416181A1C1EDC
:1024100020222426282A2C2E30323436383A3C3ECC
:1024200040424446484A4C4E50525456585A5C5EBC
:1024300060626466686A6C6E70727476787A7C7EAC
:102440007F7D7B79777573716F6D6B69676563618C
:102450005F5D5B59575553514F4D4B49474543417C
:102460003F3D3B39373533312F2D2B29272523216C
:102470001F1D1B19171513110F0D0B09070503015C
:10248000FFFDFBF9F7F5F3F1EFEDEBE9E7E5E3E14C
:10249000DFDDDBD9D7D5D3D1CFCDCBC9C7C5C3C13C
:1024A000BFBDBBB9B7B5B3B1AFADABA9A7A5A3A12C
:1024B0009F9D9B99979593918F8D8B89878583811C
:1024C00080828486888A8C8E90929496989A9C9E1C
:1024D000A0A2A4A6A8AAACAEB0B2B4B6B8BABCBE0C
:1024E000C0C2C4C6C8CACCCED0D2D4D6D8DADCDEFC
:1024F000E0E2E4E6E8EAECEEF0F2F4F6F8FAFCFEEC
:102500007F7F7F7F7F7F7F7F7F7F7F7F7F7F7F7FDB
:102510007F7F7F7F7F7F7F7F7F7F7F7F7F7F7F7FCB
:102520007F7F7F7F7F7F7F7F7F7F7F7F7F7F7F7FBB
:102530007F7F7F7F7F7F7F7F7F7F7F7F7F7F7F7FAB
:102800000309131E28313A40464C5054585B5E6110
:10281000636567696B6C6E6F7071727374757677D0
:10282000777879797A7A7B7B7C7C7C7D7D7D7E7EF6
:102830007E7E7F7F7F7F7F7F7F7F7F7F7F7F7F7FAA
:102840007F7F7F7F7F7F7F7F7F7F7F7F7F7E7E7E9B
:102850007E7D7D7D7C7C7C7B7B7A7A7979787777CD
:10286000767574737271706F6E6C6B696765636196
:102870005E5B5854504C46403A31281E1309030001
:10288000C6CCD5DBDFE3E5E7E9EAEBECEDEEEFEF15
:10289000F0F0F0F1F1F1F1F2F2F2F2F2F2F2F2F321
:1028A000F3F3F3F3F3F3F3F3F3F3F3F3F3F3F3F3F8
:1028B000F3F3F3F3F3F3F3F3F3F3F3F3F3F3F3F3E8
:1028C000F3F3F3F3F3F3F3F3F3F3F3F3F3F3F3F3D8
:1028D000F3F3F3F3F3F3F3F3F3F3F3F3F3F3F3F3C8
:1028E000F2F2F2F2F2F2F2F2F1F1F1F1F0F0F0EFD5
:1028F000EFEEEDECEBEAE9E7E5E3DFDBD5CCC60094
:1029000000283D42302D2C2B2C2D2E2F30323335EC
:1029100037393B3D3F414345484A4C4E505355574C
:10292000595B5D5F61636567696B6C6E7071737431
:10293000757778797A7B7C7D7D7E7E7F7F7F7F7FD8
:102940007F7F7F7F7F7F7E7E7D7D7C7B7A797877BE
:1029500075747371706E6C6B69676563615F5D5BE5
:1029600059575553504E4C4A484543413F3D3B39DA
:1029700037353332302F2E2D2C2B2C2D30423D2845
:1029800000E9E5FED4D7D7D7D6D4D2D0CECCCAC8AA
:10299000C6C3C1BFBDBAB8B6B4B1AFADABA9A7A5E8
:1029A000A3A19F9E9C9A999795949391908F8D8CBB
:1029B0008B8A8988888786858584848483838383BA
:1029C0008383838383848484858586878888898AB2
:1029D0008B8C8D8F909193949597999A9C9E9FA1A3
:1029E000A3A5A7A9ABADAFB1B4B6B8BABDBFC1C3BB
:1029F000C6C8CACCCED0D2D4D6D7D7D7D4FEE5E974
:102A0000F9F8F9F5EBE1DDDEE0E2E4E5E6E5E4E244
:102A1000DED9D2CAC1B7ACA299918A86838180805F
:102A20008182838586888A8C8D8F909293959697E4
:102A300098999A9B9B9C9D9D9D9E9E9E9F9F9F9FCC
:102A40009F9F9F9E9E9E9D9D9D9C9B9B9A999897C4
:102A500096959392908F8D8C8A88868583828180CB
:102A6000808183868A9199A2ACB7C1CAD2D9DEE2AD
:102A7000E4E5E6E5E4E2E0DEDDE1EBF5F9F8F900B6
:102A80000708070B151F2322201E1C1B1A1B1C1EC8
:102A900022272E363F49545E676F767A7E7F7F7F8E
:102AA0007F7E7D7B7A7876747371706E6D6B6A69E8
:102AB00068676665656464636362626261616161DF
:102AC00061616162626263636364656566676869C8
:102AD0006A6B6D6E7071737476787A7B7D7E7F7FA2
:102AE0007F7F7E7A766F675E54493F362E27221E9F
:102AF0001C1B1A1B1C1E2022231F150B0708070076
:102B00001F313D444E5354565A5F64696E74767952
:102B10007C7F7F7F7F7F7F7F7F7F7F7F7F7F7F7FC8
:102B20007F7F7F7F7F7F7F7F7F7F7F7F7F7F7F7FB5
:102B30007F7F7F7F7F7F7F7F7F7F7F7F7F7F7F7FA5
:102B40007F7F7F7F7F7F7F7F7F7F7F7F7F7F7F7F95
:102B50007F7F7F7F7F7F7F7F7F7F7F7F7F7F7F7F85
:102B60007F7F7F7F7F7F7F7F7F7F7F7F7F7F7F7F75
:102B70007F7F7F7F7F7F7F7F7F7F7F7C7871684CC7
:102B80002C1C120C0A0B0A05FDF3E9DFD4CAC0B7EE
:102B9000AEA69E97918B8685828080808080808083
:102BA0008080808080808080808080808080808025
:102BB0008080808080808080808080808080808015
:102BC0008080808080808080808080808080808005
:102BD00080808080808080808080808080808080F5
:102BE00080808080808080808080808080808080E5
:102BF000808080808087919DACC4CBD4DDF2FAFACE
:102C00002F923F924F925F926F927F928F929F92FC
:102C1000AF92BF92CF92DF92EF92FF920F931F93EA
:102C2000CF93DF9300D000D0CDB7DEB78091000105
:102C3000882309F4C0C08091C10D8093C00D80939A
:102C4000BF0D28EC34E03C832B83EB81FC81638057
:102C500062FC87C0908188E0890F8695869586956D
:102C600081508A83977009F49FC0F2E0F983EB8169
:102C7000FC81818158E0552E580E569456945694F6
:102C80005A94877022E009F421E0712C762C662496
:102C9000EB81FC813281630E711C082F10E0102F34
:102CA0000027090F111D252C220EB12CA12CFBE1B0
:102CB000F51508F452C02EE1529E400111243A80CD
:102CC000D12CC12C3DE1331508F43FC0C401830D64
:102CD000911DFC01E058FE4F7F0140808091C00DA6
:102CE000481618F0F0E2F41520F56091BF0D61323E
:102CF000E8F420E2241508F05AC08FED840D0E94FC
:102D000034088091BF0D282F30E0F901EE0FFF1F2E
:102D1000E20FF31FE45AF24FF182E0824282F701A0
:102D2000808391E0980F9093BF0D482EF0E2F41548
:102D300060F08091C00D481640F09801A5014C0D3F
:102D40005D1DB301842D0E9463092FEFC21AD20AC0
:102D500033943981C31608F4B5CF5394B394521009
:102D6000A6CFEB81FC813496FC83EB832CE135E02C
:102D70002E173F0709F069CF0F900F900F900F901B
:102D8000DF91CF911F910F91FF90EF90DF90CF9047
:102D9000BF90AF909F908F907F906F905F904F907B
:102DA0003F902F900C94500921E0298360CF842D0F
:102DB0000E94C308A6CF0F900F900F900F90DF9145
:102DC000CF911F910F91FF90EF90DF90CF90BF9028
:102DD000AF909F908F907F906F905F904F903F90BB
:102DE0002F900895CF92DF92EF92FF920F931F934F
:102DF000CF93DF93FB01549131969491BFEFB50FC0
:102E00001FEF40FD02C011E0B0E02FEF290F0FEFE0
:102E100041FD02C001E020E0A0E0A91701F1250377
:102E2000E0011124D82ED50E3B2F14C0FE01E30F74
:102E3000F11D37FDFA953296E60FF71FC490F4E0C6
:102E40008F9F70011124F701E853FB4FC2828F5FFF
:102E50004383310F8D11EACF200FAF5FDECFDF91BB
:102E6000CF911F910F91FF90EF90DF90CF90089539
:102E70000F9330E0301799F0582F520F962F0AC059
:102E800074E0879FF0011124E853FB4F9083418346
:102E90008F5F985F8513F4CF3F5F485FEBCF0F9153
:102EA0000895E8ECF4E090EF80EE9083818334960F
:102EB00025E0EC31F207C9F71092BF0D1092C10D59
:102EC00008958F929F92AF92BF92CF92DF92EF922E
:102ED000FF920F931F93CF93DF93882ED62F8A01F3
:102EE000FA0194903196C491C92CD12CC60FDC13F1
:102EF00020C0DF91CF911F910F91FF90EF90DF9055
:102F0000CF90BF90AF909F908F900895F501EE0DF8
:102F1000FF1D449150E06D2F882D8E0D0E94790B7E
:102F2000FFEFEF1AFF0AE91488F30C0D1D1DDF5F98
:102F3000DECFF12CE12C580182E0A80EB11CF3CFBA
:102F40000F931F93CF93DF938C01D0E0C0E0C017A5
:102F5000D1072CF0DF91CF911F910F9108950E941E
:102F60009B0B8823E1F30E949F0B2196F0CF83E116
:102F700099E00E94FA0C83E191E00E94870B0E9485
:102F80006F0B8FE090E00E94A01741E06FEF80E0B0
:102F90000E94C40D4DEF50E06CE08DE00E9461177F
:102FA00083E090E00E94A0174CEE50E06CE08DE0D2
:102FB0000E94611782E090E00E94A0174DEF50E060
:102FC0006CE08DE00E94611781E490E00E94A01700
:102FD0000E946F0B84E190E00C94A0178091AA0EE0
:102FE000882309F18091AB0E81111AC08091A80E3F
:102FF0008093AB0EE091AC0EE150FF0BE052FF4F1F
:10300000E491E7B98091AC0E9091A90E890F80935D
:10301000AC0E882311F08D3031F41092AA0E089571
:1030200081508093AB0E08950E94EE170C94001609
:10303000EDEAFEE0618166956695669580818695EC
:103040008695869581500C948C0B81110DC06091F2
:10305000AE0E66956695669561508091AD0E86952B
:10306000869586950C948C0B813039F46091AE0E68
:103070006695669566956F5FF0CF823011F40C947B
:103080001818833061F46091AE0E6695669566956A
:103090008091AD0E8695869586958F5FE3CF80E013
:1030A000089597FF06C010920A011092090181E06D
:1030B000089577FF05C01092080110920701F7CF1D
:1030C00027E0289FF001299FF00D1124E60FF71F3C
:1030D000EE0FFF1FE55FFE4F20813181232B39F773
:1030E00090930A018093090170930801609307018E
:1030F00080E008959091AD0E8091B20E981306C0B5
:1031000081E02091AE0E9091B30E291380E00895D6
:10311000EDEAFEE0809106018083809105018183C4
:10312000128281E083830895811108C08091AE0EE0
:1031300090910201891B990B40960895813029F4E2
:10314000809101019091AE0EF5CF823029F48091EB
:10315000AD0E90910401EECF833029F480910301EC
:103160009091AD0EE7CF90E080E008950F93CF935C
:10317000DF93C82FD62F80E00E94251881E00E949F
:1031800025180E94181883E00E94251880910901D3
:1031900090910A016091070170910801C11132C03C
:1031A000615071090E945118811139C081E08093EA
:1031B000AF0E8091AF0E882309F18091B00E81117E
:1031C0001DC0D83049F48091B10E81112BC080917F
:1031D000AE0E88508093AE0E0E947A1881110E9424
:1031E000881882E090E00E94A01701E021E0409161
:1031F000AE0E6091AD0E80E00E943817DF91CF9146
:103200000F910895C13019F46F5F7F4FCBCFC2305B
:1032100011F40197C7CFC33029F60196C3CF10929E
:10322000AF0EC7CF813021F48091AE0E885FD2CF30
:10323000823031F48091AD0E88508093AD0ECCCFAA
:10324000833051F68091AD0E885FF7CF0E946F0BEF
:1032500083E399E00E94870B83E399E00E946A0B65
:1032600045E25DE069E08AE00E9461174FEF5CE0B3
:1032700065E08DE00E946117809106018093AD0E9C
:10328000809105018093AE0E80E78093B20E80E8B6
:103290008093B30E40E066EF7CE080E00E94F2167F
:1032A00060E083E00E94B61813E002E0FF24F3948C
:1032B00080E00E94A50B9093B60E8093B50E91FD11
:1032C0001092B00E84FF20C08091B10E882341F08F
:1032D00040E06CEF7CE080E00E94F2161092B10EAC
:1032E000C0E0D091B10E8D2F0E949418C817190616
:1032F0002CF081E090E00E94A017DACF68E08D2FDB
:103300000E94B618CF5FEDCF85FF1BC08091B10E34
:10331000813041F040E069EF7CE080E00E94F216ED
:10332000F092B10EC0E0D091B10E8D2F0E94941892
:10333000C8171906F4F668E08D2F0E94B618CF5F03
:10334000F2CF86FF1BC08091B10E823041F040E089
:1033500063EF7CE080E00E94F2160093B10EC0E0C3
:10336000D091B10E8D2F0E949418C81719060CF633
:1033700068E08D2F0E94B618CF5FF2CF87FFB9CFDC
:103380008091B10E833041F040E066EF7CE080E058
:103390000E94F2161093B10EC0E0D091B10E8D2FA5
:1033A0000E949418C81719060CF0A3CF68E08D2F5F
:1033B0000E94B618CF5FF1CFAA1BBB1B51E107C01B
:1033C000AA1FBB1FA617B70710F0A61BB70B881FB5
:1033D000991F5A95A9F780959095BC01CD01089544
:1033E00097FB072E16F4009407D077FD09D00E94B2
:1033F000DC1907FC05D03EF4909581959F4F089508
:0C340000709561957F4F0895F894FFCF00
:10340C00018054845C707004000400FFFFFFFF0116
:10341C00000000010001000100010001000100009A
:10342C00000000000001000100000000000000008E
:10343C00000000010001000000000000000000007E
:10344C00000100010000000000000000000000016D
:10345C00000100000000000000000000000100015D
:10346C0000010001000100010001000100FC0CF949
:06347C000CF30CF60C003D
:00000001FF
