:100000000C942F0B0C94990B0C94990B0C94990B4A
:100010000C94990B0C94990B0C94990B0C94990BD0
:100020000C94990B0C94990B0C94990B0C94990BC0
:100030000C94990B0C943D0E0C947C0E0C941A0CA1
:100040000C94990B0C94990B0C94990B0C94990BA0
:100050000C94990B0C94990B0C94990B0C94990B90
:100060000C94990B0C94990B0C94990B0C94990B80
:10007000810045005DFF5E1027FF2AD22B7D210CF9
:1000800022FB850084008903888D81096F02444228
:1000900047004501B083B300B10124B925578A1D3B
:1000A0008B035A55012001010038080000000000B0
:1000B0000000000000000000000000000000000040
:1000C0000000B510B810141118111F11C010C51080
:1000D000CA102711CD10D010D3100E1111113711E5
:1000E00000408891D2E4ADB5B6BEBFFF0503001352
:1000F0001415161718191A1B1C1D1E1F00050400C5
:100100000102030405060708090A0B0C0D000E0F77
:1001100010111200000000000000000000000000AC
:1001200000000000000000000000000000000000CF
:1001300000000000000000000000000000000000BF
:1001400000000000000000000000000000000000AF
:10015000000000000000000000000000000000009F
:10016000000000000000000000000000000000008F
:1001700000004900000000004952520000004952AE
:10018000531C25004952522425251B52525C2D2D0B
:100190001C121200000000000000000000000040DF
:1001A00049494900404949525B5B5B4A52525B1CDA
:1001B0001C13125B1C241C12090909241B120909B7
:1001C00009090A0A0A0A0A0A0A0A130A0A120A0A80
:1001D00012130A0000000000000000925252525216
:1001E00052524913121309001C1B130A1212401B0E
:1001F00065641C090A0009241B1C65120000251CEB
:100200001C1C1C010025241C1C1C1C00242524244F
:10021000241C1C00000000000000004940000000F9
:1002200000000052494900000000001C5B4A4800E1
:100230000000001C255249000000006524644900AC
:1002400000000065256449000000006D2E5C490037
:10025000000000000000000000405200000000000C
:1002600049525C0000000053522425000000535204
:1002700025252500004A5225251B0000005B25137B
:1002800000001B005B53000A1C3737095B1C657FAD
:10029000372E2E522E2E1C131312002E251B131236
:1002A0000000121C1C12000012251C120000122E4D
:1002B000371C1300132E37361C131B37372E2E25F1
:1002C000131C1C2E2E2E2E1B1C1C1C6E6E6E1C1C3A
:1002D0001C1C1C09131312121313001313131313F2
:1002E0001C0009131313131C0100371313131C13E1
:1002F000002E2E1B1B1C1C001C772E1B1B25001305
:100300007F251C1C1C010A37241C1C1C130A2E25CB
:10031000250900132E2425252525252E25252525CF
:1003200025252525252D2E251B1C1C2E2E251C1391
:10033000251B13251C1C1C1C0109521C1C1300012D
:100340001C5B5C0A000165775C1B00016E7F6E52CE
:100350001B00006D1C5249000000001C13530000DC
:100360000000001C524A00000000005B5B0000001F
:100370000000005C00000000000000000000000021
:10038000000000000000000000000000000000006D
:10039000000000135B7F776E6E6E6E136577766E6E
:1003A0006E6E6E1B65777676766E771B5BBF76B664
:1003B00076767609136DBFB7B6B765001B125C760B
:1003C000BF766D0000121B125B5B5C000000000931
:1003D0000A12136E77241C1C1C1C1C77251C1C1C69
:1003E0001C24256E1C1C1C2425251B1C1C242525B7
:1003F000130000646D6D1B00096EBF6D5B09126E0A
:10040000BF6D5B5B125B645B121312131B1212094C
:100410000100001C242E1C0900096E25240100097E
:10042000767F7F000012777F7F641264BFBF775BA7
:10043000121B09BF6D5B121B09000012131B090080
:1004400000000009000000000000000000000000A3
:100450000000007F7F53131300000064121B010093
:100460000000001B1200000000000000000000005F
:10047000000000000000000000000000000000007C
:10048000000000000000000000000000000000006C
:100490000000000000000000000000260000002610
:1004A0000026262F0000002F000000370000003734
:1004B000000000FF000000FF000000BF000000BFC0
:1004C0000000BF370000370000370000262600007C
:1004D0000026260000000000000000262626002638
:1004E00026262600002F002F0000000037000037CE
:1004F000000000FF000000FFFFFFFF00000000BF42
:10050000000000000000003700000026262600261C
:1005100026262600000000000000002600262626D1
:1005200026000000002F0000002F00000037000010
:100530000037000000FFFFFFFF00000000BF0000C9
:1005400000BF0000003700000037002600262626E6
:100550002600000000000000000000000026262603
:10056000002600002F00002F002F0037000000376A
:10057000000037FF000000FF000000BF000000BFC8
:100580000000BF3700003700003700262626000095
:10059000002600000000000000000000002600000F
:1005A00000000000002F00000000000037000000E5
:1005B000000000FF0000000000000000BF0000007D
:1005C00000000000003700000000000000260000CE
:1005D000000000000000000000000000000000001B
:1005E000000000000000000000000000000000000B
:1005F0000000E400000000099BEDF60000009BA451
:10060000ADBFBF00529BA4767F7FB75B9B6D777FAA
:10061000766EB70000000000000000000000005BE4
:10062000B6F6F6005BF6FFFFFFFFBFF6FFFFFFFF2A
:10063000BFBFAEFFBFFFFFFFB7AD65BFBFFFFFB7D7
:10064000B6AD65B7BFFFFFBFB7AE6EB7BFFFFFBFA9
:10065000B7B7650000000000000000F6F6EDEDAD54
:10066000A4A49BB66D6D5C526E656465656552654C
:10067000766D255C5C52536E24656E6552526E2514
:100680002524255B52772D25252524526E6E2D2598
:1006900025252500000000000000009B4900000007
:1006A000000000A49B920000000000256493490014
:1006B000000000652E9B52000000006D2565520071
:1006C0000000006D2D6552000000006E2E64520087
:1006D000000000000000000000495B000000000076
:1006E0004A5B65000000005B9B6D2D0000005B5BBA
:1006F0002D2E250000525B2E2E1C0900015B2D1CA7
:1007000001091C005C5B014A65777F4A5B1C6E7FB8
:100710007777769B77776D656E6EA4776E65656586
:100720005BA4B725255C52526DBFBF130949647F96
:10073000BFBFBF095C7F7FBFBFB7BF7F7F777F7FB2
:10074000B7BFBF77777F7F6EB7BFBF777F7F6E778B
:10075000BFBFBFB6FFFFFFBFBFB75BBFFFFFFFBF9E
:10076000BFA464BFFFFFFFBFADA47FBFFFFFFFBFFC
:10077000A4BF7FFFFFFFBFADBFBFBFFFFFFFB6BF7F
:10078000BFBF77FFFFF7BFBFBF7777FFFFFFBFBFD9
:10079000BF64526D7F6E2E2D2D256E7F766E6E6E30
:1007A0002E2565777777762E1C25247F776E251C7E
:1007B000251C1B776525251C090A5B6E6E1C0949E3
:1007C0002564645B494A6E7F645C005377BF775B46
:1007D0005C00006E255B4A000000001C1B5B0000F3
:1007E000000000245B5300000000005B5C00000080
:1007F0000000006400000000000000000000000095
:1008000000000000000000000000000000000000E8
:100810000000005B5C7FBF777677775C6D7FB77792
:100820007777775C6D7FBF777777BF5C64BFBFBF3B
:10083000BFBF7F0A5C6EBFBFBFBF760065646DBF80
:10084000BFBFBF00005B6D646DADB600000000125D
:100850005B646D777F6E6E77BFBFBF7F766D767797
:10086000BFBFBF776D6E767FBFBFBF6D6E767FBF38
:10087000B7ADF676BFBF76A4ADFFFFBFB664ADFFE0
:10088000FFFFFFB6ADBFFFFFFFFFF6ADB6AD645B88
:10089000520000FFFFBFBFAD5B64BFFFFFB6ADAD51
:1008A000BFFFBFFFF6FFFFFFFFBF64FFFFFFFFBFFC
:1008B000B6765BFFFFFFBFBF5B0000FFFFFF5C0082
:1008C000000000A400000000000000000000000084
:1008D000000000BFBF645C5C0000006E5C65490006
:1008E0000000006D5B000000000000000000000040
:1008F00000000000000000000000000000000000F8
:1009000000000000000000000000000000000000E7
:100910000000000000001C090000000000020800A8
:10092000085504085A0000F8000990000A1E320514
:100930000000FF020202020202020202020202029E
:100940000209010101080209010101070000000379
:10095000020300000000000A00030203000901086E
:100960000000000302030003020401010107020367
:10097000000302020202020202030001010202025B
:100980000202020300000602020202020204010146
:100990000202020202020202020202020202020237
:1009A0000202020202020202020202020202030226
:1009B000040108020202020202020202020305000E
:1009C0000003020202020202020202020401080003
:1009D00003020202020202020202020202030003F6
:1009E00002020202020202020202020907000302DC
:1009F00002020202020201010101070000040802D2
:100A000002020202020100000000000000030202D4
:100A100002020202010001080000000003020202BB
:100A2000020202010603040800000003020202029F
:100A30000202010101090700000003020202020292
:100A4000020202020300000100030202020202028B
:100A5000020202030000000003020202020202027C
:100A60000202040101010107020202020202020263
:100A70000202020202020202020202020202020256
:100A8000020202020202020901010101010802023E
:100A9000020202020202030000000000030202023E
:100AA000020202020203000000000003020202022E
:100AB000020202020300000003000302020202021B
:100AC000020202030000000300030202020202020B
:100AD00002020300000003000302020202020202FB
:100AE00002040101000301070202020202020202E3
:100AF00002030000030202090101020202020202D3
:100B000003000103080203050002020202020907B2
:100B100000000004010700090202020202030000B3
:100B200000000000000003020202020203000100B4
:100B30000009010101070202020202030000000095
:100B40000302020202020202020204010101010781
:100B5000020202020202020202090101010108026C
:100B6000020202030000000003020202020300006E
:100B7000000003020202020300000000030202025E
:100B800002030000000A0302020202040108000935
:100B90000702020202020201000302020202020232
:100BA0000201000408020202020202010002030222
:100BB0000202020202010100010202020202020319
:100BC0000003020202020202020202020202030007
:100BD00004080202020202020202020202030500EB
:100BE00003020202020202020202020204080003DD
:100BF00002020101010202020202020203000302D8
:100C000002010600020202020202020300030202C3
:100C100001000102020202090101070003020201B0
:100C200000010202020203000000000302020100B0
:100C3000010202020203000000000302020100019F
:100C4000020202020300000000040101010001028F
:100C50000202020300000000000000000001020286
:100C60000202030000000009010101010102020269
:100C7000020300000000030202020202020202025A
:100C80000300000000030202020202020202020844
:100C90000101010107020202020202020202020233
:100CA000020202090101010101010802020202021D
:100CB000020203000000000000030202020202021E
:100CC000020300000000000003020209010101010B
:100CD0000700000000000003020203000000000003
:100CE00000000000000003020203000901080000E8
:100CF00000000000000302020300030203000000E2
:100D000000000000030202030003020300000000D1
:100D100000000003020203000302040101010101BB
:100D2000010107020207000302020202020202029C
:100D30000202020200050302020202020202020291
:100D40000202020101070202020202020202020280
:100D50000202020202020202020202020202020273
:100D60000202020202020202020202020202020263
:100D70000202020202020202020202020202020055
:100D80000000000000000000000000000000000063
:100D90000000000000000000000000000000000053
:100DA0000000000000000000000000000000000043
:100DB000000000000000000000000000000000FF34
:100DC000FFFFFFFFFFFFFFFFFFFFFFFFFFFFFFFF33
:100DD000FFFFFFFFFFFFFFFFFFFFFFFFFFFFFFFF23
:100DE000FFFFFFFFFFFFFFFFFFFFFFFFFFFFFFFF13
:100DF000FFFFFFFFFFFFFFFFFFFFFFFFFFFFFFF60C
:100E0000F6F6F6F6F6F6F6F6F6F6F6F6F6F6F6F682
:100E1000F6F6F6F6F6F6F6F607F6F6F6F607F6FF47
:100E20000707F6F607FF0707FF07F607F607FFF6BF
:100E300007F607FF0707F6F607F6F607F607F66F59
:100E40006F666F6EF6F6F6377677376FF6F6F60062
:100E50000000007666F6F607000700376FF6F6002A
:100E6000000000776F66F63777377677376FF6775B
:100E7000767777377666F667666F6F6F6666F6F633
:100E8000F6F66E2F666F2FF6F6F66F37777637F633
:100E9000F6667600000000F6F66F3700070007F6EA
:100EA000666F7700000000F66F377776377737F692
:100EB00066763777777677F666666F6F6F6667F672
:100EC000F6F6F6F6F6F665F6F6F6F6F6F66526F6B4
:100ED000F6F6F6F6656F6FF6F6F6F665262626F652
:100EE000F6F6656F6F6F65F6F6652626266525F6BC
:100EF000656F6F6F65252565262626652525256581
:100F0000F6F6F6F6F6F6F62665F6F6F6F6F6F66F69
:100F10006F65F6F6F6F6F626262665F6F6F6F6651B
:100F20006F6F6F65F6F6F6256526262665F6F625BB
:100F300025656F6F6F65F62525256526262665F6DE
:100F400007F6F607F607F6F607F607FF0707F607B0
:100F5000FF07F607F607FFFF0707F6F607FF07F696
:100F600007F6F6F6F607F6F6F6F6F6F6F6F6F6F6FF
:100F7000F6F6F6F6F6F6F6F6F6F6F6F6F6F6F667A0
:100F80007737000700372F667677000000766F6F9F
:100F9000773700070077666F7776000000372F6F8E
:100FA00037777737766F6E6676376F6F66F6F666E9
:100FB000666F66F6F6F6F6F6F6F6F6F6F6F6F6F678
:100FC000F6F6F6F6F6F6F666666F66F6F6F6F66688
:100FD00076376F6F66F6F66F37777737766F6E6FA7
:100FE0007776000000372F6F773700070077666647
:100FF0007677000000766F677737000700372FB1EC
:10100000B1B1B1B1B1B1B1B1B1F6F6F6F6B1F6B177
:10101000F6B1B1B1B1F6B1B1F6B1F6F6B1F6B1B122
:10102000F6B1F6F6B1F6B1B1F6B1B1B1B1F6B1B112
:10103000B1F6F6F6F6B1F6B1F6B1B1B1B0F6B0B0C0
:10104000B1B1B1B1B1B1B1F6B1F6F6F6F6B1B1B137
:10105000F6B1B1B1B1F6B1B1F6B1F6F6B1F6B1B1E2
:10106000F6B1F6F6B1F6B1B1F6B1B1B1B1F6B1F68D
:10107000B1F6F6F6F6B1B1B1F6B1B1B1B0F6B0B0C5
:10108000B0B0B0B0B0B0B0F6F6F6F6F6F6F6F6B030
:10109000B0B0B0B0B0B0B0B0F6F6B0B0F6F6B0B038
:1010A000F6F6B0B0F6F6B0B0B0B0B0B0B0B0B0F6E2
:1010B000F6F6F6F6F6F6F6B0B0B0B0B0B0B0B0F600
:1010C000F6F6F6F6F6F6F6F6F6F6F6F6F6F6F6F6C0
:1010D000F6F6F6F6F6F6F6F6F6F6F6F6F6F6F6F6B0
:1010E000F6F6F6F6F6F6F6F6F6F6F6F6F6F6F6F6A0
:1010F000F6F6F6F6F6F6F6F6F6F6F6F6F6F6F6B1D5
:10110000F6B1B1B1B1F6B1B1B1F6F6F6F6B0F6B1ED
:10111000F6B1B1B1B1F6B0B1F6B1F6F6B0F6B0B124
:10112000F6B1F6F6B0F6B0B1F6B1B0B1B1F6B0B115
:10113000B1F6F6F6F6B0F6B1B1B1B1B1B0B0B0B14A
:10114000F6B1B1B1B1F6B1F6B1F6F6F6F6B1B1B1AC
:10115000F6B1B1B1B1F6B1B1F6B1F6F6B1F6B1B1E1
:10116000F6B1F6F6B1F6B1B1F6B1B1B1B1F6B1F68C
:10117000B1F6F6F6F6B1B1B1B1B1B1B1B0B0B0B04F
:10118000F6B0B0B0B0F6B0B0F6B0F6F6B0F6B0B0BB
:10119000F6B0F6F6B0F6B0B0F6B0B0B0B0F6B0B0AB
:1011A000F6B0B0B0B0F6B0B0F6B0F6F6B0F6B0B09B
:1011B000F6B0F6F6B0F6B0B0F6B0B0B0B0F6B0003B
:1011C0003737000000000000373700000000000043
:1011D0003737000000000000373700000000000033
:1011E0003737000000000000373700000000000023
:1011F000373737373737000037373737373700005B
:1012000037373737370000003737373737000000B8
:101210003737000000000000373737370000000084
:101220003737373700000000373700000000000074
:101230003737373737000000373737373700003751
:1012400037000000373700373700000037370037E6
:1012500037000000373700373700000037370037D6
:10126000370000003737003737370037373700008F
:10127000373737373700000000373737000000377F
:101280003700000000000037370000000000003782
:101290003700000000000037370000000000003772
:1012A0003700000000000037370000000000003762
:1012B00037373737370000373737373737000000D1
:1012C0000037370000000000003737000000000042
:1012D0000037370000000000003737000000000032
:1012E0000037370000000000003737000000000022
:1012F0000037370000000000003737000000000012
:101300000000373700000000000037370000000001
:1013100000003737000000000000373700000000F1
:101320000000373700000000000037373700370073
:1013300000000037373737000000000037373737F5
:1013400037000000000000373700000000000037C1
:1013500037000000000000373700000000000037B1
:1013600037000000000000373700000000000037A1
:10137000000000000000000000000000000000006D
:1013800000373700003737000037370000373700A5
:101390000037370000373700003737000037370095
:1013A0000037370000373700003737000037370085
:1013B000003737000037370000373700003737373E
:1013C0003700003737000037370000373700003765
:1013D0003700003737000037370000373700003755
:1013E0003700003737000037370000373700003745
:1013F00000000037370000000000003737000037DA
:101400003700000000000037370000000000003700
:1014100037000000000000373700000000000037F0
:1014200037000000000000373700000000000037E0
:101430003700000000000037370000000000000007
:1014400000373700003737000037370000373700E4
:1014500000373700003737000037370000373700D4
:1014600000373700003737000037370000373700C4
:101470000037370000003700003737000000000059
:101480000000373700000000000037370000000080
:101490000000373700000000000037370000000070
:1014A00000003737000000370037373700000037BB
:1014B00037373700000000373737000000000037AB
:1014C0003700003737000037370000373700003764
:1014D0003700003737000037370000373700003754
:1014E0003700003737000037370000373700003744
:1014F000370000373700003737000037370000006B
:101500000037370000373700003737000037370023
:1015100000373700000037000037370000000000B8
:1015200000373700000000000037370000003700A8
:1015300000373700003737000037370000373700F3
:10154000000037370000003700373737000000371A
:10155000373737000000003737370000000000370A
:1015600037370000000000373737370000000037FA
:101570000037373700000000000037370000000058
:1015800000373700000037000037373700373700A3
:101590000000373737373700000000373737000093
:1015A0000000003737370000000037373737370083
:1015B000003737370037370000373700000037373C
:1015C00000000000000000370000000000000000E4
:1015D000000000000000000000000000000000000B
:1015E00000000000000000000000000000000037C4
:1015F00000000000000000370000000000000001B3
:1016000001060101050201202102011E1F0301162E
:10161000191D030116191A020116190201161702E3
:10162000011B1C0101150101180101150501111211
:1016300013121401010D01010F01010B01010E0133
:10164000010A01010C010110010103010104010162
:101650000901010801010701010201010000112433
:101660001FBECFEFD0E1DEBFCDBF11E0A0E0B1E003
:10167000E0E4F3E402C005900D92A230B107D9F77F
:1016800020E1A2E0B1E001C01D92AD37B207E1F761
:1016900014BE0FB6F894A89580916000886180937D
:1016A0006000109260000FBEF89480E790E0FC01AB
:1016B00025913491F901FF273083029620E0823A88
:1016C0009207A9F70E949C10811102C00E947A1013
:1016D00081E08093B60D8093B70D8093B50D109285
:1016E000A20D1092A80D1092AE0D1092B40D109292
:1016F000BA0D1092700D1092720D92E19093710DCF
:1017000090EE9093780D94E19093770D10927C0D6C
:1017100010927B0D1092800D10927F0D8093A10D81
:101720000E94D11B78940E94371C0E9471200C9457
:101730009E210C94000003E80A95F1F700C0009187
:10174000600DECEFFCE023E0029FE00DF11D209125
:101750005F0D3CE3321B300F201751F000000000FA
:10176000A191B1911C9111930C9303950217C0F3B1
:1017700013E01A95F1F700C03A95D1F7C0E2D1E035
:10178000662717E01A95F1F700C040916E0D509151
:101790006F0D60906A0D70906B0DD3015E01762F16
:1017A00000C030916D0D303009F0C8E609F0D4E08A
:1017B00009F0DA0115E01A95F1F78090780D07E04D
:1017C0000093360001E00093810001E000936F0078
:1017D00008E0609F8D0100541840000D111D180194
:1017E0000CEB14E0000D111D280100E4E02E03E3D2
:1017F0001AEFCF93DF93599100C000C01FD32CE0A4
:101800002A95F1F7109385000093840078940027BF
:101810005E9D5132F10108F4F201001FE00DF11D4F
:101820001AE01A95F1F70000112700FF02C000002E
:1018300065C048C018B90F900F90DF91CF9103E0B9
:101840000A95F1F700C063958A94B1F0683029F0E9
:1018500007E00A95F1F700C0BBCF66276E960491AA
:10186000049100C03A9509F4672F09F4E50100C01E
:1018700000C009F4D301ACCF20E12A95F1F700E0D4
:10188000009385000CE200938400D8D211240E94BA
:10189000C30DE091720D42E0E160E427E093720D28
:1018A00007E00093360009E00093810002E0009316
:1018B0006F000895059108B9020C0000059108B960
:1018C000131CF001059108B900C0059108B94991B0
:1018D000059108B900C0059108B94E9D059108B958
:1018E00041320000059108B928F70000059108B9B8
:1018F000040C0000059108B9151CF00100000191CD
:1019000008B949910000019108B900004E9D01916C
:1019100008B90491019108B90491019108B94132C3
:1019200000C0019108B950F40000040C019108B9FD
:10193000151C00000191F00108B9E0CF020C0191E3
:1019400008B9131C00000191F00108B9BBCF20E4D5
:10195000E0916A0DF0916B0D829FE00DF11DACEBF3
:10196000B4E0629FA00DB11D15901D9215901D92BF
:1019700015901D9215901D9215901D9215901D9217
:1019800015901D9215901D9215901D9215901D9207
:1019900015901D9215901D9215901D9215901D92F7
:1019A00015901D9215901D9215901D9215901D92E7
:1019B00015901D9215901D9215901D9215901D92D7
:1019C00015901D9215901D9215901D9215901D92C7
:1019D00015901D9215901D9215901D9215901D92B7
:1019E00015901D9215901D9215901D9215901D92A7
:1019F00015901D9215901D9215901D9215901D9297
:101A000015901D9215901D9215901D9215901D9286
:101A100015901D9215901D9215901D9215901D9276
:101A200015901D9215901D9215901D9215901D9266
:101A300015901D9215901D9215901D9215901D9256
:101A400015901D9215901D9215901D9215901D9246
:101A500015901D9215901D9215901D9215901D9236
:101A600015901D9215901D921124089520E4ECEB21
:101A7000F4E0829FE00DF11DACEBB4E0629FA00D9D
:101A8000B11D11901D9211901D9211901D921190F7
:101A90001D9211901D9211901D9211901D92119006
:101AA0001D9211901D9211901D9211901D921190F6
:101AB0001D9211901D9211901D9211901D921190E6
:101AC0001D9211901D9211901D9211901D921190D6
:101AD0001D9211901D9211901D9211901D921190C6
:101AE0001D9211901D9211901D9211901D921190B6
:101AF0001D9211901D9211901D9211901D921190A6
:101B00001D9211901D9211901D9211901D92119095
:101B10001D9211901D9211901D9211901D92119085
:101B20001D9211901D9211901D9211901D92119075
:101B30001D9211901D9211901D9211901D92119065
:101B40001D9211901D9211901D9211901D92119055
:101B50001D9211901D9211901D9211901D92119045
:101B60001D9211901D9211901D9211901D92119035
:101B70001D9211901D9211901D9211901D92119025
:101B80001D9211240895E091600D8E2FEE0FE80F45
:101B9000FF27E450F34F00905F0D801930F4A191BE
:101BA000B19101900C928395D1F7089598E0799FB7
:101BB000A12DBB27AE59B24FED91FD9190E4699FE5
:101BC000E00DF11D899FD001A454BB4F90E040FD72
:101BD00009C0822F48E0421B70FF0AC01796E80F29
:101BE000F91F08C088E0821B422F70FFF8CF1197C1
:101BF000A20FB91F68E028E0231B50FD09C0639FB6
:101C0000A00DB11D71FDE85C71FDFF4F122E08C0E3
:101C1000132E1A9471FF122E619DE00DF11D132EEB
:101C200071FD409770FD05C057EF540F70E061E003
:101C300004C059EF541B7FEF6FEF3EEF042E469523
:101C400030F461F0259123132C93A60FB71F259133
:101C500023132C93A60FB71F4150A1F725912313EF
:101C60002C931A9449F0E80FF91FA51BBF4F402D84
:101C7000469568F739F7F2CF08950F921F92EF93C8
:101C8000FF93FFB7E0918400FF93E2FD04C0E1FD04
:101C900002C0000000C0E0FF00C0E091710DEA95B5
:101CA000E093710DF091700DF0FD51C0EC3098F0A3
:101CB000F3E0F0938900FDE8F0938800E0FB2898BA
:101CC00026F4E1E00E942F0FB2C0E5E1EA95F1F7BA
:101CD0000000289AACC0E63008F100C000C0289887
:101CE000E0FBE4E016F40E942F0FE4E0E0933600FE
:101CF000E6E0E0936F009BC0EF93E0918400E2FD8B
:101D000004C0E1FD02C0000000C0E0FF00C0E2E04E
:101D10000000289AE0936F00EF91189500C0E0FB57
:101D2000289826F4E1E00E942F0F05C0E5E1EA952E
:101D3000F1F70000289AE091710DE03009F077C0CA
:101D4000EDEFE093710DE1E0E093700D70C0E7E01E
:101D5000E0938900EBE1E093880000C02898E2E07E
:101D600000C00E942F0FFDEF0090770DF019E09159
:101D7000710DEF17D8F4FDEF0090770DF01900907A
:101D8000780DF019EF1790F0EDE1FF2700800F922A
:101D9000EA95E1F70DE00A95F1F700C00E949B0B70
:101DA000E1E0FF270F900192EE31E0F3E091710D39
:101DB000E03009F03CC02F933F934F935F936F93B4
:101DC0007F938F939F93AF93BF9378941124EE27C3
:101DD000E093700DE2E1E093710D8091810D90919F
:101DE000820D01968093810D9093820DE091730D89
:101DF000F091740DE115F10509F009950E946A1042
:101E00000E94941C0E94290F1124E091750DF091FD
:101E1000760DE115F10509F00995BF91AF919F91FC
:101E20008F917F916F915F914F913F912F91EF91A2
:101E3000EFBFFF91EF911F900F9018952898E2E067
:101E400000C00E942F0FE091710DEA95E093710D93
:101E50000895E091A10DE0FD0E94B11208952F9325
:101E60001F930F932E2F1091A50DE091A60DF091C9
:101E7000A70D0091A30D100F0091A40DE01F049178
:101E8000E093A60D1093A50D1091A20D010300087B
:101E90001091AB0DE091AC0DF091AD0D0091A90D3D
:101EA000100F0091AA0DE01F0491E093AC0D109368
:101EB000AB0DF0011091A80D010300081F0E109149
:101EC000B10D20FD289A0E1EE091B20DF091B30DD8
:101ED0000091AF0D100F0091B00DE01F0491E09341
:101EE000B20D1093B10DF0011091AE0D0103000879
:101EF0001F0E0E1E0091B60D1091B70DF091B40D8E
:101F0000F695889400FDF195EE0B1F0E0E1EE091E4
:101F1000B80DE25020F0E491E491E4910AC0E02F82
:101F200016950795E027E0FB16F9E091B50DE0FF67
:101F300006F90093B60D1093B70DE093B80D10E0BD
:101F4000E091BD0DF091BB0D21FD289AEF0FE093BC
:101F5000BD0DE091BE0DF091BF0D0091BC0DE01FD5
:101F6000F11F0091C20D1091C30DE017F10718F495
:101F7000049100C006C00091C00D1091C10DE01B7E
:101F8000F10BE093BE0DF093BF0D0491F0011091A1
:101F9000BA0D010300081F0E0E1EF0010F911F91D4
:101FA000F058EF4F1AF4F0E0000003C0E03009F001
:101FB000FFEFF093B3002F9108958093620D9093FB
:101FC000630D0895E8E4F3E0A0E2B1E061E26D930F
:101FD0003197E9F711240895992777272EE1629F19
:101FE000080E191EA0E2B1E0A00DB11D4F5D4C938B
:101FF0001124089580936A0D90936B0D089580913C
:10200000720D817008952091720D2E7F2093720DB4
:102010000895882329F48091790D90917A0D08957F
:1020200080917D0D90917E0D0895E0E6F0E0808135
:1020300083FD089588E198E0F894808390837894F4
:10204000FFCFF999FECF92BD81BD60BDF894FA9A99
:10205000F99A78940895F999FECF92BD81BDF894CC
:10206000F89A80B578940895129AC895C895C8953D
:10207000C895129840E190E080E030E020E036958D
:10208000279596958795C895C895C895C89513982E
:10209000009B3068019B9068139AC895C895C895B5
:1020A000C895415061F730937A0D2093790D909344
:1020B0007E0D80937D0D8091790D90917A0D0F9713
:1020C00031F080917D0D90917E0D0F9711F40C945D
:1020D000151008951092C40D009903C081E08093FB
:1020E000C40D019905C08091C40D82608093C40D18
:1020F0000C943410CF93DF93D0E0C0E0FE01EE5596
:10210000FF4F6491CE010E9421102196C032D1056B
:10211000A9F7C0E2D0E06FEFCE010E9421106FEF6F
:10212000CE0101960E942110A096C11588E0D80723
:1021300091F7DF91CF910895CF93DF9390E080E006
:102140000E942B10C82F81E090E00E942B1090E09D
:10215000982F8827C80FD92FD11D81E0CA35D545C2
:1021600009F080E0DF91CF910895FC016787089521
:10217000E2EAFDE081E091E0958B848B638B08952A
:10218000FC0190819F7590830895FC01908190647B
:1021900090830895FC0166870895FC016287089585
:1021A000FC0163870895CF93DF93EC01262F3981DB
:1021B000832F90E0FC01EE0FFF1FE059F64D459193
:1021C0005491FC01E60FF11D67FDFA95EE0FFF1F1C
:1021D000E059F64D85919491841B950B688570E0CC
:1021E0000E9481216115710511F461E070E0EA81BE
:1021F00086E0E89FF0011124EE55F24F8181928133
:10220000860F971F928381837E836D838881886088
:102210008883230F2F83DF91CF910895FC0160877E
:102220000895FC0164830895FC0182810C949B1441
:10223000FC018181680F618382810C948414FC010C
:102240009181961B692F918382810C9484141F9332
:10225000CF93DF93EC01162F8A810E948414198397
:102260008881877F8883DF91CF911F910895CF93D5
:10227000DF93EC018C818823A1F02D893E896623B0
:1022800099F0062E000C770B6F5F7F4FAB01440F68
:10229000551F640F751F261B370B3E8B2D8B8150EE
:1022A0008C83DF91CF91089523503109F901329742
:1022B000E491ED3091F3EF3FB9F7EFCF90933D0EFE
:1022C00080933C0E8FE680933F0E1092A00DE7ECBA
:1022D000FDE080E090E13FEF28E182839083158666
:1022E0003487108A238790878F5F77968530A9F788
:1022F0000895CF93DF93EC01E881F981CF01019636
:1023000099838883949197FD05C0892F90E0DF9190
:10231000CF9108959F77892F90E09F012E5F3F4FC7
:102320009695982F882797958795522F432FF901D7
:102330003197E4916E2F6F77860F911D2F5F3F4F7E
:10234000E7FDEECF58834983E2CFFF920F931F93AF
:10235000CF93DF93EC01162F022FF8801F868FEFAB
:102360008E874D871C8A9F2D977B988329831A8699
:1023700019861C828B838A81833031F5F7FC062F06
:1023800081E091E09093B70D8093B60D81E080934A
:10239000B50D102FF7FE52C0198BE0913C0EF09155
:1023A0003D0E89E0189FE00DF11D112433968591B3
:1023B0009491009709F044C01E8A1D8ADF91CF9145
:1023C0001F910F91FF900895843009F031C0109251
:1023D000BD0D80913C0E90913D0E29E0629F800DD5
:1023E000911D1124FC013196459154915093BF0DDC
:1023F0004093BE0D9C01295F3F4FF9016591749197
:102400000596FC0185919491681B790B7093C10D21
:102410006093C00DF90185919491480F591F509315
:10242000C30D4093C20D602F84E00E948414B2CF8C
:1024300060E00E949B14602F8A81F7CF188BADCF8C
:102440001B8AFC0124912A8B01969E8B8D8BB6CF23
:10245000CF93DF93E0913C0EF0913D0E99E0899F80
:10246000E00DF11D1124E491C3E0E130F1F0C4E08E
:10247000E230D9F09091DE0D97FF16C09091EF0DEC
:10248000981302C0411110C09091F50D97FF23C021
:102490009091060E981302C041111DC02091F20DBB
:1024A0009091090E9217B8F4C1E097E1C99FE0013D
:1024B0001124C953D24F90E898831E8A1D8A20E5C3
:1024C000462F682FCE010E94A511888180628883E3
:1024D000DF91CF910895C2E0E8CFCF93DF93A82F8B
:1024E000B0E097E1899FF0011124E953F24F908108
:1024F00095FF02C097FD19C021111AC087E18A9F7C
:10250000F0018B9FF00D1124E953F24F8785811163
:1025100002C096FF158687E18A9FF0018B9FF00D20
:102520001124E953F24F9F7B9083DF91CF9108955F
:10253000322F242F97E19A9FE0019B9FD00D112409
:10254000C953D24F18821E8A1D8A899FC001112447
:10255000432F8953924F0E94A511888180628883FE
:10256000E4CFEF92FF920F931F93CF93DF93C7ECCB
:10257000DDE002EA1DE0C801DE01FD0147854423DC
:1025800089F02685042E000C550B240F352F311DA4
:102590002F3F310519F014F02FEF30E037FD20E028
:1025A000FD0126876C9163FF1CC0FD0145815681AA
:1025B000FC0121813281240F351F32832183FD01EB
:1025C0007781E72FF0E0EE0FFF1FE059F64DE59021
:1025D000F490141615060CF0CEC02E153F0508F029
:1025E000D1C057960696FEE0AA33BF0731F6809118
:1025F000A00D882381F187E1F82E80913A0E909109
:102600003B0E2091400E3091410E82179307F1F45A
:102610002091430E3091440EB9016F5F7F4F70934C
:10262000440E6093430EF90144914F3F09F0DBC023
:10263000A9014E5F5F4F5093440E4093430EFB0140
:1026400064916F3209F0A4C01092A00D019690938E
:102650003B0E80933A0EEE24EA94F12C888185FF9C
:102660001CC02D893E89232BC1F086FD16C09B8995
:102670008A89981310C0ED89FE89BF016F5F7F4F73
:102680007E8B6D8B84918F3F09F020C188818F777D
:1026900088831E8A1D8A9F5F9B8B988180E095FFAF
:1026A00059C08C898F3F11F08F5F8C8B97FD28C1AB
:1026B0009C858D852985882309F424C16E85662330
:1026C00009F420C1992309F41DC130913F0E332331
:1026D00009F418C1899FC00111249395892F992766
:1026E000689FA001699F500D1124CA0193956B81C9
:1026F000892F9927689FA001699F500D1124539538
:10270000452F5527349FC001359F900D1124939577
:10271000892F99273A853323D1F0E22FF0E0E0505A
:10272000F54DE491E058E39FF0011124F395EF2F6C
:10273000FF27B7016E1B7F0B689FA001699F500D9B
:10274000789F500D1124CA019395892F99273B85B5
:10275000230F2987F801808367960A5F1F4FFEE0E9
:10276000CA33DF0709F07ACFDF91CF911F910F9124
:10277000FF90EF900895452B09F433CFE216F3064E
:1027800008F42FCFFC01F282E182677F6C9329CF9E
:10279000663089F4FA014491C90104969093440E7D
:1027A0008093430EF9013396E491E33589F49093D5
:1027B000460E8093450E83E49EE00E94791190932B
:1027C000410E8093400E10923B0E10923A0E15CFA0
:1027D000E53489F78091450E9091460E9093440E12
:1027E0008093430EE8CF47FD40933E0E90913E0EFE
:1027F000892F8F7047FF08C02E5F3F4F3093440EE4
:102800002093430EFB014491907F903BD9F0903C84
:1028100009F455C0903979F6E091430EF091440ED9
:102820009F012F5F3F4F3093440E2093430E24911E
:10283000220FF89EF0011124E953F24F60890E94A3
:102840006D12B9CFE091430EF091440E9F012F5FBE
:102850003F4F3093440E2093430EE491473051F4A0
:10286000F89EC00111248953924F2E2F220FFC0194
:102870002487A1CF4B3051F4F89EC0011124895315
:10288000924F2E2F220FFC01238395CF4C3551F40C
:10289000F89EC00111248953924F2E2F220FFC0164
:1028A000228789CF443609F086CFF89EC0011124D3
:1028B0008953924F2E2F220FFC0123877CCFF89E45
:1028C000F0011124E953F24F408B75CF3296FE8B05
:1028D000ED8BFB016491E82FF0E0EE0FFF1FEE534C
:1028E000FF4F25913491CE01F9010995ED89FE89BB
:1028F000CF0101969E8B8D8BE491EA8B1B8AB7CE1C
:102900009FEFD7CE80E023CF99277727833009F434
:102910000895E0E7F9E2660F771FE60FF71FA5912C
:10292000B491E2EAFDE026E0289FE00DF11DA183CD
:10293000B2831124089599277727E2EAFDE026E083
:10294000289FE00DF11D6E3F31F46091B50D6E7F53
:102950006093B50D0BC06F3F31F46091B50D6E6F94
:102960006093B50D03C07BE2760F75831124089543
:1029700022002400260028002B002D003000330008
:10298000360039003D004000440048004C00510032
:1029900056005B00600066006C00730079008100E7
:1029A000880090009900A200AC00B600C100CC00E5
:1029B000D800E500F30001011001210132014401BA
:1029C00057016C0181019801B001CA01E5010202C1
:1029D0002102410264028802AE02D70203033003DF
:1029E00061039403CB03050442048304C704100568
:1029F0005D05AF0505066106C206290796070908A9
:102A0000830805098E09200ABA0A5D0B0A0CC10C5D
:102A1000840D510E2B0F121007110A121D134014B2
:102A20007415BA1614188319071BA31C571E2420EB
:102A30000E22142439267F28E82A752D29300633E2
:102A40000F364539AD3C49401B442848734CFE5075
:102A5000CF55EA5A51600C661D6C8B725A79928080
:102A600037885090E598FDA19FABD3B5A3C0000077
:102A70000000000000000000000000000000000056
:102A80000000000000000000000000000000000046
:102A90000000000000000000000000000000000036
:102AA0000000000000000000000000000000000026
:102AB0000000000000000000000000000000000016
:102AC0000000000000000000000000000000000006
:102AD00000000000000000000000000000000000F6
:102AE00000000000000000000000000000000000E6
:102AF00000000000000000000000000000000000D6
:102B0000000306090C101316191C1F2225282B2E52
:102B1000313336393C3F414447494C4E5153555867
:102B20005A5C5E60626466686A6B6D6F7071737424
:102B3000757678797A7A7B7C7D7D7E7E7E7F7F7FDD
:102B40007F7F7F7F7E7E7E7D7D7C7B7A7A797876C3
:102B500075747371706F6D6B6A68666462605E5CD9
:102B60005A585553514E4C494744413F3C393633EE
:102B7000312E2B2825221F1C191613100C090603B1
:102B800000FDFAF7F4F0EDEAE7E4E1DEDBD8D5D2B8
:102B9000CFCDCAC7C4C1BFBCB9B7B4B2AFADABA883
:102BA000A6A4A2A09E9C9A9896959391908F8D8CA6
:102BB0008B8A8887868685848383828282818181CD
:102BC0008181818182828283838485868687888AC7
:102BD0008B8C8D8F9091939596989A9C9EA0A2A491
:102BE000A6A8ABADAFB2B4B7B9BCBFC1C4C7CACD5C
:102BF000CFD2D5D8DBDEE1E4E7EAEDF0F4F7FAFD79
:102C0000808182838485868788898A8B8C8D8E8F4C
:102C1000909192939495969798999A9B9C9D9E9F3C
:102C2000A0A1A2A3A4A5A6A7A8A9AAABACADAEAF2C
:102C3000B0B1B2B3B4B5B6B7B8B9BABBBCBDBEBF1C
:102C4000C0C1C2C3C4C5C6C7C8C9CACBCCCDCECF0C
:102C5000D0D1D2D3D4D5D6D7D8D9DADBDCDDDEDFFC
:102C6000E0E1E2E3E4E5E6E7E8E9EAEBECEDEEEFEC
:102C7000F0F1F2F3F4F5F6F7F8F9FAFBFCFDFEFFDC
:102C8000000102030405060708090A0B0C0D0E0FCC
:102C9000101112131415161718191A1B1C1D1E1FBC
:102CA000202122232425262728292A2B2C2D2E2FAC
:102CB000303132333435363738393A3B3C3D3E3F9C
:102CC000404142434445464748494A4B4C4D4E4F8C
:102CD000505152535455565758595A5B5C5D5E5F7C
:102CE000606162636465666768696A6B6C6D6E6F6C
:102CF000707172737475767778797A7B7C7D7E7F5C
:102D000000020406080A0C0E10121416181A1C1ED3
:102D100020222426282A2C2E30323436383A3C3EC3
:102D200040424446484A4C4E50525456585A5C5EB3
:102D300060626466686A6C6E70727476787A7C7EA3
:102D40007F7D7B79777573716F6D6B696765636183
:102D50005F5D5B59575553514F4D4B494745434173
:102D60003F3D3B39373533312F2D2B292725232163
:102D70001F1D1B19171513110F0D0B090705030153
:102D8000FFFDFBF9F7F5F3F1EFEDEBE9E7E5E3E143
:102D9000DFDDDBD9D7D5D3D1CFCDCBC9C7C5C3C133
:102DA000BFBDBBB9B7B5B3B1AFADABA9A7A5A3A123
:102DB0009F9D9B99979593918F8D8B898785838113
:102DC00080828486888A8C8E90929496989A9C9E13
:102DD000A0A2A4A6A8AAACAEB0B2B4B6B8BABCBE03
:102DE000C0C2C4C6C8CACCCED0D2D4D6D8DADCDEF3
:102DF000E0E2E4E6E8EAECEEF0F2F4F6F8FAFCFEE3
:102E00007F7F7F7F7F7F7F7F7F7F7F7F7F7F7F7FD2
:102E10007F7F7F7F7F7F7F7F7F7F7F7F7F7F7F7FC2
:102E20007F7F7F7F7F7F7F7F7F7F7F7F7F7F7F7FB2
:102E30007F7F7F7F7F7F7F7F7F7F7F7F7F7F7F7FA2
:103100000309131E28313A40464C5054585B5E6107
:10311000636567696B6C6E6F7071727374757677C7
:10312000777879797A7A7B7B7C7C7C7D7D7D7E7EED
:103130007E7E7F7F7F7F7F7F7F7F7F7F7F7F7F7FA1
:103140007F7F7F7F7F7F7F7F7F7F7F7F7F7E7E7E92
:103150007E7D7D7D7C7C7C7B7B7A7A7979787777C4
:10316000767574737271706F6E6C6B69676563618D
:103170005E5B5854504C46403A31281E13090300F8
:10318000C6CCD5DBDFE3E5E7E9EAEBECEDEEEFEF0C
:10319000F0F0F0F1F1F1F1F2F2F2F2F2F2F2F2F318
:1031A000F3F3F3F3F3F3F3F3F3F3F3F3F3F3F3F3EF
:1031B000F3F3F3F3F3F3F3F3F3F3F3F3F3F3F3F3DF
:1031C000F3F3F3F3F3F3F3F3F3F3F3F3F3F3F3F3CF
:1031D000F3F3F3F3F3F3F3F3F3F3F3F3F3F3F3F3BF
:1031E000F2F2F2F2F2F2F2F2F1F1F1F1F0F0F0EFCC
:1031F000EFEEEDECEBEAE9E7E5E3DFDBD5CCC6008B
:1032000000283D42302D2C2B2C2D2E2F30323335E3
:1032100037393B3D3F414345484A4C4E5053555743
:10322000595B5D5F61636567696B6C6E7071737428
:10323000757778797A7B7C7D7D7E7E7F7F7F7F7FCF
:103240007F7F7F7F7F7F7E7E7D7D7C7B7A797877B5
:1032500075747371706E6C6B69676563615F5D5BDC
:1032600059575553504E4C4A484543413F3D3B39D1
:1032700037353332302F2E2D2C2B2C2D30423D283C
:1032800000E9E5FED4D7D7D7D6D4D2D0CECCCAC8A1
:10329000C6C3C1BFBDBAB8B6B4B1AFADABA9A7A5DF
:1032A000A3A19F9E9C9A999795949391908F8D8CB2
:1032B0008B8A8988888786858584848483838383B1
:1032C0008383838383848484858586878888898AA9
:1032D0008B8C8D8F909193949597999A9C9E9FA19A
:1032E000A3A5A7A9ABADAFB1B4B6B8BABDBFC1C3B2
:1032F000C6C8CACCCED0D2D4D6D7D7D7D4FEE5E96B
:10330000F9F8F9F5EBE1DDDEE0E2E4E5E6E5E4E23B
:10331000DED9D2CAC1B7ACA299918A868381808056
:103320008182838586888A8C8D8F909293959697DB
:1033300098999A9B9B9C9D9D9D9E9E9E9F9F9F9FC3
:103340009F9F9F9E9E9E9D9D9D9C9B9B9A999897BB
:1033500096959392908F8D8C8A88868583828180C2
:10336000808183868A9199A2ACB7C1CAD2D9DEE2A4
:10337000E4E5E6E5E4E2E0DEDDE1EBF5F9F8F900AD
:103380000708070B151F2322201E1C1B1A1B1C1EBF
:1033900022272E363F49545E676F767A7E7F7F7F85
:1033A0007F7E7D7B7A7876747371706E6D6B6A69DF
:1033B00068676665656464636362626261616161D6
:1033C00061616162626263636364656566676869BF
:1033D0006A6B6D6E7071737476787A7B7D7E7F7F99
:1033E0007F7F7E7A766F675E54493F362E27221E96
:1033F0001C1B1A1B1C1E2022231F150B070807006D
:103400001F313D444E5354565A5F64696E74767949
:103410007C7F7F7F7F7F7F7F7F7F7F7F7F7F7F7FBF
:103420007F7F7F7F7F7F7F7F7F7F7F7F7F7F7F7FAC
:103430007F7F7F7F7F7F7F7F7F7F7F7F7F7F7F7F9C
:103440007F7F7F7F7F7F7F7F7F7F7F7F7F7F7F7F8C
:103450007F7F7F7F7F7F7F7F7F7F7F7F7F7F7F7F7C
:103460007F7F7F7F7F7F7F7F7F7F7F7F7F7F7F7F6C
:103470007F7F7F7F7F7F7F7F7F7F7F7C7871684CBE
:103480002C1C120C0A0B0A05FDF3E9DFD4CAC0B7E5
:10349000AEA69E97918B868582808080808080807A
:1034A000808080808080808080808080808080801C
:1034B000808080808080808080808080808080800C
:1034C00080808080808080808080808080808080FC
:1034D00080808080808080808080808080808080EC
:1034E00080808080808080808080808080808080DC
:1034F000808080808087919DACC4CBD4DDF2FAFAC5
:103500002F923F924F925F926F927F928F929F92F3
:10351000AF92BF92CF92DF92EF92FF920F931F93E1
:10352000CF93DF9300D000D0CDB7DEB780910001FC
:10353000882309F4C0C08091610D8093600D809351
:103540005F0D28E634E03C832B83EB81FC816380B4
:1035500062FC87C0908188E0890F86958695869564
:1035600081508A83977009F49FC0F2E0F983EB8160
:10357000FC81818158E0552E580E569456945694ED
:103580005A94877022E009F421E0712C762C66248D
:10359000EB81FC813281630E711C082F10E0102F2B
:1035A0000027090F111D252C220EB12CA12CFBE1A7
:1035B000F51508F452C02EE1529E400111243A80C4
:1035C000D12CC12C3DE1331508F43FC0C401830D5B
:1035D000911DFC01E05EFE4F7F0140808091600DF7
:1035E000481618F0F0E2F41520F560915F0D613295
:1035F000E8F420E2241508F05AC08FED840D0E94F3
:10360000A70C80915F0D282F30E0F901EE0FFF1F0E
:10361000E20FF31FE450F34FF182E0824282F701A0
:10362000808391E0980F90935F0D482EF0E2F4159F
:1036300060F08091600D481640F09801A5014C0D96
:103640005D1DB301842D0E94D60D2FEFC21AD20A40
:1036500033943981C31608F4B5CF5394B394521000
:10366000A6CFEB81FC813496FC83EB832CEB34E01A
:103670002E173F0709F069CF0F900F900F900F9012
:10368000DF91CF911F910F91FF90EF90DF90CF903E
:10369000BF90AF909F908F907F906F905F904F9072
:1036A0003F902F900C94C30D21E0298360CF842D8F
:1036B0000E94360DA6CF0F900F900F900F90DF91C4
:1036C000CF911F910F91FF90EF90DF90CF90BF901F
:1036D000AF909F908F907F906F905F904F903F90B2
:1036E0002F900895CF92DF92EF92FF920F931F9346
:1036F000CF93DF93FB01549131969491BFEFB50FB7
:103700001FEF40FD02C011E0B0E02FEF290F0FEFD7
:1037100041FD02C001E020E0A0E0A91701F125036E
:10372000E0011124D82ED50E3B2F14C0FE01E30F6B
:10373000F11D37FDFA953296E60FF71FC490F4E0BD
:103740008F9F70011124F701E859FB4FC2828F5FF0
:103750004383310F8D11EACF200FAF5FDECFDF91B2
:10376000CF911F910F91FF90EF90DF90CF90089530
:103770000F9330E0301799F0582F520F962F0AC050
:1037800074E0879FF0011124E859FB4F9083418337
:103790008F5F985F8513F4CF3F5F485FEBCF0F914A
:1037A0000895E8E6F4E090EF80EE9083818334960C
:1037B00024E0EC3BF207C9F710925F0D1092610D07
:1037C00008958F929F92AF92BF92CF92DF92EF9225
:1037D000FF920F931F93CF93DF93882ED62F8A01EA
:1037E000FA0194903196C491C92CD12CC60FDC13E8
:1037F00020C0DF91CF911F910F91FF90EF90DF904C
:10380000CF90BF90AF909F908F900895F501EE0DEF
:10381000FF1D449150E06D2F882D8E0D0E94EC0FFE
:10382000FFEFEF1AFF0AE91488F30C0D1D1DDF5F8F
:10383000DECFF12CE12C580182E0A80EB11CF3CFB1
:103840000F931F93CF93DF938C01D0E0C0E0C0179C
:10385000D1072CF0DF91CF911F910F9108950E9415
:10386000FF0F8823E1F30E9403102196F0CF83E13C
:1038700099E00E945E1183E191E00E94FA0F0E949C
:10388000E20F8FE090E00E94201C41E06FEF80E0AB
:103890000E9428124DEF50E06CE08DE00E94E11B89
:1038A00083E090E00E94201C4CEE50E06CE08DE044
:1038B0000E94E11B82E090E00E94201C4DEF50E04E
:1038C0006CE08DE00E94E11B81E490E00E94201CEE
:1038D0000E94E20F84E190E00C94201C80914A0E3B
:1038E000882309F180914B0E81111AC08091480EF6
:1038F00080934B0EE0914C0EE150FF0BE052FF4FD6
:10390000E491E7B980914C0E9091490E890F809314
:103910004C0E882311F08D3031F410924A0E089528
:10392000815080934B0E08950E946E1C0C94801A57
:1039300080912E0F8F5F80932E0F8230C1F441EE65
:1039400050E068E77AE08DE49EE00E94952141EE28
:1039500050E067E979E08FE29FE00E94952144E61C
:1039600050E063E379E087E190E10C9495210895BC
:103970000F938091151081111DC0683071F48091F2
:103980001610811119C08091141081508093141069
:103990008091121088508093121082E090E00E9473
:1039A000201C01E021E0409112106091111080E094
:1039B0000E94B81B0F910895813049F48091141032
:1039C0008F5F8093141080911210885FE4CF823053
:1039D00059F480911310815080931310809111102D
:1039E000885080931110D9CF8330B9F6809113108D
:1039F0008F5F8093131080911110885FF2CF5F92D8
:103A00006F927F928F929F92AF92BF92CF92DF92EE
:103A1000EF92FF920F931F93CF93DF935C017A0194
:103A2000EB018DE4882E8EE0982E9FE2C92E9FE058
:103A3000D92E3B018FE0680E711C10E000E0F4010C
:103A400081E0A816B10429F082E0A816B10421F49F
:103A5000F601E00FF11F5080D7FD31C0C8018E0D77
:103A60009F1D97FD2CC043E356E1552019F181E0DD
:103A700045E456E15816F1F083E042E456E1581669
:103A8000C9F084E049E356E15816A1F087E046E327
:103A900056E1581679F088E04CE356E1581651F09B
:103AA00089E04FE356E1581629F08AE0581207C022
:103AB00042E056E16E2D600F8C2F0E94E11B0F5FDC
:103AC0001F4F0F30110509F0BACF21968FE0880EF5
:103AD000911C8FE0C80ED11CC615D70509F0ADCFDB
:103AE000DF91CF911F910F91FF90EF90DF90CF90DA
:103AF000BF90AF909F908F907F906F905F90089550
:103B0000AF92BF92CF92DF92EF92FF920F931F93EB
:103B1000CF93DF937B0127E1C22E20E1D22E8C01CF
:103B20005C018AE0A80EB11CD0E0C0E017FD2EC0F9
:103B3000C7018C0F9D1F97FD29C0F601EC0FFD1FDB
:103B4000808143E356E18823E1F045E456E181308A
:103B5000C1F042E456E18330A1F049E356E18430FC
:103B600081F046E356E1873061F04CE356E188305E
:103B700041F04FE356E1893021F08A3039F442E0D8
:103B800056E16C2F6E0D802F0E94E11B2196CA30EA
:103B9000D10561F68AE0C80ED11C0F5F1F4F0A15D0
:103BA0001B0511F6DF91CF911F910F91FF90EF90C0
:103BB000DF90CF90BF90AF9008950F9310921010A8
:103BC0000E94E20F4CE256E16AE18CE00E94E11BA8
:103BD00080912E0F813041F590E7909311109093D2
:103BE000121094E09093131099E090931410809326
:103BF00015106DEF7FEF84E090E00E94801D4DEF87
:103C00005FEF6AE070E082E090E00E94FF1C45E018
:103C100050E06AE070E081E090E00E94FF1C49E221
:103C200056E16AE181E133C0823029F580E7809373
:103C3000111088E58093121086E08093131085E0C0
:103C40008093141060E170E084E090E00E94801D99
:103C500048E050E06AE070E082E090E00E94FF1CE3
:103C600046E050E068E070E081E090E00E94FF1CD8
:103C700046E256E1D6CF833039F546E256E16AE1B5
:103C800081E10E94E11B43E256E16AE182E10E9488
:103C9000E11B40E06BE476E180E00E94721B70E083
:103CA00060E083E090E00E94B81C82E090E00E9417
:103CB000201C01E021E0409112106091111080E081
:103CC0000E94B81B0F9108954FE156E1843009F42A
:103CD000A8CF4BE156E1853009F4A3CF47E156E187
:103CE000863009F49ECF42E156E1873009F499CF3E
:103CF0004DE056E1883009F494CF49E056E189302F
:103D000009F48FCF8A3029F645E056E18ACF9091A9
:103D100010108823C9F19F5F909310100E94E20F4A
:103D200080911010811145C04CE256E16AE18CE0AF
:103D30000E94E11B80912E0F813041F598E790930E
:103D4000111090E39093121095E0909313108093CC
:103D500014106DEF7FEF84E090E00E94801D4DEF26
:103D60005FEF6AE070E082E090E00E94FF1C45E0B7
:103D700050E06AE070E081E090E00E94FF1C49E2C0
:103D800056E16AE181E113C09150C6CF46E256E1A7
:103D90008230B9F3833009F042C046E256E16AE16D
:103DA00081E10E94E11B43E256E16AE182E10E9467
:103DB000E11B80911010813009F068C04CE256E19F
:103DC00061E08CE00E94E11B80912E0F813009F0B0
:103DD0004AC080E78093111088E78093121089E031
:103DE000809313108093141066E070E08FEF9FEFC4
:103DF0000E94801D46E050E065E070E082E090E0C7
:103E00000E94FF1C4EE050E065E070E081E090E031
:103E10000E94FF1C49E256E161E081E135C04FE1BB
:103E200056E1843009F4ADCF4BE156E1853009F419
:103E3000A8CF47E156E1863009F4A3CF42E156E12D
:103E4000873009F49ECF4DE056E1883009F499CFD0
:103E500049E056E1893009F494CF8A3009F0A9CFBE
:103E600045E056E18ECF46E256E18230A9F283303A
:103E700009F043C046E256E161E081E10E94E11BA6
:103E800043E256E161E082E10E94E11B8091101063
:103E9000823009F08AC04CE256E161E08CE00E9479
:103EA000E11B80912E0F813009F04BC080E8809398
:103EB000111080E68093121088E08093131085E043
:103EC0008093141067E070E088E090E00E94801D0D
:103ED00047E050E06EE070E082E090E00E94FF1C5E
:103EE0004FE050E06EE070E081E090E00E94FF1C47
:103EF00049E256E161E081E134C04FE156E18430AE
:103F000009F48ACF4BE156E1853009F485CF47E1CA
:103F100056E1863009F480CF42E156E1873009F45A
:103F20007BCF4DE056E1883009F476CF49E056E189
:103F3000893009F471CF8A3009F0A8CF45E056E105
:103F40006BCF46E256E18230A9F2833061F446E25B
:103F500056E161E081E10E94E11B43E256E161E04C
:103F600082E10C94E11B4FE156E1843019F24BE100
:103F700056E1853009F4BECF47E156E1863009F4B9
:103F8000B9CF42E156E1873009F4B4CF4DE056E1B4
:103F9000883009F4AFCF49E056E1893009F4AACF5F
:103FA0008A3019F445E056E1A5CF08950F9390911A
:103FB0001010911110C02FE08202F0011124E35B78
:103FC000F14FE60FF11D67FDFA952081211115C013
:103FD00080E00F910895913039F42FE08202F001D2
:103FE0001124E15DF04FEDCF923081F72AE082029B
:103FF000F0011124E95EFF4EE4CF2230D1F491505C
:104000009093101080912E0F813011F081E0E1CF5C
:1040100088E5809312102093131084E0809314108D
:1040200001E021E048E56091111080E00E94B81B9A
:10403000EDCF253009F580912E0F8230A9F49F5FD6
:1040400090931010913039F488E08093131086E03B
:1040500080931410BDCF923009F0BACF88E08093DE
:10406000131090931410B4CF92300CF0B1CF81E0C4
:1040700090E00E94871EACCF2630C1F480912E0FB5
:10408000823089F4915090931010911105C08AE00C
:104090008093131088E0DCCF913009F099CF8093A2
:1040A00013108AE0D5CF90E080E0E3CF2A3009F00A
:1040B000ADCF40E06AE576E180E00E94721B01E04E
:1040C00021E04FEF6FEF80E00E94B81B0E94E20FEB
:1040D0008EE190E00E94201C0E94981C0E94DD1D31
:1040E00095CF10922E0F0E94E20F8FE79DE00E9465
:1040F000FA0F8FE79DE00E94DD0F81E0809315109D
:10410000C1E0D0E714E089E0F82E93E0E92E22E048
:10411000D22E80E00E94091090937C1080937B1037
:1041200090FD0E94DD1D80917B1090917C1091FF8D
:1041300059C080912E0F811153C0C0932E0FD09380
:104140001110D093121010931310F092141041EE2E
:1041500050E06EE97CE08DE49EE00E94952141EE06
:1041600050E06DEB7BE08FE29FE00E94952144E6FA
:1041700050E069E57BE087E190E10E94952140E015
:104180006BE476E180E00E94721B01E021E0409147
:1041900012106091111080E00E94B81B6DEF7FEF4C
:1041A00084E090E00E94801D4DEF5FEF6AE070E0D8
:1041B00082E090E00E94FF1C45E050E06AE070E081
:1041C00081E090E00E94FF1C4CE256E16AE18CE045
:1041D0000E94E11B49E256E16AE181E10E94E11B94
:1041E0001092151080917B1084FF20C040E061E5A3
:1041F00076E180E00E94721B1092161060911410FC
:104200006150809113100E94D61F811104C08091CB
:104210001510882329F081E090E00E94201C79CFBE
:1042200068E0809116100E94B81CE8CF85FF1BC083
:1042300040E06EE476E180E00E94721BC0931610AD
:10424000609114106F5F809113100E94D61F81112E
:10425000E2CF809115108111DECF68E080911610B9
:104260000E94B81CEDCF86FF1BC040E068E476E1F9
:1042700080E00E94721BD092161080911310609102
:10428000141081500E94D61F8111C5CF8091151046
:104290008111C1CF68E0809116100E94B81CEDCF4B
:1042A00087FFB9CF40E06BE476E180E00E94721BAB
:1042B000E092161080911310609114108F5F0E948D
:1042C000D61F8111A8CF809115108111A4CF68E06D
:1042D000809116100E94B81CEDCFAA1BBB1B51E1A8
:1042E00007C0AA1FBB1FA617B70710F0A61BB70B66
:1042F000881F991F5A95A9F780959095BC01CD010B
:10430000089597FB072E16F4009407D077FD09D087
:104310000E946D2107FC05D03EF4909581959F4F3A
:104320000895709561957F4F0895FB01DC0102C0EF
:1043300005900D9241505040D8F70895F894FFCF62
:0243400001007A
:00000001FF
