:100000000C945B070C94C5070C94C5070C94C507AA
:100010000C94C5070C94C5070C94C5070C94C50730
:100020000C94C5070C94C5070C94C5070C94C50720
:100030000C94C5070C94690A0C94A80A0C94460801
:100040000C94C5070C94C5070C94C5070C94C50700
:100050000C94C5070C94C5070C94C5070C94C507F0
:100060000C94C5070C94C5070C94C5070C94C507E0
:10007000810045005DFF5E1027FF2AD22B7D210CF9
:1000800022FB850084008903888D81096F02444228
:1000900047004501B083B300B10124B925578A1D3B
:1000A0008B035A55012001010038080000000000B0
:1000B0000000000000000000000000000000000040
:1000C0000000E10CE40C400D440D4B0DEC0CF10C68
:1000D000F60C530DF90CFC0CFF0C3A0D3D0D630DA5
:1000E00000408891D2E4ADB5B6BEBFFF0503001352
:1000F0001415161718191A1B1C1D1E1F00050400C5
:100100000102030405060708090A0B0C0D000E0F77
:1001100010111200000000000000000000000000AC
:1001200000000000000000000000000000000000CF
:1001300000000000000000000000000000000000BF
:1001400000000000000000000000000000000000AF
:10015000000000000000000000000000000000009F
:10016000000000000000000000000000000000008F
:1001700000004900000000004952520000004952AE
:10018000531C25004952522425251B52525C2D2D0B
:100190001C121200000000000000000000000040DF
:1001A00049494900404949525B5B5B4A52525B1CDA
:1001B0001C13125B1C241C12090909241B120909B7
:1001C00009090A0A0A0A0A0A0A0A130A0A120A0A80
:1001D00012130A0000000000000000925252525216
:1001E00052524913121309001C1B130A1212401B0E
:1001F00065641C090A0009241B1C65120000251CEB
:100200001C1C1C010025241C1C1C1C00242524244F
:10021000241C1C00000000000000004940000000F9
:1002200000000052494900000000001C5B4A4800E1
:100230000000001C255249000000006524644900AC
:1002400000000065256449000000006D2E5C490037
:10025000000000000000000000405200000000000C
:1002600049525C0000000053522425000000535204
:1002700025252500004A5225251B0000005B25137B
:1002800000001B005B53000A1C3737095B1C657FAD
:10029000372E2E522E2E1C131312002E251B131236
:1002A0000000121C1C12000012251C120000122E4D
:1002B000371C1300132E37361C131B37372E2E25F1
:1002C000131C1C2E2E2E2E1B1C1C1C6E6E6E1C1C3A
:1002D0001C1C1C09131312121313001313131313F2
:1002E0001C0009131313131C0100371313131C13E1
:1002F000002E2E1B1B1C1C001C772E1B1B25001305
:100300007F251C1C1C010A37241C1C1C130A2E25CB
:10031000250900132E2425252525252E25252525CF
:1003200025252525252D2E251B1C1C2E2E251C1391
:10033000251B13251C1C1C1C0109521C1C1300012D
:100340001C5B5C0A000165775C1B00016E7F6E52CE
:100350001B00006D1C5249000000001C13530000DC
:100360000000001C524A00000000005B5B0000001F
:100370000000005C00000000000000000000000021
:10038000000000000000000000000000000000006D
:10039000000000135B7F776E6E6E6E136577766E6E
:1003A0006E6E6E1B65777676766E771B5BBF76B664
:1003B00076767609136DBFB7B6B765001B125C760B
:1003C000BF766D0000121B125B5B5C000000000931
:1003D0000A12136E77241C1C1C1C1C77251C1C1C69
:1003E0001C24256E1C1C1C2425251B1C1C242525B7
:1003F000130000646D6D1B00096EBF6D5B09126E0A
:10040000BF6D5B5B125B645B121312131B1212094C
:100410000100001C242E1C0900096E25240100097E
:10042000767F7F000012777F7F641264BFBF775BA7
:10043000121B09BF6D5B121B09000012131B090080
:1004400000000009000000000000000000000000A3
:100450000000007F7F53131300000064121B010093
:100460000000001B1200000000000000000000005F
:10047000000000000000000000000000000000007C
:10048000000000000000000000000000000000006C
:100490000000000000000000000000260000002610
:1004A0000026262F0000002F000000370000003734
:1004B000000000FF000000FF000000BF000000BFC0
:1004C0000000BF370000370000370000262600007C
:1004D0000026260000000000000000262626002638
:1004E00026262600002F002F0000000037000037CE
:1004F000000000FF000000FFFFFFFF00000000BF42
:10050000000000000000003700000026262600261C
:1005100026262600000000000000002600262626D1
:1005200026000000002F0000002F00000037000010
:100530000037000000FFFFFFFF00000000BF0000C9
:1005400000BF0000003700000037002600262626E6
:100550002600000000000000000000000026262603
:10056000002600002F00002F002F0037000000376A
:10057000000037FF000000FF000000BF000000BFC8
:100580000000BF3700003700003700262626000095
:10059000002600000000000000000000002600000F
:1005A00000000000002F00000000000037000000E5
:1005B000000000FF0000000000000000BF0000007D
:1005C00000000000003700000000000000260000CE
:1005D000000000000000000000000000000000001B
:1005E000000000000000000000000000000000000B
:1005F0000000E400000000099BEDF60000009BA451
:10060000ADBFBF00529BA4767F7FB75B9B6D777FAA
:10061000766EB70000000000000000000000005BE4
:10062000B6F6F6005BF6FFFFFFFFBFF6FFFFFFFF2A
:10063000BFBFAEFFBFFFFFFFB7AD65BFBFFFFFB7D7
:10064000B6AD65B7BFFFFFBFB7AE6EB7BFFFFFBFA9
:10065000B7B7650000000000000000F6F6EDEDAD54
:10066000A4A49BB66D6D5C526E656465656552654C
:10067000766D255C5C52536E24656E6552526E2514
:100680002524255B52772D25252524526E6E2D2598
:1006900025252500000000000000009B4900000007
:1006A000000000A49B920000000000256493490014
:1006B000000000652E9B52000000006D2565520071
:1006C0000000006D2D6552000000006E2E64520087
:1006D000000000000000000000495B000000000076
:1006E0004A5B65000000005B9B6D2D0000005B5BBA
:1006F0002D2E250000525B2E2E1C0900015B2D1CA7
:1007000001091C005C5B014A65777F4A5B1C6E7FB8
:100710007777769B77776D656E6EA4776E65656586
:100720005BA4B725255C52526DBFBF130949647F96
:10073000BFBFBF095C7F7FBFBFB7BF7F7F777F7FB2
:10074000B7BFBF77777F7F6EB7BFBF777F7F6E778B
:10075000BFBFBFB6FFFFFFBFBFB75BBFFFFFFFBF9E
:10076000BFA464BFFFFFFFBFADA47FBFFFFFFFBFFC
:10077000A4BF7FFFFFFFBFADBFBFBFFFFFFFB6BF7F
:10078000BFBF77FFFFF7BFBFBF7777FFFFFFBFBFD9
:10079000BF64526D7F6E2E2D2D256E7F766E6E6E30
:1007A0002E2565777777762E1C25247F776E251C7E
:1007B000251C1B776525251C090A5B6E6E1C0949E3
:1007C0002564645B494A6E7F645C005377BF775B46
:1007D0005C00006E255B4A000000001C1B5B0000F3
:1007E000000000245B5300000000005B5C00000080
:1007F0000000006400000000000000000000000095
:1008000000000000000000000000000000000000E8
:100810000000005B5C7FBF777677775C6D7FB77792
:100820007777775C6D7FBF777777BF5C64BFBFBF3B
:10083000BFBF7F0A5C6EBFBFBFBF760065646DBF80
:10084000BFBFBF00005B6D646DADB600000000125D
:100850005B646D777F6E6E77BFBFBF7F766D767797
:10086000BFBFBF776D6E767FBFBFBF6D6E767FBF38
:10087000B7ADF676BFBF76A4ADFFFFBFB664ADFFE0
:10088000FFFFFFB6ADBFFFFFFFFFF6ADB6AD645B88
:10089000520000FFFFBFBFAD5B64BFFFFFB6ADAD51
:1008A000BFFFBFFFF6FFFFFFFFBF64FFFFFFFFBFFC
:1008B000B6765BFFFFFFBFBF5B0000FFFFFF5C0082
:1008C000000000A400000000000000000000000084
:1008D000000000BFBF645C5C0000006E5C65490006
:1008E0000000006D5B000000000000000000000040
:1008F00000000000000000000000000000000000F8
:1009000000000000000000000000000000000000E7
:100910000000000000001C090000000000020800A8
:10092000085504085A0000F8000990000A1E320514
:100930000000FFFFFFFFFFFFFFFFFFFFFFFFFFFFC5
:10094000FFFFFFFFFFFFFFFFFFFFFFFFFFFFFFFFB7
:10095000FFFFFFFFFFFFFFFFFFFFFFFFFFFFFFFFA7
:10096000FFFFFFFFFFFFFFFFFFFFFFFFFFFFFFFF97
:10097000FFFFFF000000000000000000000000007A
:100980000000000000000000000000000700000060
:10099000000700FF0707000007FF0707FF07000722
:1009A0000007FF00070007FF070700000700000718
:1009B0000007003F3F3F3F3F3F01003F2F3F2F3F9A
:1009C0003F01003F003F003F3F3F3F3F003F003FB0
:1009D0003F01003F3F3F3F3F3F3F3F3F3F00003F22
:1009E0003F01002F3F3F3F3F2F0000002F2F2F2FB1
:1009F00000000000013F3F3F3F3F3F00013F3F2FCE
:100A00003F2F3F3F3F3F3F003F003F00013F3F0040
:100A10003F003F3F3F3F3F3F3F3F3F00013F3F00E1
:100A2000003F3F00002F3F3F3F3F2F0000002F2F90
:100A30002F2F00000700000700070000070007FF36
:100A400007070007FF0700070007FFFF0707000071
:100A500007FF07000700000000070000000000007B
:100A60000000000000000000000000000000000086
:100A7000000000002F3F3F3F3F3F3F2F3F3F3F00E1
:100A8000002F3F2F3F003F3F3F3F3F2F3F003F00A2
:100A9000002F3F2F3F3F3F3F3F3F3F002F3F3F3F14
:100AA0003F3F3F0000013F013F01010000003F00C8
:100AB0003F00000000003F003F00000000013F0138
:100AC0003F0101002F3F3F3F3F3F3F2F3F3F3F3F11
:100AD0003F3F3F2F3F003F00002F3F2F3F003F3F52
:100AE0003F3F3F2F3F3F3F00002F3F002F3F3F3F03
:100AF0003F3F3FB1B1B1B1B1B1B1B1B1B1F6F6F66D
:100B0000F6B1F6B1F6B1B1B1B1F6B1B1F6B1F6F6F2
:100B1000B1F6B1B1F6B1F6F6B1F6B1B1F6B1B1B127
:100B2000B1F6B1B1B1F6F6F6F6B1F6B1F6B1B1B1D2
:100B3000B0F6B0B0B0B0B0B0B0B0B0F6F6F6F6F611
:100B4000F6F6F6B0B0B0B0B0B0B0B0B0F6F6B0B047
:100B5000F6F6B0B0F6F6B0B0F6F6B0B0B0B0B0B0F1
:100B6000B0B0B0F6F6F6F6F6F6F6F6B0B0B0B0B055
:100B7000B0B0B0B0B1B1B1B1B1B1B1F6B1F6F6F655
:100B8000F6B1B1B1F6B1B1B1B1F6B1B1F6B1F6F6B7
:100B9000B1F6B1B1F6B1F6F6B1F6B1B1F6B1B1B1A7
:100BA000B1F6B1F6B1F6F6F6F6B1B1B1F6B1B1B152
:100BB000B0F6B0B0F6B0B0B0B0F6B0B0F6B0F6F691
:100BC000B0F6B0B0F6B0F6F6B0F6B0B0F6B0B0B081
:100BD000B0F6B0B0F6B0B0B0B0F6B0B0F6B0F6F671
:100BE000B0F6B0B0F6B0F6F6B0F6B0B0F6B0B0B061
:100BF000B0F6B0000000000000000000000000009F
:100C000000000000000000000000000000000000E4
:100C100000000000000000000000000000000000D4
:100C200000000000000000000000000000000000C4
:100C3000000000B1F6B1B1B1B1F6B1B1B1F6F6F65E
:100C4000F6B0F6B1F6B1B1B1B1F6B0B1F6B1F6F6B3
:100C5000B0F6B0B1F6B1F6F6B0F6B0B1F6B1B0B1EB
:100C6000B1F6B0B1B1F6F6F6F6B0F6B1B1B1B1B1D8
:100C7000B0B0B0B1F6B1B1B1B1F6B1F6B1F6F6F6C9
:100C8000F6B1B1B1F6B1B1B1B1F6B1B1F6B1F6F6B6
:100C9000B1F6B1B1F6B1F6F6B1F6B1B1F6B1B1B1A6
:100CA000B1F6B1F6B1F6F6F6F6B1B1B1B1B1B1B196
:100CB000B0B0B0B0F6B1B1B1B1F6B1F6B1F6F6F68A
:100CC000F6B1B1B1F6B1B1B1B1F6B1B1F6B1F6F676
:100CD000B1F6B1B1F6B1F6F6B1F6B1B1F6B1B1B166
:100CE000B1F6B1F6B1F6F6F6F6B1B1B1B1B1B1B156
:100CF000B0B0B0B0F6B1B1B1B1F6B1B1B1F6F6F68F
:100D0000F6B1F6B1F6B1B1B1B1F6B1B1F6B1F6F6F0
:100D1000B1F6B1B1F6B1F6F6B1F6B1B1F6B1B1B125
:100D2000B1F6B1B1B1F6F6F6F6B1F6B1B1B1B1B115
:100D3000B0B0B0010102010103010106010105018A
:100D4000010401010106060808080809000B0B0B45
:100D50000B0A000B0B0B0B0F080B0B0B0B0B0B0BEE
:100D60000B0B0B0708080808080E00090600000016
:100D70000A0B0C0808090708080D0B0B0B0B0A0AD5
:100D80000B0B0B0B0B0B0B0A0A0B0B0B0B0B0B0BB5
:100D90000A0A0B0B0B0B0B0B0B0A0A0B0B0B0B0BA7
:100DA0000B0B0A080607080808080809000A0B0BBD
:100DB0000B0B0B0A000A0B0B0B0B0B0F080A0B0B90
:100DC0000B0B0B0B0B0A0B0B0B0B0B07080F08087D
:100DD0000808080E0003040808090B0B0F090B0B89
:100DE0000F08080B08000007080808080808080989
:100DF00000000A0B0B0B0B0B0B0B0A00000A0B0B72
:100E00000B0B0B0B0B0A08080E0B0B0B0B0B0B0B36
:100E10000A0B0B0B0B0B0B0B0B0B0B0A0808080830
:100E200008090B0708080E00000000000A0B0A0062
:100E3000000000000000000A0B0A0000000904077F
:100E400008080808080E0B0A0A0B0B0B0B0B0B0B00
:100E50000A0A0B0708080808080E0A0B0A00000017
:100E600000000009090000000A0B0C080809070827
:100E7000080D0B0B0B0B0A0A0B0B0B0B0B0B0B0AC6
:100E80000A0B0B0B0B0B0B0B0A0A0B0B0B0B0B0BB5
:100E90000B0A0A0B0B0B0B0B0B0B0A0A0B0B0B0BA6
:100EA0000B0B0B0A0A0B0B0B0B0B0B0B0A0F080897
:100EB00008080808080E11241FBECFEFD0E1DEBFDE
:100EC000CDBF12E0A0E0B1E0E8EDF5E302C005908F
:100ED0000D92A839B107D9F72FE0A8E9B2E001C017
:100EE0001D92A93DB207E1F714BE0FB6F894A8957C
:100EF00080916000886180936000109260000FBE56
:100F0000F89480E790E0FC0125913491F901FF27E6
:100F10003083029620E0823A9207A9F70E94C80C1B
:100F2000811102C00E94A60C81E08093360F80934D
:100F3000370F8093350F1092220F1092280F1092C6
:100F40002E0F1092340F10923A0F1092F00E109252
:100F5000F20E92E19093F10E90EE9093F80E94E1E0
:100F60009093F70E1092FC0E1092FB0E1092000F51
:100F70001092FF0E8093210F0E94D11778940E9447
:100F800037180E94F5190C94EA1A0C94000003E833
:100F90000A95F1F700C00091E00EECE7FEE023E0D7
:100FA000029FE00DF11D2091DF0E3CE3321B300F5C
:100FB000201751F000000000A191B1911C911193F4
:100FC0000C9303950217C0F313E01A95F1F700C0D4
:100FD0003A95D1F7C0EAD2E0662717E01A95F1F703
:100FE00000C04091EE0E5091EF0E6090EA0E7090AE
:100FF000EB0ED3015E01762F00C03091ED0E303044
:1010000009F0C8EE09F0D5E009F0DA0115E01A950B
:10101000F1F78090F80E07E00093360001E00093AE
:10102000810001E000936F0008E0609F8D01005493
:101030001840000D111D18010CE316E0000D111DE4
:10104000280100E4E02E03E31AEFCF93DF935991D8
:1010500000C000C01FD32CE02A95F1F71093850043
:1010600000938400789400275E9D5132F10108F4CA
:10107000F201001FE00DF11D1AE01A95F1F70000D2
:10108000112700FF02C0000065C048C018B90F90CA
:101090000F90DF91CF9103E00A95F1F700C06395BF
:1010A0008A94B1F0683029F007E00A95F1F700C0A2
:1010B000BBCF66276E960491049100C03A9509F45F
:1010C000672F09F4E50100C000C009F4D301ACCFDB
:1010D00020E12A95F1F700E0009385000CE20093EF
:1010E0008400D8D211240E94EF09E091F20E42E070
:1010F000E160E427E093F20E07E00093360009E098
:101100000093810002E000936F000895059108B9F3
:10111000020C0000059108B9131CF001059108B9F3
:1011200000C0059108B94991059108B900C0059121
:1011300008B94E9D059108B941320000059108B9E2
:1011400028F70000059108B9040C0000059108B9C2
:10115000151CF0010000019108B9499100000191AE
:1011600008B900004E9D019108B90491019108B998
:101170000491019108B9413200C0019108B950F4BD
:101180000000040C019108B9151C00000191F00148
:1011900008B9E0CF020C019108B9131C00000191BD
:1011A000F00108B9BBCF20E4E091EA0EF091EB0E1C
:1011B000829FE00DF11DACE3B6E0629FA00DB11D72
:1011C00015901D9215901D9215901D9215901D92CF
:1011D00015901D9215901D9215901D9215901D92BF
:1011E00015901D9215901D9215901D9215901D92AF
:1011F00015901D9215901D9215901D9215901D929F
:1012000015901D9215901D9215901D9215901D928E
:1012100015901D9215901D9215901D9215901D927E
:1012200015901D9215901D9215901D9215901D926E
:1012300015901D9215901D9215901D9215901D925E
:1012400015901D9215901D9215901D9215901D924E
:1012500015901D9215901D9215901D9215901D923E
:1012600015901D9215901D9215901D9215901D922E
:1012700015901D9215901D9215901D9215901D921E
:1012800015901D9215901D9215901D9215901D920E
:1012900015901D9215901D9215901D9215901D92FE
:1012A00015901D9215901D9215901D9215901D92EE
:1012B00015901D9215901D9215901D9215901D92DE
:1012C0001124089520E4ECE3F6E0829FE00DF11D87
:1012D000ACE3B6E0629FA00DB11D11901D9211907C
:1012E0001D9211901D9211901D9211901D921190BE
:1012F0001D9211901D9211901D9211901D921190AE
:101300001D9211901D9211901D9211901D9211909D
:101310001D9211901D9211901D9211901D9211908D
:101320001D9211901D9211901D9211901D9211907D
:101330001D9211901D9211901D9211901D9211906D
:101340001D9211901D9211901D9211901D9211905D
:101350001D9211901D9211901D9211901D9211904D
:101360001D9211901D9211901D9211901D9211903D
:101370001D9211901D9211901D9211901D9211902D
:101380001D9211901D9211901D9211901D9211901D
:101390001D9211901D9211901D9211901D9211900D
:1013A0001D9211901D9211901D9211901D921190FD
:1013B0001D9211901D9211901D9211901D921190ED
:1013C0001D9211901D9211901D9211901D921190DD
:1013D0001D9211901D9211901D9211240895E0917B
:1013E000E00E8E2FEE0FE80FFF27E458F14F00902C
:1013F000DF0E801930F4A191B19101900C92839588
:10140000D1F7089598E0799FA12DBB27AE51B14F38
:10141000ED91FD9190E4699FE00DF11D899FD00150
:10142000A45CB94F90E040FD09C0822F48E0421B08
:1014300070FF0AC01796E80FF91F08C088E0821BEA
:10144000422F70FFF8CF1197A20FB91F68E028E074
:10145000231B50FD09C0639FA00DB11D71FDE85C09
:1014600071FDFF4F122E08C0132E1A9471FF122E19
:10147000619DE00DF11D132E71FD409770FD05C0BB
:1014800057EF540F70E061E004C059EF541B7FEF39
:101490006FEF3EEF042E469530F461F02591231353
:1014A0002C93A60FB71F259123132C93A60FB71FBC
:1014B0004150A1F7259123132C931A9449F0E80F7A
:1014C000F91FA51BBF4F402D469568F739F7F2CF9E
:1014D00008950F921F92EF93FF93FFB7E09184005E
:1014E000FF93E2FD04C0E1FD02C0000000C0E0FF88
:1014F00000C0E091F10EEA95E093F10EF091F00E4C
:10150000F0FD51C0EC3098F0F3E0F0938900FDE875
:10151000F0938800E0FB289826F4E1E00E945B0B42
:10152000B2C0E5E1EA95F1F70000289AACC0E630D8
:1015300008F100C000C02898E0FBE4E016F40E9427
:101540005B0BE4E0E0933600E6E0E0936F009BC0C5
:10155000EF93E0918400E2FD04C0E1FD02C00000D1
:1015600000C0E0FF00C0E2E00000289AE0936F00B6
:10157000EF91189500C0E0FB289826F4E1E00E9466
:101580005B0B05C0E5E1EA95F1F70000289AE091D0
:10159000F10EE03009F077C0EDEFE093F10EE1E0FD
:1015A000E093F00E70C0E7E0E0938900EBE1E09398
:1015B000880000C02898E2E000C00E945B0BFDEFAD
:1015C0000090F70EF019E091F10EEF17D8F4FDEF4F
:1015D0000090F70EF0190090F80EF019EF1790F048
:1015E000EDE1FF2700800F92EA95E1F70DE00A9503
:1015F000F1F700C00E94C707E1E0FF270F900192BA
:10160000EE31E0F3E091F10EE03009F03CC02F93B1
:101610003F934F935F936F937F938F939F93AF937A
:10162000BF9378941124EE27E093F00EE2E1E0936B
:10163000F10E8091010F9091020F01968093010F9E
:101640009093020FE091F30EF091F40EE115F10585
:1016500009F009950E94960C0E9494180E94550B5F
:101660001124E091F50EF091F60EE115F10509F067
:101670000995BF91AF919F918F917F916F915F91EC
:101680004F913F912F91EF91EFBFFF91EF911F90FD
:101690000F9018952898E2E000C00E945B0BE09143
:1016A000F10EEA95E093F10E0895E091210FE0FD2F
:1016B0000E94DD0E08952F931F930F932E2F1091EC
:1016C000250FE091260FF091270F0091230F100FA7
:1016D0000091240FE01F0491E093260F1093250F33
:1016E0001091220F0103000810912B0FE0912C0F95
:1016F000F0912D0F0091290F100F00912A0FE01F7C
:101700000491E0932C0F10932B0FF0011091280FF0
:10171000010300081F0E1091310F20FD289A0E1EA4
:10172000E091320FF091330F00912F0F100F0091C5
:10173000300FE01F0491E093320F1093310FF0014E
:1017400010912E0F010300081F0E0E1E0091360F80
:101750001091370FF091340FF695889400FDF195B4
:10176000EE0B1F0E0E1EE091380FE25020F0E491B8
:10177000E491E4910AC0E02F16950795E027E0FB7D
:1017800016F9E091350FE0FF06F90093360F10933C
:10179000370FE093380F10E0E0913D0FF0913B0FD1
:1017A00021FD289AEF0FE0933D0FE0913E0FF0915D
:1017B0003F0F00913C0FE01FF11F0091420F10916D
:1017C000430FE017F10718F4049100C006C0009120
:1017D000400F1091410FE01BF10BE0933E0FF0938F
:1017E0003F0F0491F00110913A0F010300081F0E02
:1017F0000E1EF0010F911F91F058EF4F1AF4F0E018
:10180000000003C0E03009F0FFEFF093B3002F9128
:1018100008958093E20E9093E30E0895E8E4F3E0D8
:10182000A0EAB2E061E26D933197E9F711240895DF
:10183000992777272EE1629F080E191EA0EAB2E0D1
:10184000A00DB11D4F5D4C93112408958093EA0EB5
:101850009093EB0E08958091F20E8170089520917F
:10186000F20E2E7F2093F20E0895882329F48091A2
:10187000F90E9091FA0E08958091FD0E9091FE0E52
:101880000895E0E6F0E0808183FD089588E198E026
:10189000F894808390837894FFCFF999FECF92BD1E
:1018A00081BD60BDF894FA9AF99A78940895F999EF
:1018B000FECF92BD81BDF894F89A80B578940895D2
:1018C000129AC895C895C895C895129840E190E0BD
:1018D00080E030E020E03695279596958795C8956D
:1018E000C895C895C8951398009B3068019B90686F
:1018F000139AC895C895C895C895415061F730931B
:10190000FA0E2093F90E9093FE0E8093FD0E8091B7
:10191000F90E9091FA0E0F9731F08091FD0E909193
:10192000FE0E0F9711F40C94410C08951092440F81
:10193000009903C081E08093440F019905C0809114
:10194000440F82608093440F0C94600CCF93DF931C
:10195000D0E0C0E0FE01EE55FF4F6491CE010E9441
:101960004D0C2196C032D105A9F7C0E2D0E06FEF4F
:10197000CE010E944D0C6FEFCE0101960E944D0CDE
:10198000A096C11588E0D80791F7DF91CF9108950F
:10199000CF93DF9390E080E00E94570CC82F81E046
:1019A00090E00E94570C90E0982F8827C80FD92FFD
:1019B000D11D81E0CA35D54509F080E0DF91CF9196
:1019C0000895FC0167870895E2E2FFE081E091E07D
:1019D000958B848B638B0895FC0190819F75908318
:1019E0000895FC019081906490830895FC016687BE
:1019F0000895FC0162870895FC0163870895CF93E1
:101A0000DF93EC01262F3981832F90E0FC01EE0F4C
:101A1000FF1FE853FE4D45915491FC01E60FF11D67
:101A200067FDFA95EE0FFF1FE853FE4D85919491E7
:101A3000841B950B688570E00E94D61A61157105AC
:101A400011F461E070E0EA8186E0E89FF001112482
:101A5000EE5DF04F81819281860F971F9283818383
:101A60007E836D83888188608883230F2F83DF9135
:101A7000CF910895FC0160870895FC016483089567
:101A8000FC0182810C94C710FC018181680F618385
:101A900082810C94B010FC019181961B692F918377
:101AA00082810C94B0101F93CF93DF93EC01162F1B
:101AB0008A810E94B01019838881877F8883DF9193
:101AC000CF911F910895CF93DF93EC018C818823F0
:101AD000A1F02D893E89662399F0062E000C770B24
:101AE0006F5F7F4FAB01440F551F640F751F261B9F
:101AF000370B3E8B2D8B81508C83DF91CF910895D6
:101B000023503109F9013297E491ED3091F3EF3F21
:101B1000B9F7EFCF9093BD0F8093BC0F8FE6809302
:101B2000BF0F1092200FE7E4FFE080E090E13FEF6D
:101B300028E18283908315863487108A23879087D3
:101B40008F5F77968530A9F70895CF93DF93EC01E7
:101B5000E881F981CF01019699838883949197FD5B
:101B600005C0892F90E0DF91CF9108959F77892F4D
:101B700090E09F012E5F3F4F9695982F882797956D
:101B80008795522F432FF9013197E4916E2F6F778C
:101B9000860F911D2F5F3F4FE7FDEECF588349839E
:101BA000E2CFFF920F931F93CF93DF93EC01162F99
:101BB000022FF8801F868FEF8E874D871C8A9F2DFE
:101BC000977B988329831A8619861C828B838A8146
:101BD000833031F5F7FC062F81E091E09093370FC9
:101BE0008093360F81E08093350F102FF7FE52C09F
:101BF000198BE091BC0FF091BD0F89E0189FE00DAB
:101C0000F11D1124339685919491009709F044C0F9
:101C10001E8A1D8ADF91CF911F910F91FF90089529
:101C2000843009F031C010923D0F8091BC0F90912B
:101C3000BD0F29E0629F800D911D1124FC0131969A
:101C40004591549150933F0F40933E0F9C01295F63
:101C50003F4FF901659174910596FC01859194912E
:101C6000681B790B7093410F6093400FF9018591C8
:101C70009491480F591F5093430F4093420F602F88
:101C800084E00E94B010B2CF60E00E94C710602FC5
:101C90008A81F7CF188BADCF1B8AFC0124912A8B48
:101CA00001969E8B8D8BB6CFCF93DF93E091BC0FC7
:101CB000F091BD0F99E0899FE00DF11D1124E49191
:101CC000C3E0E130F1F0C4E0E230D9F090915E0F72
:101CD00097FF16C090916F0F981302C0411110C06A
:101CE0009091750F97FF23C09091860F981302C0B3
:101CF00041111DC02091720F9091890F9217B8F475
:101D0000C1E097E1C99FE0011124C95BD04F90E881
:101D100098831E8A1D8A20E5462F682FCE010E94D7
:101D2000D10D888180628883DF91CF910895C2E0D0
:101D3000E8CFCF93DF93A82FB0E097E1899FF00120
:101D40001124E95BF04F908195FF02C097FD19C007
:101D500021111AC087E18A9FF0018B9FF00D112499
:101D6000E95BF04F8785811102C096FF158687E1F8
:101D70008A9FF0018B9FF00D1124E95BF04F9F7B50
:101D80009083DF91CF910895322F242F97E19A9F6E
:101D9000E0019B9FD00D1124C95BD04F18821E8A91
:101DA0001D8A899FC0011124432F895B904F0E9497
:101DB000D10D888180628883E4CFEF92FF920F93E8
:101DC0001F93CF93DF93C7E4DFE002E21FE0C80177
:101DD000DE01FD014785442389F02685042E000C91
:101DE000550B240F352F311D2F3F310519F014F0FD
:101DF0002FEF30E037FD20E0FD0126876C9163FF77
:101E00001CC0FD0145815681FC0121813281240FD6
:101E1000351F32832183FD017781E72FF0E0EE0F3C
:101E2000FF1FE853FE4DE590F490141615060CF0D4
:101E3000CEC02E153F0508F0D1C057960696FFE09C
:101E4000AA3BBF0731F68091200F882381F187E1FB
:101E5000F82E8091BA0F9091BB0F2091C00F309156
:101E6000C10F82179307F1F42091C30F3091C40F73
:101E7000B9016F5F7F4F7093C40F6093C30FF90177
:101E800044914F3F09F0DBC0A9014E5F5F4F509373
:101E9000C40F4093C30FFB0164916F3209F0A4C0DB
:101EA0001092200F01969093BB0F8093BA0FEE24EF
:101EB000EA94F12C888185FF1CC02D893E89232B53
:101EC000C1F086FD16C09B898A89981310C0ED89E0
:101ED000FE89BF016F5F7F4F7E8B6D8B84918F3F3B
:101EE00009F020C188818F7788831E8A1D8A9F5FB1
:101EF0009B8B988180E095FF59C08C898F3F11F0B2
:101F00008F5F8C8B97FD28C19C858D8529858823C3
:101F100009F424C16E85662309F420C1992309F4CC
:101F20001DC13091BF0F332309F418C1899FC0012F
:101F300011249395892F9927689FA001699F500DBF
:101F40001124CA0193956B81892F9927689FA0015D
:101F5000699F500D11245395452F5527349FC0017B
:101F6000359F900D11249395892F99273A85332316
:101F7000D1F0E22FF0E0E050FD4DE491E058E39F16
:101F8000F0011124F395EF2FFF27B7016E1B7F0B94
:101F9000689FA001699F500D789F500D1124CA01C0
:101FA0009395892F99273B85230F2987F8018083F3
:101FB00067960A5F1F4FFFE0CA3BDF0709F07ACF41
:101FC000DF91CF911F910F91FF90EF900895452BD6
:101FD00009F433CFE216F30608F42FCFFC01F282A6
:101FE000E182677F6C9329CF663089F4FA014491CE
:101FF000C90104969093C40F8093C30FF9013396DF
:10200000E491E33589F49093C60F8093C50F83EC78
:102010009FE00E94A50D9093C10F8093C00F109276
:10202000BB0F1092BA0F15CFE53489F78091C50F19
:102030009091C60F9093C40F8093C30FE8CF47FDD4
:102040004093BE0F9091BE0F892F8F7047FF08C03D
:102050002E5F3F4F3093C40F2093C30FFB01449179
:10206000907F903BD9F0903C09F455C0903979F6B7
:10207000E091C30FF091C40F9F012F5F3F4F30934A
:10208000C40F2093C30F2491220FF89EF001112456
:10209000E95BF04F60890E94990EB9CFE091C30FC0
:1020A000F091C40F9F012F5F3F4F3093C40F2093D7
:1020B000C30FE491473051F4F89EC0011124895BAD
:1020C000904F2E2F220FFC012487A1CF4B3051F4CB
:1020D000F89EC0011124895B904F2E2F220FFC0126
:1020E000238395CF4C3551F4F89EC0011124895BB0
:1020F000904F2E2F220FFC01228789CF443609F002
:1021000086CFF89EC0011124895B904F2E2F220F9D
:10211000FC0123877CCFF89EF0011124E95BF04F8E
:10212000408B75CF3296FE8BED8BFB016491E82FCF
:10213000F0E0EE0FFF1FEE53FF4F25913491CE01DB
:10214000F9010995ED89FE89CF0101969E8B8D8B52
:10215000E491EA8B1B8AB7CE9FEFD7CE80E023CFE6
:1021600099277727833009F40895E8ECF1E2660FA8
:10217000771FE60FF71FA591B491E2E2FFE026E09A
:10218000289FE00DF11DA183B283112408959927A2
:102190007727E2E2FFE026E0289FE00DF11D6E3F89
:1021A00031F46091350F6E7F6093350F0BC06F3F38
:1021B00031F46091350F6E6F6093350F03C073E299
:1021C000760F75831124089522002400260028002C
:1021D0002B002D0030003300360039003D00400058
:1021E000440048004C00510056005B00600066004F
:1021F0006C00730079008100880090009900A200B3
:10220000AC00B600C100CC00D800E500F30001012D
:10221000100121013201440157016C018101980133
:10222000B001CA01E50102022102410264028802F2
:10223000AE02D7020303300361039403CB0305040A
:1022400042048304C70410055D05AF050506610659
:10225000C206290796070908830805098E09200A7E
:10226000BA0A5D0B0A0CC10C840D510E2B0F121013
:1022700007110A121D1340147415BA161418831985
:10228000071BA31C571E24200E22142439267F2846
:10229000E82A752D293006330F364539AD3C4940C3
:1022A0001B442848734CFE50CF55EA5A51600C66C7
:1022B0001D6C8B725A79928037885090E598FDA1F9
:1022C0009FABD3B5A3C000000000000000000000D9
:1022D00000000000000000000000000000000000FE
:1022E00000000000000000000000000000000000EE
:1022F00000000000000000000000000000000000DE
:10230000000306090C101316191C1F2225282B2E5A
:10231000313336393C3F414447494C4E515355586F
:102320005A5C5E60626466686A6B6D6F707173742C
:10233000757678797A7A7B7C7D7D7E7E7E7F7F7FE5
:102340007F7F7F7F7E7E7E7D7D7C7B7A7A797876CB
:1023500075747371706F6D6B6A68666462605E5CE1
:102360005A585553514E4C494744413F3C393633F6
:10237000312E2B2825221F1C191613100C090603B9
:1023800000FDFAF7F4F0EDEAE7E4E1DEDBD8D5D2C0
:10239000CFCDCAC7C4C1BFBCB9B7B4B2AFADABA88B
:1023A000A6A4A2A09E9C9A9896959391908F8D8CAE
:1023B0008B8A8887868685848383828282818181D5
:1023C0008181818182828283838485868687888ACF
:1023D0008B8C8D8F9091939596989A9C9EA0A2A499
:1023E000A6A8ABADAFB2B4B7B9BCBFC1C4C7CACD64
:1023F000CFD2D5D8DBDEE1E4E7EAEDF0F4F7FAFD81
:10240000808182838485868788898A8B8C8D8E8F54
:10241000909192939495969798999A9B9C9D9E9F44
:10242000A0A1A2A3A4A5A6A7A8A9AAABACADAEAF34
:10243000B0B1B2B3B4B5B6B7B8B9BABBBCBDBEBF24
:10244000C0C1C2C3C4C5C6C7C8C9CACBCCCDCECF14
:10245000D0D1D2D3D4D5D6D7D8D9DADBDCDDDEDF04
:10246000E0E1E2E3E4E5E6E7E8E9EAEBECEDEEEFF4
:10247000F0F1F2F3F4F5F6F7F8F9FAFBFCFDFEFFE4
:10248000000102030405060708090A0B0C0D0E0FD4
:10249000101112131415161718191A1B1C1D1E1FC4
:1024A000202122232425262728292A2B2C2D2E2FB4
:1024B000303132333435363738393A3B3C3D3E3FA4
:1024C000404142434445464748494A4B4C4D4E4F94
:1024D000505152535455565758595A5B5C5D5E5F84
:1024E000606162636465666768696A6B6C6D6E6F74
:1024F000707172737475767778797A7B7C7D7E7F64
:1025000000020406080A0C0E10121416181A1C1EDB
:1025100020222426282A2C2E30323436383A3C3ECB
:1025200040424446484A4C4E50525456585A5C5EBB
:1025300060626466686A6C6E70727476787A7C7EAB
:102540007F7D7B79777573716F6D6B69676563618B
:102550005F5D5B59575553514F4D4B49474543417B
:102560003F3D3B39373533312F2D2B29272523216B
:102570001F1D1B19171513110F0D0B09070503015B
:10258000FFFDFBF9F7F5F3F1EFEDEBE9E7E5E3E14B
:10259000DFDDDBD9D7D5D3D1CFCDCBC9C7C5C3C13B
:1025A000BFBDBBB9B7B5B3B1AFADABA9A7A5A3A12B
:1025B0009F9D9B99979593918F8D8B89878583811B
:1025C00080828486888A8C8E90929496989A9C9E1B
:1025D000A0A2A4A6A8AAACAEB0B2B4B6B8BABCBE0B
:1025E000C0C2C4C6C8CACCCED0D2D4D6D8DADCDEFB
:1025F000E0E2E4E6E8EAECEEF0F2F4F6F8FAFCFEEB
:102600007F7F7F7F7F7F7F7F7F7F7F7F7F7F7F7FDA
:102610007F7F7F7F7F7F7F7F7F7F7F7F7F7F7F7FCA
:102620007F7F7F7F7F7F7F7F7F7F7F7F7F7F7F7FBA
:102630007F7F7F7F7F7F7F7F7F7F7F7F7F7F7F7FAA
:102900000309131E28313A40464C5054585B5E610F
:10291000636567696B6C6E6F7071727374757677CF
:10292000777879797A7A7B7B7C7C7C7D7D7D7E7EF5
:102930007E7E7F7F7F7F7F7F7F7F7F7F7F7F7F7FA9
:102940007F7F7F7F7F7F7F7F7F7F7F7F7F7E7E7E9A
:102950007E7D7D7D7C7C7C7B7B7A7A7979787777CC
:10296000767574737271706F6E6C6B696765636195
:102970005E5B5854504C46403A31281E1309030000
:10298000C6CCD5DBDFE3E5E7E9EAEBECEDEEEFEF14
:10299000F0F0F0F1F1F1F1F2F2F2F2F2F2F2F2F320
:1029A000F3F3F3F3F3F3F3F3F3F3F3F3F3F3F3F3F7
:1029B000F3F3F3F3F3F3F3F3F3F3F3F3F3F3F3F3E7
:1029C000F3F3F3F3F3F3F3F3F3F3F3F3F3F3F3F3D7
:1029D000F3F3F3F3F3F3F3F3F3F3F3F3F3F3F3F3C7
:1029E000F2F2F2F2F2F2F2F2F1F1F1F1F0F0F0EFD4
:1029F000EFEEEDECEBEAE9E7E5E3DFDBD5CCC60093
:102A000000283D42302D2C2B2C2D2E2F30323335EB
:102A100037393B3D3F414345484A4C4E505355574B
:102A2000595B5D5F61636567696B6C6E7071737430
:102A3000757778797A7B7C7D7D7E7E7F7F7F7F7FD7
:102A40007F7F7F7F7F7F7E7E7D7D7C7B7A797877BD
:102A500075747371706E6C6B69676563615F5D5BE4
:102A600059575553504E4C4A484543413F3D3B39D9
:102A700037353332302F2E2D2C2B2C2D30423D2844
:102A800000E9E5FED4D7D7D7D6D4D2D0CECCCAC8A9
:102A9000C6C3C1BFBDBAB8B6B4B1AFADABA9A7A5E7
:102AA000A3A19F9E9C9A999795949391908F8D8CBA
:102AB0008B8A8988888786858584848483838383B9
:102AC0008383838383848484858586878888898AB1
:102AD0008B8C8D8F909193949597999A9C9E9FA1A2
:102AE000A3A5A7A9ABADAFB1B4B6B8BABDBFC1C3BA
:102AF000C6C8CACCCED0D2D4D6D7D7D7D4FEE5E973
:102B0000F9F8F9F5EBE1DDDEE0E2E4E5E6E5E4E243
:102B1000DED9D2CAC1B7ACA299918A86838180805E
:102B20008182838586888A8C8D8F909293959697E3
:102B300098999A9B9B9C9D9D9D9E9E9E9F9F9F9FCB
:102B40009F9F9F9E9E9E9D9D9D9C9B9B9A999897C3
:102B500096959392908F8D8C8A88868583828180CA
:102B6000808183868A9199A2ACB7C1CAD2D9DEE2AC
:102B7000E4E5E6E5E4E2E0DEDDE1EBF5F9F8F900B5
:102B80000708070B151F2322201E1C1B1A1B1C1EC7
:102B900022272E363F49545E676F767A7E7F7F7F8D
:102BA0007F7E7D7B7A7876747371706E6D6B6A69E7
:102BB00068676665656464636362626261616161DE
:102BC00061616162626263636364656566676869C7
:102BD0006A6B6D6E7071737476787A7B7D7E7F7FA1
:102BE0007F7F7E7A766F675E54493F362E27221E9E
:102BF0001C1B1A1B1C1E2022231F150B0708070075
:102C00001F313D444E5354565A5F64696E74767951
:102C10007C7F7F7F7F7F7F7F7F7F7F7F7F7F7F7FC7
:102C20007F7F7F7F7F7F7F7F7F7F7F7F7F7F7F7FB4
:102C30007F7F7F7F7F7F7F7F7F7F7F7F7F7F7F7FA4
:102C40007F7F7F7F7F7F7F7F7F7F7F7F7F7F7F7F94
:102C50007F7F7F7F7F7F7F7F7F7F7F7F7F7F7F7F84
:102C60007F7F7F7F7F7F7F7F7F7F7F7F7F7F7F7F74
:102C70007F7F7F7F7F7F7F7F7F7F7F7C7871684CC6
:102C80002C1C120C0A0B0A05FDF3E9DFD4CAC0B7ED
:102C9000AEA69E97918B8685828080808080808082
:102CA0008080808080808080808080808080808024
:102CB0008080808080808080808080808080808014
:102CC0008080808080808080808080808080808004
:102CD00080808080808080808080808080808080F4
:102CE00080808080808080808080808080808080E4
:102CF000808080808087919DACC4CBD4DDF2FAFACD
:102D00002F923F924F925F926F927F928F929F92FB
:102D1000AF92BF92CF92DF92EF92FF920F931F93E9
:102D2000CF93DF9300D000D0CDB7DEB78091000104
:102D3000882309F4C0C08091E10E8093E00E809357
:102D4000DF0E28EE35E03C832B83EB81FC81638032
:102D500062FC87C0908188E0890F8695869586956C
:102D600081508A83977009F49FC0F2E0F983EB8168
:102D7000FC81818158E0552E580E569456945694F5
:102D80005A94877022E009F421E0712C762C662495
:102D9000EB81FC813281630E711C082F10E0102F33
:102DA0000027090F111D252C220EB12CA12CFBE1AF
:102DB000F51508F452C02EE1529E400111243A80CC
:102DC000D12CC12C3DE1331508F43FC0C401830D63
:102DD000911DFC01E056FD4F7F0140808091E00E87
:102DE000481618F0F0E2F41520F56091DF0E61321C
:102DF000E8F420E2241508F05AC08FED840D0E94FB
:102E0000D3088091DF0E282F30E0F901EE0FFF1F6D
:102E1000E20FF31FE458F14FF182E0824282F701A2
:102E2000808391E0980F9093DF0E482EF0E2F41526
:102E300060F08091E00E481640F09801A5014C0D1D
:102E40005D1DB301842D0E94020A2FEFC21AD20A1F
:102E500033943981C31608F4B5CF5394B394521008
:102E6000A6CFEB81FC813496FC83EB832CE336E028
:102E70002E173F0709F069CF0F900F900F900F901A
:102E8000DF91CF911F910F91FF90EF90DF90CF9046
:102E9000BF90AF909F908F907F906F905F904F907A
:102EA0003F902F900C94EF0921E0298360CF842D6F
:102EB0000E946209A6CF0F900F900F900F90DF91A4
:102EC000CF911F910F91FF90EF90DF90CF90BF9027
:102ED000AF909F908F907F906F905F904F903F90BA
:102EE0002F900895CF92DF92EF92FF920F931F934E
:102EF000CF93DF93FB01549131969491BFEFB50FBF
:102F00001FEF40FD02C011E0B0E02FEF290F0FEFDF
:102F100041FD02C001E020E0A0E0A91701F1250376
:102F2000E0011124D82ED50E3B2F14C0FE01E30F73
:102F3000F11D37FDFA953296E60FF71FC490F4E0C5
:102F40008F9F70011124F701E851FA4FC2828F5F01
:102F50004383310F8D11EACF200FAF5FDECFDF91BA
:102F6000CF911F910F91FF90EF90DF90CF90089538
:102F70000F9330E0301799F0582F520F962F0AC058
:102F800074E0879FF0011124E851FA4F9083418348
:102F90008F5F985F8513F4CF3F5F485FEBCF0F9152
:102FA0000895E8EEF5E090EF80EE9083818334960B
:102FB00026E0EC33F207C9F71092DF0E1092E10E13
:102FC00008958F929F92AF92BF92CF92DF92EF922D
:102FD000FF920F931F93CF93DF93882ED62F8A01F2
:102FE000FA0194903196C491C92CD12CC60FDC13F0
:102FF00020C0DF91CF911F910F91FF90EF90DF9054
:10300000CF90BF90AF909F908F900895F501EE0DF7
:10301000FF1D449150E06D2F882D8E0D0E94180CDD
:10302000FFEFEF1AFF0AE91488F30C0D1D1DDF5F97
:10303000DECFF12CE12C580182E0A80EB11CF3CFB9
:103040000F931F93CF93DF938C01D0E0C0E0C017A4
:10305000D1072CF0DF91CF911F910F9108950E941D
:103060002B0C8823E1F30E942F0C2196F0CF83E1F3
:1030700099E00E948A0D83E191E00E94260C0E9453
:103080000E0C8FE090E00E94201841E06FEF80E08E
:103090000E94540E4DEF50E06CE08DE00E94E1176D
:1030A00083E090E00E9420184CEE50E06CE08DE050
:1030B0000E94E11782E090E00E9420184DEF50E05E
:1030C0006CE08DE00E94E11781E490E00E942018FE
:1030D0000E940E0C84E190E00C9420188091CA0F9D
:1030E000882309F18091CB0F81111AC08091C80FFC
:1030F0008093CB0FE091CC0FE150FF0BE052FF4FDC
:10310000E491E7B98091CC0F9091C90F890F80931A
:10311000CC0F882311F08D3031F41092CA0F08952E
:1031200081508093CB0F08950E946E180C948016E6
:103130009091CE0F8091D40F981306C081E020911A
:10314000CF0F9091D50F291380E008959091CD0F66
:10315000882309F487C09F5F9093CD0F0E940E0CC7
:103160008091CD0F811128C080EA8093CE0F88E234
:103170008093CF0F8AE08093D00F1092D10F43E657
:103180005EE069E00E94E1174DE35EE065E08DE0FE
:103190000E94E11743EE5DE06DEF8EE00E94E117C3
:1031A00045ED5DE06FEF8BE00E94E11743EA5DE0E3
:1031B0006DEF83E00E94E1178091CD0F813051F5D2
:1031C00080E78093CE0F88E78093CF0F80E18093D4
:1031D000D00F89E08093D10F43E65EE062E185E0A5
:1031E0000E94E1174DE35EE06EE088E00E94E11787
:1031F00043EE5DE066E089E00E94E11745ED5DE0A9
:1032000068E086E00E94E11745E45DE066E080E06A
:103210000E94E1178091CD0F823031F588E88093CC
:10322000CE0F80E78093CF0F4BE65DE066E18EE046
:103230000E94E1174DE35EE062E181E10E94E11747
:1032400043EE5DE06AE082E10E94E11745ED5DE05A
:103250006CE08FE00E94E11743EA5DE06AE087E0FE
:103260000C94E117915078CF08952091CD0F211142
:1032700015C09CE08902F0011124ED50FE4FE60FCD
:10328000F11D67FDFA959081992331F0953089F40D
:1032900081E090E022308CF080E008953FEF320F23
:1032A000323090F79BE08902F0011124EF5FFE4F6E
:1032B000E6CF963029F490E080E00E94A618ECCF8B
:1032C00081E008950F938091D20F811124C068305E
:1032D00081F48091D00F9091D10F2091D30F2111C3
:1032E0001CC091509093D10F8091CF0F8850809344
:1032F000CF0F0E94981881110E94AA1982E090E0D5
:103300000E94201801E021E04091CF0F6091CE0F84
:1033100080E00E94B8170F910895213039F49F5F23
:103320009093D10F8091CF0F885FE1CF223049F485
:1033300081508093D00F8091CE0F88508093CE0F14
:10334000D8CF2330B1F68F5F8093D00F8091CE0F0E
:10335000885FF4CF0F93CF93DF93CEECDFE080E76D
:103360008883898384E08A8389E08B8381E08C83EE
:103370001092CD0F0E940E0C43E65EE069E08AE0F9
:103380000E94E1174DE35EE065E08DE00E94E117E9
:1033900043EE5DE06DEF8EE00E94E11745ED5DE0EC
:1033A0006FEF8BE00E94E11743EA5DE06DEF83E091
:1033B0000E94E11740E066E37DE080E00E94721722
:1033C00070E060E083E090E00E94621982E090E0AB
:1033D0000E94201801E021E04981688180E00E947C
:1033E000B817DF91CF910F9108950E940E0C83E3DF
:1033F00099E00E94260C83E399E00E94090C43E6C1
:103400005EE069E08AE00E94E1174DE35EE065E07E
:103410008DE00E94E11743EE5DE06DEF8EE00E94CB
:10342000E11745ED5DE06FEF8BE00E94E11743EAA5
:103430005DE06DEF83E00E94E11780E78093CE0F9F
:103440008093CF0F84E08093D00F89E08093D10FD9
:1034500040E066E37DE080E00E94721760E083E078
:103460000E94621981E08093D20FC3E0D2E011E0A4
:1034700080E00E94350C9093D80F8093D70F90FD79
:103480000E94AA198091D70F9091D80F91FD1092A8
:10349000D20F84FF20C040E06CE37DE080E00E941A
:1034A00072171092D30F6091D10F61508091D00F9D
:1034B0000E943519811104C08091D20F882329F010
:1034C00081E090E00E942018D3CF68E08091D30F74
:1034D0000E946219E8CF85FF1BC040E069E37DE0F0
:1034E00080E00E9472171093D30F6091D10F6F5F2D
:1034F0008091D00F0E9435198111E2CF8091D20FB7
:103500008111DECF68E08091D30F0E946219EDCF68
:1035100086FF1BC040E063E37DE080E00E947217FD
:10352000D093D30F8091D00F6091D10F81500E9422
:1035300035198111C5CF8091D20F8111C1CF68E0BB
:103540008091D30F0E946219EDCF87FFB9CF40E081
:1035500066E37DE080E00E947217C093D30F8091F4
:10356000D00F6091D10F8F5F0E9435198111A8CFC4
:103570008091D20F8111A4CF68E08091D30F0E9477
:103580006219EDCFAA1BBB1B51E107C0AA1FBB1FCD
:10359000A617B70710F0A61BB70B881F991F5A95DF
:1035A000A9F780959095BC01CD01089597FB072E52
:1035B00016F4009407D077FD09D00E94C21A07FCC8
:1035C00005D03EF4909581959F4F08957095619533
:0835D0007F4F0895F894FFCF2E
:1035D80001020101010101010101020201000000D3
:1035E80000010101010202010000000001010101C6
:1035F80002020100000000010101010202010000B5
:1036080000000101010102020100000000010101A6
:10361800010202010101000101010101020202028D
:103628000100010101020101010202010001010181
:103638000201010102020100050102020101010269
:10364800020201000101020101010202020100015E
:10365800020201010102020201000102020101014C
:103668000101010100010202010101010000000045
:103678000102020101010100000000010202010132
:103688000101000000000101010101010100000029
:103698000000000000060101000000000101010116
:1036A8000101010000000001020202020101000004
:1036B80000000102020202010101010101010202EE
:1036C80002020102020202020101010101010102DA
:1036D80002020202010000000000000202020202CF
:1036E80001000000000000010101010101000000CB
:1036F80000000001000000000000000000000001C0
:1037080000010101000000000000000100010201A9
:10371800000000000000000100010201000000009C
:103728000000000100010201010101010101010184
:103738000001020202020202020202010501020263
:103748000202020202020201010102020202020254
:103758000202020000000000000000000000003C1F
:083768000D390D330D360D0083
:00000001FF
