:100000000C942A240C9494240C9494240C949424FA
:100010000C9494240C9494240C9494240C94942480
:100020000C9494240C9494240C9494240C94942470
:100030000C9494240C9438270C9477270C94152551
:100040000C9494240C9494240C9494240C94942450
:100050000C9494240C9494240C9494240C94942440
:100060000C9494240C9494240C9494240C94942430
:10007000810045005DFF5E1027FF2AD22B7D210CF9
:1000800022FB850084008903888D81096F02444228
:1000900047004501B083B300B10124B925578A1D3B
:1000A0008B035A55012001010038080000000000B0
:1000B0000000000000000000000000000000000040
:1000C0000000B029B3290F2A132A1A2ABB29C029F4
:1000D000C529222AC829CB29CE29092A0C2A322A45
:1000E00000408891D2E4ADB5B6BEBFFF0503001352
:1000F0001415161718191A1B1C1D1E1F00050400C5
:100100000102030405060708090A0B0C0D000E0F77
:1001100010111200000000000000000000000000AC
:1001200000000000000000000000000000000000CF
:1001300000000000000000000000000000000000BF
:1001400000000000000000000000000000000000AF
:10015000000000000000000000000000000000009F
:10016000000000000000000000000000000000008F
:1001700000004900000000004952520000004952AE
:10018000531C25004952522425251B52525C2D2D0B
:100190001C121200000000000000000000000040DF
:1001A00049494900404949525B5B5B4A52525B1CDA
:1001B0001C13125B1C241C12090909241B120909B7
:1001C00009090A0A0A0A0A0A0A0A130A0A120A0A80
:1001D00012130A0000000000000000925252525216
:1001E00052524913121309001C1B130A1212401B0E
:1001F00065641C090A0009241B1C65120000251CEB
:100200001C1C1C010025241C1C1C1C00242524244F
:10021000241C1C00000000000000004940000000F9
:1002200000000052494900000000001C5B4A4800E1
:100230000000001C255249000000006524644900AC
:1002400000000065256449000000006D2E5C490037
:10025000000000000000000000405200000000000C
:1002600049525C0000000053522425000000535204
:1002700025252500004A5225251B0000005B25137B
:1002800000001B005B53000A1C3737095B1C657FAD
:10029000372E2E522E2E1C131312002E251B131236
:1002A0000000121C1C12000012251C120000122E4D
:1002B000371C1300132E37361C131B37372E2E25F1
:1002C000131C1C2E2E2E2E1B1C1C1C6E6E6E1C1C3A
:1002D0001C1C1C09131312121313001313131313F2
:1002E0001C0009131313131C0100371313131C13E1
:1002F000002E2E1B1B1C1C001C772E1B1B25001305
:100300007F251C1C1C010A37241C1C1C130A2E25CB
:10031000250900132E2425252525252E25252525CF
:1003200025252525252D2E251B1C1C2E2E251C1391
:10033000251B13251C1C1C1C0109521C1C1300012D
:100340001C5B5C0A000165775C1B00016E7F6E52CE
:100350001B00006D1C5249000000001C13530000DC
:100360000000001C524A00000000005B5B0000001F
:100370000000005C00000000000000000000000021
:10038000000000000000000000000000000000006D
:10039000000000135B7F776E6E6E6E136577766E6E
:1003A0006E6E6E1B65777676766E771B5BBF76B664
:1003B00076767609136DBFB7B6B765001B125C760B
:1003C000BF766D0000121B125B5B5C000000000931
:1003D0000A12136E77241C1C1C1C1C77251C1C1C69
:1003E0001C24256E1C1C1C2425251B1C1C242525B7
:1003F000130000646D6D1B00096EBF6D5B09126E0A
:10040000BF6D5B5B125B645B121312131B1212094C
:100410000100001C242E1C0900096E25240100097E
:10042000767F7F000012777F7F641264BFBF775BA7
:10043000121B09BF6D5B121B09000012131B090080
:1004400000000009000000000000000000000000A3
:100450000000007F7F53131300000064121B010093
:100460000000001B1200000000000000000000005F
:10047000000000000000000000000000000000007C
:10048000000000000000000000000000000000006C
:100490000000000000000000000000260000002610
:1004A0000026262F0000002F000000370000003734
:1004B000000000FF000000FF000000BF000000BFC0
:1004C0000000BF370000370000370000262600007C
:1004D0000026260000000000000000262626002638
:1004E00026262600002F002F0000000037000037CE
:1004F000000000FF000000FFFFFFFF00000000BF42
:10050000000000000000003700000026262600261C
:1005100026262600000000000000002600262626D1
:1005200026000000002F0000002F00000037000010
:100530000037000000FFFFFFFF00000000BF0000C9
:1005400000BF0000003700000037002600262626E6
:100550002600000000000000000000000026262603
:10056000002600002F00002F002F0037000000376A
:10057000000037FF000000FF000000BF000000BFC8
:100580000000BF3700003700003700262626000095
:10059000002600000000000000000000002600000F
:1005A00000000000002F00000000000037000000E5
:1005B000000000FF0000000000000000BF0000007D
:1005C00000000000003700000000000000260000CE
:1005D000000000000000000000000000000000001B
:1005E000000000000000000000000000000000000B
:1005F0000000E400000000099BEDF60000009BA451
:10060000ADBFBF00529BA4767F7FB75B9B6D777FAA
:10061000766EB70000000000000000000000005BE4
:10062000B6F6F6005BF6FFFFFFFFBFF6FFFFFFFF2A
:10063000BFBFAEFFBFFFFFFFB7AD65BFBFFFFFB7D7
:10064000B6AD65B7BFFFFFBFB7AE6EB7BFFFFFBFA9
:10065000B7B7650000000000000000F6F6EDEDAD54
:10066000A4A49BB66D6D5C526E656465656552654C
:10067000766D255C5C52536E24656E6552526E2514
:100680002524255B52772D25252524526E6E2D2598
:1006900025252500000000000000009B4900000007
:1006A000000000A49B920000000000256493490014
:1006B000000000652E9B52000000006D2565520071
:1006C0000000006D2D6552000000006E2E64520087
:1006D000000000000000000000495B000000000076
:1006E0004A5B65000000005B9B6D2D0000005B5BBA
:1006F0002D2E250000525B2E2E1C0900015B2D1CA7
:1007000001091C005C5B014A65777F4A5B1C6E7FB8
:100710007777769B77776D656E6EA4776E65656586
:100720005BA4B725255C52526DBFBF130949647F96
:10073000BFBFBF095C7F7FBFBFB7BF7F7F777F7FB2
:10074000B7BFBF77777F7F6EB7BFBF777F7F6E778B
:10075000BFBFBFB6FFFFFFBFBFB75BBFFFFFFFBF9E
:10076000BFA464BFFFFFFFBFADA47FBFFFFFFFBFFC
:10077000A4BF7FFFFFFFBFADBFBFBFFFFFFFB6BF7F
:10078000BFBF77FFFFF7BFBFBF7777FFFFFFBFBFD9
:10079000BF64526D7F6E2E2D2D256E7F766E6E6E30
:1007A0002E2565777777762E1C25247F776E251C7E
:1007B000251C1B776525251C090A5B6E6E1C0949E3
:1007C0002564645B494A6E7F645C005377BF775B46
:1007D0005C00006E255B4A000000001C1B5B0000F3
:1007E000000000245B5300000000005B5C00000080
:1007F0000000006400000000000000000000000095
:1008000000000000000000000000000000000000E8
:100810000000005B5C7FBF777677775C6D7FB77792
:100820007777775C6D7FBF777777BF5C64BFBFBF3B
:10083000BFBF7F0A5C6EBFBFBFBF760065646DBF80
:10084000BFBFBF00005B6D646DADB600000000125D
:100850005B646D777F6E6E77BFBFBF7F766D767797
:10086000BFBFBF776D6E767FBFBFBF6D6E767FBF38
:10087000B7ADF676BFBF76A4ADFFFFBFB664ADFFE0
:10088000FFFFFFB6ADBFFFFFFFFFF6ADB6AD645B88
:10089000520000FFFFBFBFAD5B64BFFFFFB6ADAD51
:1008A000BFFFBFFFF6FFFFFFFFBF64FFFFFFFFBFFC
:1008B000B6765BFFFFFFBFBF5B0000FFFFFF5C0082
:1008C000000000A400000000000000000000000084
:1008D000000000BFBF645C5C0000006E5C65490006
:1008E0000000006D5B000000000000000000000040
:1008F00000000000000000000000000000000000F8
:1009000000000000000000000000000000000000E7
:100910000000000000001C090000000000020800A8
:10092000085504085A0000F8000990000A1E320514
:100930000000FF01010101010101010101010101AB
:100940000101010101010101010101010101010197
:100950000101010101010101010101010101010187
:100960000101010101010101010101010101010177
:100970000101010101010101010101010101010167
:100980000101010101010101010101010101010157
:100990000101010101010101010101010101010147
:1009A0000101010101010101010101010101010137
:1009B0000101010101010101010101010101010127
:1009C0000101010101010101010101010101010117
:1009D0000101010101010101010101010101010107
:1009E00001010101010101010101010101010101F7
:1009F00001010101010101010101010101010101E7
:100A000001010101010101010101010101010101D6
:100A100001010101010101010101010101010101C6
:100A20000101010101170A0A0A0A0A130A0A0A0A3D
:100A30000A1801171600000000000B00000000005B
:100A40000B010B001E0E0014000B00000000000B39
:100A5000010B000C160028000B000E0000000B011B
:100A60000B2900000000000B000F0000000B010B21
:100A70000000000000280B000000281716010B00E2
:100A800000000000000F000000000B01010B00003F
:100A90000014000000000000000B01010B0000002A
:100AA00000000000000014000B0101150A180000EE
:100AB000000000280000000B01010101150A0A0ACC
:100AC0000A0A1800170A16010101010101010101BA
:100AD000010B00150A0A18010101010101010101C0
:100AE0000B000000060B01010101010101010118C9
:100AF0000A0A18000B010101170A0A0A0A180B005A
:100B0000150A0A1801011716002800000B0B050032
:100B100000000B011716000017180015140A0A1818
:100B2000000B010B00000015160000150A0A10004A
:100B30000B010B000000000000000000000B000B88
:100B4000010B000000000000001718000B000B0153
:100B50000B00170D290000000B0B000F000B010B01
:100B6000000F0000000017160B0000000B010B0027
:100B700000000000171614150A0A0A16010B0017C8
:100B80000A18000B0E170A0A0A0A18010B000B14A8
:100B90000B000B0F0B000000000B010B00150A16D9
:100BA00000150A16001718000B010B0000000000CA
:100BB000000000000B0B000B01150A0A0A0A0A0AC2
:100BC0000A0A0A16150A16010101010101010101B3
:100BD0000101010101010101010101010101010105
:100BE0000101010101010B0A0A0A000B01010101C7
:100BF00001010101010B000000060B0101010101CF
:100C0000010101010B00170A0A160101010101018E
:100C10000101010B00150A0A18010101010101017E
:100C200001010B00000000150A180101010101017A
:100C3000010B0000000028280B0101170A0A180107
:100C40000B000000000000150A0A1600000B010B43
:100C50000000000C18000000000000000B01151837
:100C600000281F0B000017180000000B0101150AD7
:100C70001800110A0A161518001716010101010BB8
:100C800000150A0A0A0A16000B01010101010B00F6
:100C9000000000000000000B0101010101150A0A1B
:100CA0000A0A0A0A0A0A16010101010101010101E9
:100CB0000101010101010101010101010101010124
:100CC00001010101010101010101010101010117FE
:100CD0000A0A0A180101170A0A0A18010117162838
:100CE00000000B01010B0000000B01010B000014C0
:100CF000000B01010B000E000B0117160000000095
:100D00000B01010B000B000B010B2900002817162B
:100D100001010B000F000B01150A18001716010145
:100D2000010B002800150A0A0A1000150A18010113
:100D30000B000E00002828000F0000000B01010B23
:100D400000111800000000000000000B01010B0062
:100D500015120A131800000000000B01010B00001F
:100D600000000B1518001400000B0101110A0A0DF8
:100D7000000B010B000000000B01010B050000003F
:100D80000B01150A0A0A0A1601010B00170A0A16B6
:100D90000101010101010101010101010101010143
:100DA000010101010101010A0A18170A18170A189E
:100DB00001010101010100060B0B280B0B1F0B01A8
:100DC00001010101010B001516000B0B000B0101C5
:100DD000010101010B000000001516000B010101CB
:100DE0000101010B0A0A18002800000B0101010192
:100DF00001010101010B000000000B0101010101D3
:100E0000010101010B00000E000B010101010101B4
:100E10000101011518000F000B0101010101010181
:100E20000101010B0000000B0101010101010101A1
:100E30000101150A0A0A160101010101010101015E
:100E40000101010101010101010101010101010192
:100E50000101010101010101010101010101010182
:100E60000101010101010101010101010101010172
:100E70000101010101010101010101010101010162
:100E80000101010101010101170A0A130A0A0A0AF4
:100E90000A0A130A0A0A180B00000F0000000000DB
:100EA000000B0000000B0B0000000000170A1800E8
:100EB0000B000E00150B001429002815180B000B51
:100EC000000B05000B0000000000000B0B000B00E6
:100ED000110A0A150A0A0A0A18000B0B000F000B68
:100EE00001010101170A0A16000B0B0028000B0173
:100EF00001011716000000000B0B0028000B010178
:100F000017162800140017160B0014000B01010B14
:100F100000000000000B010B0000000B01010B00A2
:100F20000000281716010B0000171601010B000026
:100F30000017160101150A0A16010101150A0A0A0D
:100F4000160101010101010101010101010101017C
:100F50000101010101010101010101010101010181
:100F60000101010101010101010101010101010171
:100F700001010101010101010101010101170A0A39
:100F80000A130A0A0A180101010101010B000000FD
:100F9000151800000B0101010101010B0000000008
:100FA0000F00280B0101010101010B0000000000EE
:100FB000001E0B0101010101010B000000000000F7
:100FC000280B010101010101150A18000000170A90
:100FD0001601010B01150A0A0A1218001716010161
:100FE00001010B000B000000000B000B01010101CF
:100FF000010B0600001718000B000B010101010195
:10100000150A0A0A160B000F000B0101010101016C
:10101000010101010B0000000B01010101010101AF
:10102000010101150A0A0A1601010101010101016C
:1010300001010101010101010101010101010101A0
:101040000101010101010101010101010101010190
:1010500001010101010101010101170A0A0A0A182F
:101060000101010101010101010B000028000B0138
:1010700001170A0A0A1801010B000000000B170AE9
:10108000160000000B01010B000014000B0B000008
:101090000000000B01010B290000001516000E00D6
:1010A000000C1001010B000000000000000B00000C
:1010B000000B01010B0000000C130A0A1218290092
:1010C0000B01010B001400000B0101010B00000BD0
:1010D00001010B000000000B0101010B00171601BC
:1010E000010B000000000B0101010B00110A0A01B5
:1010F000150A0A0A0A160101010B000F000001017E
:1011000001010101010101010B00000517010101AD
:1011100001010101010101150A0A0A16010101017B
:1011200001010A000A0A0A0101010101010101018C
:10113000010A0600000B0101010101010101010189
:101140000A0A0A000B0101010101010101170A0A43
:101150000D0B000B010101010101010C16170A130F
:101160001600150A0A0A1801170A0A180B280B009C
:1011700000000000000B010B00000B0B000F000033
:10118000140000000B171600000B0B0000000000FD
:1011900000000C100B2900001516000E00140000B2
:1011A00000280B0B0000000000000B0000001400E2
:1011B000000B0B000000170A1310000000000000D5
:1011C0000B0B001E000B0115120A0A0A0A0A0A1666
:1011D0000B0000000B0101010101010101010115DA
:1011E0000A0A0A16010101010101010101010101BF
:1011F00001010101010101010101010101010101DF
:1012000001010101010101010101010101170A0AA6
:101210000A130A0A0A0A0A0A0A1801010B0028001E
:101220000B000000002800000B01010B0000000B68
:10123000000014000000000B01010B000017102932
:101240000000000014000B01011518000B0B00003A
:1012500000000000000B01011716000B150A180012
:101260000E00170A1601010B0000150A180B000BDF
:10127000000B010101010B290000000B0B000B000A
:101280000B01010101110D0000001516000B0015E6
:101290000A1801010B000000000000000B0000050F
:1012A0000B01010B00000000170A0A120A18000BBC
:1012B00001011518000017160101010101010101CA
:1012C0000101150A0A1601010101010101010101D3
:1012D00001010101010101010101010101010101FE
:1012E00001010101010101010101010101010101EE
:1012F000010A0A18010101010101010101010101B5
:1013000000060B01010101010101010101010118A8
:10131000000B0101010101010101010101010B00AB
:101320000B0101010101010101010101010B001586
:101330000A0A180101010101010101010B0000006D
:10134000000B010101010101010101150A0A180048
:101350000B01010101010101010101010A16001542
:101360000A130A180101010101010B00000000002D
:101370000B1F0B0101010101010B000E0000000B0E
:10138000000B0101010101010B000F0000000F0023
:101390000B0101010101010B000000280000000BFE
:1013A000010101010101010A0A0A0A0A0A0A1601D9
:1013B000010101010101010101010101010101011D
:1013C000010101010101010101010101010101010D
:1013D000010101010101170A0A0A0A0A18010101A3
:1013E00001010101010B00000000000B01010101DE
:1013F000010101010B000C0A18000B0101010101A0
:101400000101010B0000000B000B010101010101B2
:10141000170A162900000B00150101010101010B3B
:1014200000000000000B05000101010101010B009B
:101430000C130A0A120A0A01170A0A0A0A160000FD
:10144000150A0A0A1301010B000000000000000049
:101450000000000B01010B000C0A0D0000000E0043
:1014600000000B01010B000000000000000F000055
:10147000000B01010B000000000E0000280000001E
:101480000B0101150A0A0A0A120A0A0A0A0A0A12B2
:10149000010101010101010101010101010101013C
:1014A0000101010101010101010000150A180101FA
:1014B0000101010101010101180600000B010101F8
:1014C00001010101010101150A18000B01010117B9
:1014D0000A0A0A0A180C0A0D0B000B0101010B0085
:1014E0000000001518170A16000B0101010B00146B
:1014F0000000000B0B0000000B0101010B000000BD
:101500000000151600170A160101010B000000006B
:10151000000000000B01010101010B290000000087
:10152000170A0A1601010101010B00000000000B5F
:101530000101010101010101150A1800170A16171E
:101540000A0A0A1801010101010B00110A0A16001A
:1015500000000B01010101010B000F000000000061
:10156000000B01010101010B00000017181E2800EB
:101570000B0101010101150A0A0A16150A0A0A16C9
:10158000010101010101010101010101010101014B
:10159000010101010101170A0A0A0A0A0A180101D8
:1015A00001010101010B0000000000000B0101011D
:1015B000010101010B000000170D000B01010101E9
:1015C00001170A120A0D000B00000B0101010101B5
:1015D0000B0000000000150A0A1001010101010BB7
:1015E000000E0000000000000B01010101010B00D2
:1015F000110A0A0A0A0A0A16010101170A16001539
:10160000180101010101010101010B000000000BA3
:101610000101010101010101010B00000000150A97
:101620000A0A1801010101010B000014000000006A
:1016300000150A180101010B00002800001718000E
:1016400000050B010101150A0A0A0A0A16150A18F3
:10165000000B010101010101010101010101010171
:101660000101010101010A0A0A0A0A0A0A0A0A0119
:1016700001010101010B06000000000000000B0148
:1016800001010101010A130A0A0A0A0A000B1817CC
:101690000A0A0A18010B000000000000000B0B1FD3
:1016A00000000B010B000000000000000B0B00000D
:1016B000000B010B000C0A0D0000000B0B000000DA
:1016C0000B010B000000000000000B15180017169E
:1016D000010B000000000000000B010B00150A0ABE
:1016E000160000000C0D00000B010B0000000000B4
:1016F000000E00000000280B01150A0A0A0A130A4E
:101700001600000000000B0101010101010B0000A7
:1017100000001400000B0101010101010B00000099
:10172000000000000B010101010101150A0A0A0A6B
:101730000A0A0A1601010101010101010101010169
:10174000010101010101170A0A0A0A0A0A0A18011D
:1017500001010101010B000000000000000B01016C
:10176000010101010B001400001400280B0101010C
:101770000101010B000000000000000B010101014C
:1017800001010B000000000000000B01010101013C
:10179000010B00140000000E000B0101010101010A
:1017A0000B00000000000B000B01010101010115FD
:1017B000130A0A0A0A16000B010101010101010BBB
:1017C0000000000000000B010101010101010B00FC
:1017D0000C0A0A0A0A120A1801010101010B000091
:1017E0000000000000050B0101010101150A130AA8
:1017F0000A0A0A0D0015010101010101010101019F
:1018000001010101010101010101010101010101C8
:1018100001010101010101010101010101010101B8
:1018200001010101010101010101010101010101A8
:1018300001010101010101170A0A0A180101010150
:101840000101170A0A0A160000000B01010101013B
:10185000010B00000000001E000B0101010101014D
:101860000B00170A180000000B0101010101010B18
:10187000000B01150A0A0A160101010101010B0002
:101880000B0101010101010101010101010B000A2C
:101890000A01010101010101010101010B00000622
:1018A0000101010101010101010101150A0A010102
:1018B0000101010101010101010101010101010118
:1018C0000101010101010101010101010101010108
:1018D00001010101010101010101010101010101F8
:1018E00001010101010101010101010101010101E8
:1018F00001010101010101010101010101010101D8
:1019000001010101010101010101010101010101C7
:1019100001010101170A0A0A0A0A1801010101015D
:101920000101010B00000000000B01010101010198
:1019300001010B00000000000B01010B01150A184A
:10194000010B0000000E000B01010B0500000B0154
:101950000B0000000B000B0101150A18000B010B16
:101960000000000B000B010101010B000B0115131E
:101970000D00110A160101011716000B01010B00E1
:10198000000B14170A0A0A1600001518010B000CA8
:1019900012180B000000000000000B1716000000DA
:1019A0001516001718000000000B0B0000000000C7
:1019B00000000B110D0000000B0B00140000170AB3
:1019C0000A160B000014000B0B000000000B0101B5
:1019D000010B000000000B150A0A0A0A160101019A
:1019E000150A0A0A0A16170A0A0A0A180101010149
:1019F00001010101010B000000000B0101010101C7
:101A0000010101010B000000000B010101010101B6
:101A10000101010B0000001E0B0101010101010188
:101A20000101150A1800171601010A0A0A0101012D
:101A30000101010B00151801010A06000101010155
:101A400001010B00000B01010A000A010101010163
:101A5000011518000B01010A000A01010101170A12
:101A60000A16000B01010A000A010101010B000026
:101A700000000B01010A000A010101010B00000036
:101A800000150A0A0A000A010101010B000000000A
:101A900000000000000A010101010B000000001716
:101AA0000A0A0A0A0A010101010B000000000B01E9
:101AB0000101010101010101180A0A0A0A160101C6
:101AC000010101010101010101010101170A0A0AD5
:101AD0000A0A0A18010101010101010B00000000BE
:101AE00000000B010101010101010B0000000000D9
:101AF000000B0101170A0A0A0A1600000000000084
:101B00000B01010B00000000000000000000000BB2
:101B100001010B00170A18000000000000000B0173
:101B2000010B000B010B000000000000000B010185
:101B30000B000B010B000000000000000B01010B6B
:101B4000000B01150A0A0A0A0A0A0A160101160000
:101B50000B01010101010101010101010100050B5E
:101B60000101010101010101010101010A0A16013E
:101B70000101010101010101010101010101010155
:101B80000101010101010101010101010101010145
:101B90000101010101010101010101010101010135
:101BA000010101010101010100000000000000002D
:101BB0000000000000000000000000000000000025
:101BC0000000000000000000000000000000000015
:101BD0000000000000000000000000000000000005
:101BE0000000000000000000FFFFFFFFFFFFFFFFFD
:101BF000FFFFFFFFFFFFFFFFFFFFFFFFFFFFFFFFF5
:101C0000FFFFFFFFFFFFFFFFFFFFFFFFFFFFFFFFE4
:101C1000FFFFFFFFFFFFFFFFFFFFFFFFFFFFFFFFD4
:101C2000FFFFFFFFFFFFFFFFF6F6F6F6F6F6F6F60C
:101C3000F6F6F6F6F6F6F6F6F6F6F6F6F6F6F6F644
:101C4000F607F6F6F6F607F6FF0707F6F607FF07BC
:101C500007FF07F607F607FFF607F607FF0707F681
:101C6000F607F6F607F607F6F6F6F6F6F6F6F6F6E1
:101C7000F6F6F6F6F6F6F6F6F6F6F6F6F6F6F6F604
:101C8000F6F6F6F6F6F6F6F6F6F6F6F6F6F6F6F6F4
:101C9000F6F6F6F6F6F6F6F6F6F6F6F6F6F6F6F6E4
:101CA000F6F6F6F6F6F6F6F66F6F666F6EF6F6F681
:101CB000377677376FF6F6F6000000007666F6F6B0
:101CC00007000700376FF6F600000000776F66F632
:101CD0003777377677376FF677767777377666F6B2
:101CE00067666F6F6F6666F6F6F6F66E2F666F2F95
:101CF000F6F6F66F37777637F6F666760000000070
:101D0000F6F66F3700070007F6666F7700000000F1
:101D1000F66F377776377737F66676377777767771
:101D2000F666666F6F6F6667F6F6F6F6F6F6F665B8
:101D3000F6F6F6F6F6F66526F6F6F6F6F6656F6F43
:101D4000F6F6F6F665262626F6F6F6656F6F6F65EB
:101D5000F6F6652626266525F6656F6F6F652525DF
:101D6000652626266525252565F6F6F6F6F6F6F6A9
:101D70002665F6F6F6F6F6F66F6F65F6F6F6F6F603
:101D800026262665F6F6F6F6656F6F6F65F6F6F6AB
:101D9000256526262665F6F62525656F6F6F65F69F
:101DA0002525256526262665000000000000000088
:101DB000000000000000000000FF00000000000024
:101DC0000000000000000000000000000000FF0014
:101DD0000000000000FFFFFF000000000000FF0007
:101DE00000000000000000000000000000000000F3
:101DF000000000000000000000000000FF000000E4
:101E0000000000FFFFFF000000000000FF000000D6
:101E100000000000000000000000000000000000C2
:101E200000000000000000000000000000000000B2
:101E30000000000000000000000000000000FF00A3
:101E40000000000000000000000000000000000092
:101E50000000FF000000000000FFFFFF0000000086
:101E60000000FF0000000000000000000000000073
:101E70000000000000000000000000000000000062
:101E800000FF000000000000000000000000000053
:101E90000000000000000000000000000000000042
:101EA0000000000000000000000000000000000032
:101EB000000000000000000000000000000000FF23
:101EC0000000000000000000000000000000000012
:101ED0000000000000000000000000000000000002
:101EE00000000000000000000000000000000000F2
:101EF000FF00000000000000FFFF000000000000E5
:101F0000FF000000000000000000000000000000D2
:101F100000000000000000000000000000000000C1
:101F200000000000000000140000000000373737F8
:101F300000000000373F373F00000000373F373FC9
:101F400000000037373F373F000014141466666600
:101F50000014141414666F6F14141414666F6F6FEA
:101F600014141414666F6F6F370000000000000037
:101F70003F370000000000003F3700000000000075
:101F80003F370000000000FF6666660000000000AA
:101F90006F6F6600000000006F6F6F66000000004A
:101FA000676F6F6600000000000000000000000086
:101FB0000000000000000000FF0000000000000022
:101FC000FFFF000000000000FF0000000000000014
:101FD0000000000000000000000000000000000001
:101FE0000000000000000000F607F6F607F607F60E
:101FF000F607F607FF0707F607FF07F607F607FFDE
:10200000FF0707F6F607FF07F607F6F6F6F607F6F8
:10201000F6F6F6F6F6F6F6F6F6F6F6F6F6F6F6F660
:10202000F6F6F6F6F6F6F6F6677737000700372F7E
:10203000667677000000766F6F7737000700776667
:102040006F7776000000372F6F37777737766F6EB0
:102050006676376F6F66F6F666666F66F6F6F6F6C4
:10206000F6F6F6F6F6F6F6F6F6F6F6F6F6F6F6F610
:1020700066666F66F6F6F6F66676376F6F66F6F6A4
:102080006F37777737766F6E6F7776000000372F70
:102090006F77370007007766667677000000766F07
:1020A000677737000700372F0000000000000000AE
:1020B000000000000000000000FF00000000000021
:1020C000FFFFFF000000000000FF00000000000014
:1020D0000000000000000000000000000000000000
:1020E00000000000000000140000000000001414B4
:1020F0000000000000141414000000001414141454
:1021000000000014141414140000141414141414F3
:102110000014141414141414141414141414141493
:102120001414141414141414141414666F6F6F6FB1
:10213000141414666F656F6F1414666F6F6F6F6F92
:102140001414666F6F6F6F6F14666F6F6F6F676FCA
:1021500014666F6F6F67676F666F6F6F6F6F6F6F0C
:10216000666F6F6F6F6F6F6F6F6F6F6F66000000DE
:102170006F6F6F6F660000006F6F6E6F660000001C
:102180006F6E6F6F6F6600006F6F6F6F6F6600002E
:102190006F6F6F6F6F6F66006F6F6F656F6F6F66DA
:1021A0006F6F6F6F6F6F6F660000000000000000C0
:1021B000000000000000000000000000000000001F
:1021C000000000000000000000000000000000000F
:1021D00000000000000000000000000000FF000000
:1021E0000000000000000000B1B1B1B1B1B1B1B167
:1021F000B1B1F6F6F6F6B1F6B1F6B1B1B1B1F6B1EC
:10220000B1F6B1F6F6B1F6B1B1F6B1F6F6B1F6B196
:10221000B1F6B1B1B1B1F6B1B1B1F6F6F6F6B1F6CB
:10222000B1F6B1B1B1B0F6B0B0B1B1B1B1B1B1B117
:10223000F6B1F6F6F6F6B1B1B1F6B1B1B1B1F6B1AB
:10224000B1F6B1F6F6B1F6B1B1F6B1F6F6B1F6B156
:10225000B1F6B1B1B1B1F6B1F6B1F6F6F6F6B1B18B
:10226000B1F6B1B1B1B0F6B0B0B0B0B0B0B0B0B0DE
:10227000F6F6F6F6F6F6F6F6B0B0B0B0B0B0B0B02E
:10228000B0F6F6B0B0F6F6B0B0F6F6B0B0F6F6B01E
:10229000B0B0B0B0B0B0B0B0F6F6F6F6F6F6F6F60E
:1022A000B0B0B0B0B0B0B0B07777777777777777F6
:1022B000777737777777777777773777777777772E
:1022C000773777777777377777777777777777375E
:1022D000777777773737777777777777777777770E
:1022E00077777777377777777777777777777777BE
:1022F00077777777777777777737777777377777EE
:10230000773737777777777777777777777737771D
:10231000777777773777777777777777777777778D
:102320007777377777777777000000000000001421
:102330000000000000000014000000000000141461
:102340000000000000001414000000000014141429
:1023500000000000001414140000000014141414F1
:10236000000000001414141414141414141414147D
:10237000141414141414141414141414141414141D
:10238000141414141414141414141414141414140D
:1023900014141414141414141414141414141414FD
:1023A000141414141414141414141414141414669B
:1023B0001414141414141466141414141414666FDE
:1023C0001414141414666F6F1414141414666F6FBD
:1023D00014141414666F6F6F141414666F6F6F6F9C
:1023E000141414666F6F6F6F6F6F6F6F6F6F6F6F17
:1023F0006F6F6F6F6F6F6F6F6F6F656F6F6F6F6FF7
:102400006F656F6F6F6F6F6F6F6F6F6F6F6F6F6FE6
:102410006F6F6F6F6F6F6F6F6F6F6F6F6F6F6F6FCC
:102420006F6F6F6F6F6F6F6F6F6F6F6F6F6F6F6FBC
:102430006F6F6F6F6F6F6F6F6F6F6F6F6F6F6F6FAC
:102440006F6F6F6F6F6F6F6F6F6F6F6F6F6F6F6F9C
:102450006F6F6F6F6F6F6F6F6F6F6F6F6F6F6F6F8C
:102460006F6F6F6F6F6F6F6F6F6F6F6F6F6F6F6F7C
:102470006F6F6F6F6F6F6F6F6F6F666F6F6F6F6F75
:102480006F666F6F6F6F6F6F6F6F6F6F6F6F6F6F65
:102490006F6F6F6F6F6F6F6F6F6F6F6F6F6F6F6F4C
:1024A0006F6F6F6F6F6F6F6F6F6F6F6F6F6F6F6F3C
:1024B0006F6F6F6F6F6F6F6F6F676F6F6F6F6F6F34
:1024C0006F6767676F6F6F6F6F6F6F6F6F6F6F6F34
:1024D0006F6F6F6F6F6F66666F6F6F6F6F6F6F6627
:1024E0006F6F6F6F6F6F6F6F66000000000000000E
:1024F00066000000000000006F66000000000000A1
:102500006F6F6600000000006F6F66000000000043
:102510006F6F6F6600000000666F6F66000000005E
:102520006F6F6F6F66000000000000000000000089
:10253000000000000000000000000000000000009B
:10254000000000FF0000000000000000000000008C
:10255000000000000000000000000000000000007B
:1025600000000000000000141414141414141414B7
:102570001414141414141466141414141414146677
:10258000141414141414666F141414141414666FB1
:10259000141414141414666F1414141414666F6F46
:1025A0001414141414666F6F666F6F6F6F6F6F6F14
:1025B0006F6F6F6F6F6F6F6F6F6F6F6F6F6F6F6F2B
:1025C0006F6F6F6F6F656F6F6F6E6F6F6F6F6F6F26
:1025D0006F6F6F6F6F6F6F6F6F6F6F6F6F6F6F6F0B
:1025E0006F6F6F6F6F6F6F6F6F6F6F6F6F6F6F6604
:1025F0006F6F6F6F6F6F6F6F6F6F6F6F6F6F6F6FEB
:102600006F6F6F6F6F6F676F6F6F6F6F6F6F6F6FE2
:102610006F6F6F6F6F6F6F6F6F6E6F6F6F6F6F6FCB
:102620006E6F6F6F6F6F6F6F000000000000000033
:1026300066000000000000006600000000000000CE
:102640006F660000000000006F6F66000000000071
:102650006F6F6600000000006F6F660000000000F2
:102660006F6F6F6600000000B1F6B1B1B1B1F6B1A5
:10267000B1B1F6F6F6F6B0F6B1F6B1B1B1B1F6B069
:10268000B1F6B1F6F6B0F6B0B1F6B1F6F6B0F6B016
:10269000B1F6B1B0B1B1F6B0B1B1F6F6F6F6B0F64A
:1026A000B1B1B1B1B1B0B0B0B1F6B1B1B1B1F6B193
:1026B000F6B1F6F6F6F6B1B1B1F6B1B1B1B1F6B127
:1026C000B1F6B1F6F6B1F6B1B1F6B1F6F6B1F6B1D2
:1026D000B1F6B1B1B1B1F6B1F6B1F6F6F6F6B1B107
:1026E000B1B1B1B1B1B0B0B0B0F6B0B0B0B0F6B059
:1026F000B0F6B0F6F6B0F6B0B0F6B0F6F6B0F6B0AA
:10270000B0F6B0B0B0B0F6B0B0F6B0B0B0B0F6B0B1
:10271000B0F6B0F6F6B0F6B0B0F6B0F6F6B0F6B089
:10272000B0F6B0B0B0B0F6B0777737773777777765
:102730007777777777777777777777777777777729
:102740007777377777777777777777777777777759
:102750007777773777777777777777777777377789
:1027600077777777777777777777777777777777F9
:1027700077777777773777777777773777377777A9
:102780007777777777777777777777773777777719
:102790003777773737777777777777777777777789
:1027A000777777777777777700000014141414140D
:1027B000000000141414141400001414141414143D
:1027C0000000141414141414001414141414141405
:1027D00000141414141414141414141414141414CD
:1027E0001414141414141414141414666F6F6F6FEB
:1027F0001414666F6F6F6F6F1414666F6F6F6F6F67
:1028000014666F6F6F6F6F6F14666F6F6F6F6F66A9
:10281000666F6F6F6F6F6666666F6F6F6F6F6F6FEC
:10282000666F6F6F6F6F6F6F6F6F6F6F6F6F6F6FC1
:102830006F6F6F6F6F6F6F6F6F6F6F6F6F6F6F6FA8
:102840006F6F6F6F6F6F6F6F666F6F6F6F6F6F6FA1
:102850006F6F6F6F6F6F6F6F6F6F6F6F6F6F6F6F88
:102860006F6F6F6F6F6F6F6F6F6F6F676F6F6F6F80
:102870006F6F6F676F6F6F6F6F6F67676F6F6F6F80
:102880006F6F6F6F6F6F6F6F6F6F6F6F6F6F6F6F58
:102890006F6F6F6F6F6F6F6F6F6F6F6F6F6F6F6F48
:1028A0006F6F6F6F6F6F6F6F6F6F6F6F6F6F6F6F38
:1028B0006F6F6F6F6F6F6F6F6F6F6F6F6F6F6F6F28
:1028C0006F6F6F6F6F6F6F6F6F6E6F6F6F6F6F6F19
:1028D0006F6F6F6F6F6F676F6F6F6F6F6F676F6F18
:1028E0006F6F6F6F6F6F6F6F6F6F6F6F6E6F6F6FF9
:1028F0006F6F6E6E6F6F6F6F6F6F6F6F6F6F6F6FEA
:102900006F6F6F6F6F6F6F6F6F6F6F6F6F6F6F6FD7
:102910006F6F6F66666F6F6F6F6F6F6F6F666F6FE2
:102920006F6F6F6F6F6F6F6F6F6F6F6F660000000D
:102930006F6F6F6F6F6600006F6F6F6F6F66000075
:102940006F676F6F6F6F66006F6F676F6F6F660097
:102950006F6F6F676F6F6F666F6F6F6F6F6F6F66A1
:102960006F6F6F6F6F6F6F6614141414666F6F6FF5
:1029700014141414666F6F6F141414666F6F6F6FF6
:102980001414666F6F6F6F6F14666F6F6F6F6F6584
:1029900014666F6F6F6F6565666F6F6F6F6F6F6FC8
:1029A000666F6F6F6F6F6F6F6F6F6F6F6F6F6F6F40
:1029B0006F6F6F676F6F6F6F6F6F6F6F6F6F6F6F2F
:1029C0006F6F6F6F6F6F6F6F6F6F6F6F6F6F6F6F17
:1029D0006F6F6F6F6F6F6E6F6F6F6F6F6F6F6F6F08
:1029E0006F6F6F6F6F6F6F6F6F6F6F6F6F6F6F6FF7
:1029F0006F6F6F6F6F6F6F6F6F6F6F6F6F656F6FF1
:102A00006F6F6F6F6F6F656F6F6F6F6F6F6F6F6FE0
:102A10006F6F6F6F6F6F6F6F6F6F6F6F6F676F6FCE
:102A20006F6F6F6F6F6F6F6F6F6F6F66000000007B
:102A30006F6F6F6F660000006F6F6F6F6600000052
:102A40006F6F6F6F6F6600006F6F6E6F6F6F6600F6
:102A50006F6F6F6F6F6F66006F6F6F6F6F6F6F6607
:102A60006F6F6F6F6F6F6F66003737000000000089
:102A7000003737000000000000373700000000007A
:102A8000003737000000000000373700000000006A
:102A9000003737000000000000373737373737007E
:102AA0000027272727272700003737373737000029
:102AB00000373727272700000037370000000000C5
:102AC000003737373700000000373727270000006E
:102AD0000037370000000000003737373737000075
:102AE0000027272727270000373700000037370047
:102AF000373700000037370037370000003737001E
:102B0000373700000037370037370000003737000D
:102B10002737370037372700002737373727000098
:102B200000002727270000003737000000000000C2
:102B300037370000000000003737000000000000B9
:102B400037370000000000003737000000000000A9
:102B500037370000000000003737373737370000BD
:102B6000272727272727000000003737000000000D
:102B70000000373700000000000037370000000079
:102B80000000373700000000000037370000000069
:102B90000000373700000000000037370000000059
:102BA0000000272700000000000000373700000069
:102BB0000000003737000000000000373700000039
:102BC0000000003737000000000000373700000029
:102BD000000000273737003700000000273737375D
:102BE0000000000000272727373700000000000002
:102BF00037370000000000003737000000000000F9
:102C000037370000000000003737000000000000E8
:102C1000372700000000000027000000000000002F
:102C200000000000000000000000000000000000A4
:102C30000000000000000000000000000000004054
:102C40000000000000004040000000000040408004
:102C500000000000404080800000004040808080F4
:102C600000004040808080F600000000000000006E
:102C70004040404040404040404040404040404054
:102C80008080808080808080808080808080808044
:102C90008080808080808080F6F6F6F6F6F6F6F684
:102CA000F6F6F6F6F6F6F6F6000000000000000074
:102CB00000000000000000004000000000000000D4
:102CC0004040000000000000804040000000000084
:102CD0008080404000000000808080404000000074
:102CE000F6808080404000006F6F6F6F6E6F6F6F77
:102CF0006F6F6E6E6F6F6F6F6F6F6F6F6F6F6F6FE6
:102D00006F6F6F6F6F6F6F6F6F6F6F6F6F6F6F6FD3
:102D10006F6F00000000006F6F6F6F00F6006F6F45
:102D20006F6F6F00F60000006F6F6F6F660000003E
:102D30006F6F6F6F6F6600006F6F6F6F6F66000071
:102D40006F676F6F6F6F66006F6F676F6F6F660093
:102D50006F6F6F676F6F6F666F6F6F6F6F6F6F669D
:102D60000000000000000000000000000000000063
:102D70000000000000000000000000000000000053
:102D80000000000000000000000000000000000043
:102D9000FF00000000000000000000000000000034
:102DA0000000000000000000000000000005050514
:102DB00000000000050705070000000005070507E3
:102DC0000000000505070507000014141466666678
:102DD0000014141414666F6F14141414666F6F6F5C
:102DE00014141414666F6F6F0500000000000000DB
:102DF00007050000000000000705000000000000BB
:102E000007050000000000FF666666000000000085
:102E10006F6F6600000000006F6F6F6600000000BB
:102E2000676F6F6600000000B0B0B0B0B0B0B0B077
:102E3000B0F6F6F6F6F6F6F6B0F6B0B0B0B0B0B062
:102E4000B0F6B0F6F6F6F6B0B0F6B0F6F6F6F6B0C6
:102E5000B0F6B0B0B0B0B0B0B0F6F6F6F6F6F6F642
:102E6000B0B0B0B0B0B0B0B0B0B0B0B0B0B0B0B062
:102E7000B0F6F6F6F6F6F6B0B0F6B0B0B0B0F6B022
:102E8000B0F6B0F6F6B0F6B0B0F6B0F6F6B0F6B012
:102E9000B0F6B0F6F6B0F6B0B0F6B0F6F6B0F6B002
:102EA000B0F6B0B0B0B0F6B0F6B0B0B0B0B0B0F60A
:102EB000B0B0F6F6F6F6B0B0B0F6F6B0B0F6F6B0E2
:102EC000B0F6B0F6F6B0F6B0B0F6B0F6F6B0F6B0D2
:102ED000B0F6F6B0B0F6F6B0B0B0F6F6F6F6B0B0C2
:102EE000F6B0B0B0B0B0B0F6B0F6B0B0B0B0F6B0CA
:102EF000F6B0B0F6F6B0B0F6B0B0B0F6F6B0B0B02E
:102F0000B0F6F6F6F6F6F6B0B0F6F6F6F6F6F6B079
:102F1000B0B0B0B0B0B0B0B0F6F6F6F6F6F6F6F681
:102F2000B0B0B0B0B0B0B0B0B0F6B0B0B0B0F6B015
:102F3000F6B0B0F6F6B0F6B0B0B0B0F6F6B0F6B0A7
:102F4000B0F6F6F6F6B0F6B0B0F6F6F6F6B0F6B0C5
:102F5000B0B0B0F6F6B0F6B0F6B0B0F6F6B0F6B087
:102F6000B0F6B0B0B0B0F6B0000037370000373779
:102F70000000373700003737000037370000373799
:102F80000000373700003737000037370000373789
:102F90000000373700003737000037370000373779
:102FA00000002727000027273737000037370000A9
:102FB0003737000037370000373700003737000059
:102FC0003737000037370000373700003737000049
:102FD0003727000037370000270000003737000090
:102FE0000000000027270000373700000000000025
:102FF00037370000000000003737000000000000F5
:1030000037370000000000003737000000000000E4
:1030100037370000000000003737000000000000D4
:103020002727000000000000004040808080F6F666
:10303000004040808080F6F6004040808080F6F6B8
:10304000004040808080F6F6004040808080F6F6A8
:10305000004040808080F6F6004040808080F6F698
:10306000004040808080F6F6F6F6F6F6F6F6F6F6C4
:10307000F6F6FFFFF6F6F6F6F6FFFFFFFFF6F6F6BA
:10308000F6FFFFFFFFF6F6F6F6F6FFFFF6F6F6F6AA
:10309000F6F6F6F6F6F6F6F6F6F6F6F6F6F6FFFFBE
:1030A000F6F6FFFFF6F6FFFFF6F680808040400060
:1030B000F6F6808080404000F6F680808040400038
:1030C000F6F6808080404000F6F680808040400028
:1030D000F6F6808080404000F6F680808040400018
:1030E000F6F68080804040006F6F6F00F600B7B743
:1030F0006F6F6F00F600B7B76F6F6600F600B7B777
:103100006F666F00F600B7B76F6F6F00F600B7B766
:103110006F6F6F00F600B7B76F6F6F00F600B70004
:103120006F6F6F00F600B7B7B7B7B7B7B7B7B7B736
:10313000B7B7B7B7B7B7B7B7B7B7B700000000B7FB
:10314000B7B700070707FF00B700070707F707FF34
:1031500000FF0707070707FFFFFF0707070707FF2E
:1031600000FFFF070707FF00B7B7B7B7B7000000BA
:10317000B7B7B7B7B7000000B7B7B7B7B700B7B7BB
:1031800000B7B7B7B700B7B7FF0000B7B700B7B71A
:10319000FFFFFF00B700B7B7FF0000B7B700B7B732
:1031A00000B7B7B7B700B7B70000000000000000D5
:1031B0000000000000000000B7B7B7B7B70000007C
:1031C000B7B7B7B700000000B7B7B7B70000000047
:1031D000B7B7B70000000000B7B7B70000000000A5
:1031E000B7B7000000000000B0B0B0B0B0B0B0B0F1
:1031F000F6F6F6F6F6F6F6B0B0B0B0B0B0B0F6B09F
:10320000B0F6F6F6F6B0F6B0B0F6F6F6F6B0F6B002
:10321000B0B0B0B0B0B0F6B0F6F6F6F6F6F6F6B07E
:10322000B0B0B0B0B0B0B0B0B0F6B0B0B0B0F6B012
:10323000B0F6B0F6F6B0F6B0B0F6B0F6F6B0F6B05E
:10324000B0F6B0F6F6B0F6B0B0F6B0F6F6B0F6B04E
:10325000B0F6B0B0B0B0F6B0B0F6F6F6F6F6F6B03E
:10326000B0B0B0B0B0B0B0B0B0B0B0B0B0B0B0B05E
:10327000F6F6F6F6F6F6F6F6B0B0B0B0B0B0B0B01E
:10328000B0F6F6F6F6F6F6B0B0F6F6F6F6F6F6B0F6
:10329000B0B0B0F6F6B0B0B0F6B0B0F6F6B0B0F68A
:1032A000B0F6B0B0B0B0F6B0B0F6B0B0B0B0F6B006
:1032B000B0F6B0F6F6B0B0F6B0F6B0F6F6B0B0B024
:1032C000B0F6B0F6F6F6F6B0B0F6B0F6F6F6F6B042
:1032D000B0F6B0F6F6B0B0B0B0F6B0F6F6B0B0F604
:1032E000B0F6B0B0B0B0F6B00000373700003737F6
:1032F0000000373700003737000037370000373716
:103300000000373700003737000037370000373705
:10331000000037370000273700003737000000274C
:1033200000002727000000000000003737000000E1
:1033300000000037370000000000003737000000B1
:1033400000000037370000000000003737000000A1
:1033500037003737270000003737372700000000D5
:10336000272727000000000037370000373700000C
:103370003737000037370000373700003737000095
:103380003737000037370000373700003737000085
:103390003737000037370000373700003737000075
:1033A000272700002727000000004040808080F68B
:1033B000000000404080808000000000404080808D
:1033C000000000000040408000000000000040407D
:1033D00000000000000000400000000000000000AD
:1033E0000000000000000000F6F6FFFFF6F6F6F61B
:1033F000F6F6F6F6F6F6F6F680808080808080801D
:1034000080808080808080808080808080808080BC
:1034100040404040404040404040404040404040AC
:103420000000000000000000F680808040400000A6
:10343000808080404000000080804040000000000C
:1034400080404000000000004040000000000000FC
:10345000400000000000000000000000000000002C
:1034600000000000000000006F6F6F00F600B7B7AB
:103470006F6F6F00F600B7B76F6F6F00F600B7B7EA
:103480006F6F6F00F60000006F6E6F00F6006F6FD9
:103490006F6F6F00F600676F6F6F6F00F6006F6FF2
:1034A0006F6F6F00F6006F6FB7000000000000B78D
:1034B000B7B7B7B7B7B7B7B7B7B7B7B7B7B7B7B79C
:1034C00000000000000000006F6F6F6F6F6F6F6F84
:1034D0006F6F6F66666F6F6F6F6F6F6F6F666F6F17
:1034E0006F6F6F6F6F6F6F6FB7B7B7B7B700B7B763
:1034F000B7B7B7B7B700B7B7B7B7B7B7B700B7B7CA
:10350000000000000000B7B76F6F00666600B7B735
:103510006F6F006600B7B7B76F6F0000B7B7B7B788
:103520006F6F000000000000B7B70000000000004F
:10353000B7B7000000000000B7B7B70000000000F8
:10354000B7B7B70000000000B7B7B7B7000000007A
:10355000B7B7B7B700000000B7B7B7B7B7000000FC
:10356000000000000000000000003737000037377F
:1035700000003737000037370000373700002737A3
:103580000000373700000027000037370000000038
:1035900000003737000000370000373700003737AA
:1035A0000000272700002727000000373700000011
:1035B000370037373700000037373737270000002C
:1035C000373737270000000037373700000000008A
:1035D0003737373700000000270027373700000053
:1035E000000000272700000077777700F600777744
:1035F00077777700F600777777777700F600777739
:1036000077777700F600777777777700F600777728
:1036100077777700F600777777777700F600777718
:1036200077777700F6007777777777777777777799
:10363000777777777777777777777777777777771A
:10364000777777777777777777777777777777770A
:1036500077777777777777777777777777777777FA
:1036600077777777777777770000373700000037FD
:1036700000003737370037370000273737373737FD
:1036800000000027373737270000000037373700A2
:103690000000003737373737000037372700273724
:1036A000000027270000002737000000000000006E
:1036B00037000000000000002700000000000000AC
:1036C00000000000000000000000000000000000FA
:1036D00000000000000000003700000000000000B3
:1036E00027000000000000007777777777777777FB
:1036F000777777777777777777777777777777775A
:103700007777777777777777777777777777777749
:10371000777777777777777777000000000000007A
:10372000777777777777777777777700F600777798
:1037300077777700F600777777777700F6007777F7
:1037400077777700F600777777777700F6007777E7
:1037500077777700F60077777777000000000077BB
:10376000777777777777777777777777770000004E
:10377000777777770000FFFF7777777700007777A5
:103780007777777700007777777777770000000093
:10379000777777770000FFFF777777770000777785
:1037A00077777777FFFF7777000077770000777775
:1037B000FF000077000077777700007700007777C9
:1037C00077000077000077770000007700007777B8
:1037D000FF0000770000777777000077FF00000098
:1037E00077FFFF7777FFFFFF77000077000000008B
:1037F00077000077FFFFFF0077000077777777008B
:103800007700007777777700770000777777770012
:1038100077000077777777000000FF77777777007A
:10382000FFFF7777777777FF00000000770000775A
:1038300000FFFFFF7700007700777777770000774A
:10384000007777777700000000777777770000FFC1
:1038500000777777770000770077777777000077C2
:10386000FF77777777FFFF7777770000777700002C
:1038700077770000770000FF777700007700007708
:103880000000000077000077FFFF0000770000775E
:1038900077770000770000777777000077FF0000E8
:1038A0007777FFFF7777FFFF000000777700000052
:1038B000FFFF0000770000FF7777000077000077B8
:1038C00077770000770000777777000077000000B7
:1038D00077770000770000FF000000FF7700007797
:1038E000FFFFFF7777FFFF7700000000777777779C
:1038F000FFFFFF000077777777777700007777779C
:10390000777777000077777700000000FF77777789
:10391000FFFF0000777777777777FF00007777777B
:10392000777777FFFF777777777777777777000005
:1039300077777777777700007777777777770000F3
:1039400077777777777700007777777777770000E3
:1039500077777777777700007777777777770000D3
:10396000777777777777FFFF7700007777770000B3
:1039700077000000777700007700000000770000F4
:103980007700000000000000770000FF000000004A
:1039900077000077FF0000007700007777FF0000D6
:1039A00077FFFF777777FFFF7777000000000077DA
:1039B000770000FFFFFF00007700007777770000B7
:1039C00077000077777700007700000000000000A4
:1039D000770000FFFFFF0000770000777777000097
:1039E00077FFFF777777FFFF770000777700007723
:1039F000770000770000FF777700000000FF7777FF
:103A000077000000FF7777777700000000777777FF
:103A1000770000FF0000777777000077FF000077DE
:103A200077FFFF7777FFFF770000777777777777F4
:103A300000007777777777770000777777777777F2
:103A400000007777777777770000777777777777E2
:103A500000007777777777770000777777777777D2
:103A6000FFFF777777777777000000000000007717
:103A70000000FFFFFFFF000000007777777700006E
:103A8000000077777777000000000000000000FF5B
:103A90000000FFFFFFFFFF770000777777777777EA
:103AA000FFFF7777777777777700000000000000D7
:103AB000770000FFFFFFFF00770000777777770040
:103AC000770000777777770077000000000000002C
:103AD000770000FFFFFF0000770000777777FF0097
:103AE00077FFFF77777777FF777700007700000021
:103AF00000770000770000FF007700007700007774
:103B00000077000077000000FF770000770000FFDB
:103B100077770000770000770077000077000000DB
:103B2000FF77FFFF77FFFFFF000000007700000036
:103B3000FFFFFFFF77FFFFFF77777777777777775D
:103B40000000007777777777FFFFFF7777777777D2
:103B500077777777777777770000000077777777D1
:103B6000FFFFFFFF7777777700000000007777008F
:103B70000000FFFFFF7700000000777777770000F5
:103B8000000077777777000000007777777700007D
:103B90000000777777770000000077777777FF006E
:103BA000FFFF7777777777FF0000000077777777E9
:103BB000FFFFFF00007777777777770000777777D9
:103BC0007777770000777777777777000077777761
:103BD000777777000077777700000000FF777777B7
:103BE000FFFFFFFF7777777777770000000000000F
:103BF00000770000FFFFFFFF0077000077777777FF
:103C00000077000000000000FF770000FFFFFFFFCB
:103C10007777000077777777007700000000000063
:103C2000FF77FFFFFFFFFFFF000077770000000036
:103C3000FFFF770000FFFFFF777777000077777748
:103C4000777777FF0000000077777777FFFFFFFF38
:103C50007777777777777777000077000000000035
:103C6000FFFF77FFFFFFFFFF0000007777000000F6
:103C7000FFFFFF770000FFFF777777770000777708
:103C800000007777FF000000FF00007777FFFFFF5D
:103C900077000077777777770000FF7700000000E4
:103CA000FFFF7777FFFFFFFF000000007777777750
:103CB000FFFFFFFF77777777777777777777777774
:103CC0000000007777777777FFFF000077777777C7
:103CD0007777000077777777000000FF777777773F
:103CE000FFFFFF77777777777700007777770000A8
:103CF000770000007700000077FF0000000000FF61
:103D00007777FF000000FF777777770000007777FD
:103D1000777700000000007777000000FF000000C8
:103D200077FFFFFF77FFFFFF6F77C0C07777C0C0D7
:103D30007700000000000000C0000000000000004C
:103D4000C00000000000000077000000000000003C
:103D50007700000000000077C0000000000000773E
:103D6000C0000000000000777777C0C07777C0C040
:103D70000000000000000000000000000000000043
:103D80000000000000000000777777777777000069
:103D900077272727277777007700000000777700BD
:103DA00077000000007777007777C0C07777C0C0D2
:103DB0000000000000000000000000000000000003
:103DC0000000000000000000000077777777777729
:103DD0000077772727272727007777000000000044
:103DE00000777700000000007777C0C07777C0C009
:103DF00000000000000000000000000000000000C3
:103E000000000000000000007700007777770000D6
:103E100027000077777700000000007777770000B1
:103E200000000077777700007777C0C07777C0C051
:103E30000000000000000000000000000000000082
:103E400000000000000000007777777777777777BA
:103E500077772727272727777777000000000077D5
:103E600077770000000000777777C0C07777C0C011
:103E70000000000000000000000000000000000042
:103E800000000000000000000000007777770000CD
:103E9000770000777777000077000077777700006A
:103EA00077000077777700007777C0C07777C0C05A
:103EB0000000000000000000000000000000000002
:103EC00000000000000000000077777777777777B1
:103ED000777727272727272777770000000000001C
:103EE00077770000000000007777C0C07777C06F59
:103EF00000000000000000C000000000000000778B
:103F0000000000000000007700000000000000C07A
:103F100000000000000000C000000000000000776A
:103F2000000000000000007777000000000000772C
:103F30007700000000000077C0000000000000775C
:103F4000C00000000000007777000000000000279C
:103F50007700000000000000C0000000000000002A
:103F6000C00000000000000077000000007777002C
:103F70007700000000777700770000000077770077
:103F800077000000007777007777777777772700DB
:103F90002727272727270000000000000000000037
:103FA0000000000000000000002777777777777720
:103FB0000000272727272777000000000000007750
:103FC0000000000000000077007777777777777739
:103FD00000272727272727270000000000000000D0
:103FE000000000000000000000000077777700006C
:103FF0007700007777770000770000777777000009
:104000007700007777770000270000777777000048
:10401000000000272727000000000000000000002B
:10402000000000000000000077770000000000772B
:104030007777777777777777777727272727777750
:10404000777700000000277777770000000000777F
:1040500027270000000000270000000000000000EB
:104060000000000000000000770000777777000074
:10407000270000777777000000000077777700004F
:104080007700007777770000770000777777000078
:104090002700002727270000000000000000000084
:1040A000000000000000000027777777777777001F
:1040B0000027272727277777000000000000777761
:1040C000000000000000777777777777777777279A
:1040D00027272727272727000000000000000000CF
:1040E000000000000000000000000000000000C010
:1040F00000000000000000C0000000000000007789
:10410000000000000000007700000000000000C078
:1041100000000000000000C0000000000000007768
:1041200000000000000000777700000000000000A1
:104130007700000000000000C000000000E2E20084
:10414000C000000000E2E2007700000000E2E200B0
:104150007700000000E2E200C000000000E2E200A0
:10416000C000000000E2E2000000000000000000CB
:1041700000000000000000000000000000E2E2E299
:1041800000000000E2E2D0D000000000E2E2000007
:1041900000000000E2E2000000000000E2E2000097
:1041A00000000000E2E2000000000000000000004B
:1041B0000000000000000000E2E20000E2E2E2E2B3
:1041C000D0E2E200E2E2D0D000E2E200E2E200006F
:1041D00000E2E200E2E2000000E2E200E2E2E2E20B
:1041E00000E2E200E2E2D0D00000000000000000A7
:1041F0000000000000000000E2E2E20000E2E2E273
:10420000D0D0E2E200E2E2D00000E2E200E2E2002E
:104210000000E2E200E2E200E2E2E2D000E2E200DC
:10422000D0E2E20000E2E200000000000000000036
:104230000000000000000000E2E2E20000000000D8
:10424000D0D0E2E2000000000000E2E20000000046
:104250000000E2E2000000000000E2E200000000D6
:104260000000E2E20000000000000000000000008A
:10427000000000000000000000000000E2E2E2E2B6
:10428000000000E2E2D0D0D0000000E2E200000036
:10429000000000E2E2000000000000E2E200000096
:1042A000000000E2E200000000000000000000004A
:1042B0000000000000000000E20000E2E2E2E2E2B2
:1042C000E2E200E2E2D0D0D0E2E200E2E20000006E
:1042D000E2E200E2E2E2E2E2E2E200E2E2D0D0D0B8
:1042E000E2E200E2E200000000000000000000C086
:1042F00000000000000000C0E2E2E20000000077E1
:10430000D0D0D0000000007700000000000000C006
:10431000E2000000000000C0D000000000000077B4
:1043200000000000000000777700000000E2E2E2F9
:104330007700000000D0D0D0C000000000000000D6
:10434000C00000000000000077000000000000E254
:10435000770000000000E2E2C00000000000E2E29E
:10436000C00000000000D0E2E2E2E200D0E2E2E2BF
:10437000D0D0D00000D0D0D000000000000000005D
:104380000000000000000000E2E2E2E2E2E200E2FF
:10439000D0D0D0D0D0D000E200000000000000E279
:1043A000E2E2E2E2E20000E2E2E2D000E2E2000069
:1043B000D0D00000D0D000000000000000000000BD
:1043C0000000000000000000E200E2E20000000047
:1043D000E200E2E200000000E200E2E20000000091
:1043E000E200E2E20000000000D0E2E200E2E2E2ED
:1043F0000000D0D000D0D0D00000000000000000AD
:10440000000000000000000000E2E2E2E2E2E2E27E
:1044100000E2E2D0D0D0D0D000E2E2000000000004
:1044200000E2E2E2E2E2E200E2E2E2D000000000CA
:10443000D0D0D0000000000000000000000000000C
:104440000000000000000000E200E2E2000000E2E4
:10445000D000E2E2E20000E20000E2E2E2E200E29A
:104460000000E2E2E2E2E2E2000000D0E2E2E2E2A8
:1044700000000000D0D0D0D00000000000000000FC
:104480000000000000000000E20000E2E2E2E2E2E0
:10449000E200E2E2D0D0D0E2E200E2E2000000D0AE
:1044A000E200E2E200000000E2D000E2E2000000F0
:1044B000D00000D0D000000000000000000000008C
:1044C00000000000000000000000E2E2E2E2E2E2A0
:1044D000E200E2E2D0D0D0D0D000E2E20000000062
:1044E0000000E2E2E2E2E2E200000000000000C0C0
:1044F00000000000000000C0000000000000007785
:104500000000000000000077E2E20000000000C0B0
:10451000D0D00000000000C00000000000000077C4
:10452000000000000000007777000000000000D0CD
:104530007700000000000000C00000000000E2E280
:10454000C00000000000D0D0770000000000000094
:104550007700000000000000C00000000000000024
:104560006FC07777C0C07777D0D0D0D0E2E200E2DA
:1045700000000000E2E200E2E2E2E2E2E2D000E279
:10458000D0D0D0D0D00000D000000000000000004B
:10459000000000000000000000000000000000001B
:1045A000C0C07777C0C07777E200E2E20000000089
:1045B000E200E2E200000000E200E2E2E2E2E2E227
:1045C000D000D0D0D0D0D0D000000000000000003B
:1045D00000000000000000000000000000000000DB
:1045E000C0C07777C0C0777700E2E2D0D0D0D000EB
:1045F00000E2E2000000000000E2E2E2E2E2E2E2C9
:1046000000D0D0D0D0D0D0D00000000000000000FA
:10461000000000000000000000000000000000009A
:10462000C0C07777C0C077770000E2E2D0E2E2E274
:104630000000E2E200D0E2E2E200E2E20000D0E2CA
:10464000D000D0D0000000D000000000000000002A
:10465000000000000000000000000000000000005A
:10466000C0C07777C0C07777E200E2E200000000C8
:10467000E200E2E2000000E2E200D0E2E2E2E2E296
:10468000D00000D0D0D0D0D000000000000000004A
:10469000000000000000000000000000000000001A
:1046A000C0C07777C0C077770000E2E2D0D0D0D02A
:1046B000E200E2E200000000D000E2E2E2E2E2E238
:1046C0000000D0D0D0D0D0D000000000000000000A
:1046D00000000000000000000000000000000000DA
:1046E000C0C07777C0C0777700000000000000C02E
:1046F00000000000000000C0E2E2000000000077BF
:10470000D0D000000000007700000000000000C0D2
:1047100000000000000000C0000000000000007762
:10472000C0C07777C0C0776F07017B7C81828384AC
:104730008501016D12016F707172737475767778EF
:10474000797A7B7C7D7E7F800805868788898A8B45
:104750008C8D8E8F909192939495969798999A9B21
:104760009C9D9E9FA0A1A2A3A4A5A6A7A8A9AAAB11
:10477000ACAD040545460047555657586364656619
:10478000696A6A6A6E6A6A6A02021C1D2E2F01013A
:104790000A010109010108030342434452535460D2
:1047A000616202010E0F0201484906040B0C0D0E56
:1047B0000F1000141516171826152728292A151F5B
:1047C0003738393A0202222333340202242535369F
:1047D00004021E1F2021301F313201010701010692
:1047E00002016B6C02016768030140505F030140E6
:1047F0005051020140500201404102015D5E010141
:104800003F01014F01013F05013B3C3D3C3E0101A1
:104810000301012C01011A01012B01011901015AA7
:1048200001014B01015901014A01014C01015C01E7
:10483000015B01014E01014D01011B01012D01012F
:10484000040101050101130101120101110101021D
:104850000101000011241FBECFEFD0E1DEBFCDBFAC
:1048600011E0A0E0B1E0EAE3F9E702C005900D92A3
:10487000A230B107D9F720E1A2E0B1E001C01D925A
:10488000AA31B207E1F714BE0FB6F894A89580914B
:104890006000886180936000109260000FBEF89401
:1048A00080E790E0FC0125913491F901FF273083E6
:1048B000029620E0823A9207A9F70E949729811177
:1048C00002C00E94752981E08093B60D8093B70DD8
:1048D0008093B50D1092A20D1092A80D1092AE0DFE
:1048E0001092B40D1092BA0D1092700D1092720DBC
:1048F00092E19093710D90EE9093780D94E19093E6
:10490000770D10927C0D10927B0D1092800D1092FD
:104910007F0D8093A10D0E94D13478940E94373589
:104920000E94623B0C949B3C0C94000003E80A95A7
:10493000F1F700C00091600DECEFFCE023E0029F76
:10494000E00DF11D20915F0D3CE3321B300F20176D
:1049500051F000000000A191B1911C9111930C93B2
:1049600003950217C0F313E01A95F1F700C03A95CA
:10497000D1F7C0E2D1E0662717E01A95F1F700C041
:1049800040916E0D50916F0D60906A0D70906B0D9F
:10499000D3015E01762F00C030916D0D303009F0EB
:1049A000C8E609F0D4E009F0DA0115E01A95F1F74C
:1049B0008090780D07E00093360001E000938100BD
:1049C00001E000936F0008E0609F8D0100541840E3
:1049D000000D111D18010CEB14E0000D111D280134
:1049E00000E4E02E03E31AEFCF93DF93599100C068
:1049F00000C01FD32CE02A95F1F710938500009397
:104A00008400789400275E9D5132F10108F4F20190
:104A1000001FE00DF11D1AE01A95F1F700001127B3
:104A200000FF02C0000065C048C018B90F900F9089
:104A3000DF91CF9103E00A95F1F700C063958A9466
:104A4000B1F0683029F007E00A95F1F700C0BBCF5C
:104A500066276E960491049100C03A9509F4672F79
:104A600009F4E50100C000C009F4D301ACCF20E196
:104A70002A95F1F700E0009385000CE20093840092
:104A8000D8D211240E94BE26E091720D42E0E1606E
:104A9000E427E093720D07E00093360009E00093ED
:104AA000810002E000936F000895059108B9020C9F
:104AB0000000059108B9131CF001059108B900C068
:104AC000059108B94991059108B900C0059108B947
:104AD0004E9D059108B941320000059108B928F7AB
:104AE0000000059108B9040C0000059108B9151CD7
:104AF000F0010000019108B949910000019108B945
:104B000000004E9D019108B90491019108B90491EA
:104B1000019108B9413200C0019108B950F4000078
:104B2000040C019108B9151C00000191F00108B9AD
:104B3000E0CF020C019108B9131C00000191F001B3
:104B400008B9BBCF20E4E0916A0DF0916B0D829F14
:104B5000E00DF11DACEBB4E0629FA00DB11D15900E
:104B60001D9215901D9215901D9215901D921590F5
:104B70001D9215901D9215901D9215901D921590E5
:104B80001D9215901D9215901D9215901D921590D5
:104B90001D9215901D9215901D9215901D921590C5
:104BA0001D9215901D9215901D9215901D921590B5
:104BB0001D9215901D9215901D9215901D921590A5
:104BC0001D9215901D9215901D9215901D92159095
:104BD0001D9215901D9215901D9215901D92159085
:104BE0001D9215901D9215901D9215901D92159075
:104BF0001D9215901D9215901D9215901D92159065
:104C00001D9215901D9215901D9215901D92159054
:104C10001D9215901D9215901D9215901D92159044
:104C20001D9215901D9215901D9215901D92159034
:104C30001D9215901D9215901D9215901D92159024
:104C40001D9215901D9215901D9215901D92159014
:104C50001D9215901D9215901D9215901D92112474
:104C6000089520E4ECEBF4E0829FE00DF11DACEB45
:104C7000B4E0629FA00DB11D11901D9211901D9284
:104C800011901D9211901D9211901D9211901D92E4
:104C900011901D9211901D9211901D9211901D92D4
:104CA00011901D9211901D9211901D9211901D92C4
:104CB00011901D9211901D9211901D9211901D92B4
:104CC00011901D9211901D9211901D9211901D92A4
:104CD00011901D9211901D9211901D9211901D9294
:104CE00011901D9211901D9211901D9211901D9284
:104CF00011901D9211901D9211901D9211901D9274
:104D000011901D9211901D9211901D9211901D9263
:104D100011901D9211901D9211901D9211901D9253
:104D200011901D9211901D9211901D9211901D9243
:104D300011901D9211901D9211901D9211901D9233
:104D400011901D9211901D9211901D9211901D9223
:104D500011901D9211901D9211901D9211901D9213
:104D600011901D9211901D9211901D9211901D9203
:104D700011901D9211901D9211240895E091600DE3
:104D80008E2FEE0FE80FFF27E450F34F00905F0DDA
:104D9000801930F4A191B19101900C928395D1F7D3
:104DA000089598E0799FA12DBB27AE59B24FED91A0
:104DB000FD9190E4699FE00DF11D899FD001A454FD
:104DC000BB4F90E040FD09C0822F48E0421B70FFBE
:104DD0000AC01796E80FF91F08C088E0821B422F0F
:104DE00070FFF8CF1197A20FB91F68E028E0231BCE
:104DF00050FD09C0639FA00DB11D71FDE85C71FD00
:104E0000FF4F122E08C0132E1A9471FF122E619DAF
:104E1000E00DF11D132E71FD409770FD05C057EF99
:104E2000540F70E061E004C059EF541B7FEF6FEF47
:104E30003EEF042E469530F461F0259123132C9318
:104E4000A60FB71F259123132C93A60FB71F415010
:104E5000A1F7259123132C931A9449F0E80FF91F19
:104E6000A51BBF4F402D469568F739F7F2CF08953F
:104E70000F921F92EF93FF93FFB7E0918400FF938F
:104E8000E2FD04C0E1FD02C0000000C0E0FF00C080
:104E9000E091710DEA95E093710DF091700DF0FDC8
:104EA00051C0EC3098F0F3E0F0938900FDE8F09306
:104EB0008800E0FB289826F4E1E00E942A28B2C08E
:104EC000E5E1EA95F1F70000289AACC0E63008F178
:104ED00000C000C02898E0FBE4E016F40E942A28F5
:104EE000E4E0E0933600E6E0E0936F009BC0EF93D0
:104EF000E0918400E2FD04C0E1FD02C0000000C0BA
:104F0000E0FF00C0E2E00000289AE0936F00EF911C
:104F1000189500C0E0FB289826F4E1E00E942A28BA
:104F200005C0E5E1EA95F1F70000289AE091710DDE
:104F3000E03009F077C0EDEFE093710DE1E0E09330
:104F4000700D70C0E7E0E0938900EBE1E09388002A
:104F500000C02898E2E000C00E942A28FDEF0090DF
:104F6000770DF019E091710DEF17D8F4FDEF009077
:104F7000770DF0190090780DF019EF1790F0EDE132
:104F8000FF2700800F92EA95E1F70DE00A95F1F70F
:104F900000C00E949624E1E0FF270F900192EE31BD
:104FA000E0F3E091710DE03009F03CC02F933F93A6
:104FB0004F935F936F937F938F939F93AF93BF9321
:104FC00078941124EE27E093700DE2E1E093710DE7
:104FD0008091810D9091820D01968093810D909327
:104FE000820DE091730DF091740DE115F10509F05A
:104FF00009950E9465290E9494350E942428112455
:10500000E091750DF091760DE115F10509F0099526
:10501000BF91AF919F918F917F916F915F914F91D0
:105020003F912F91EF91EFBFFF91EF911F900F9064
:1050300018952898E2E000C00E942A28E091710D9E
:10504000EA95E093710D0895E091A10DE0FD0E94B5
:10505000AC2B08952F931F930F932E2F1091A50D16
:10506000E091A60DF091A70D0091A30D100F0091F6
:10507000A40DE01F0491E093A60D1093A50D1091CF
:10508000A20D010300081091AB0DE091AC0DF09161
:10509000AD0D0091A90D100F0091AA0DE01F049114
:1050A000E093AC0D1093AB0DF0011091A80D01032E
:1050B00000081F0E1091B10D20FD289A0E1EE091E0
:1050C000B20DF091B30D0091AF0D100F0091B00D26
:1050D000E01F0491E093B20D1093B10DF001109117
:1050E000AE0D010300081F0E0E1E0091B60D1091AB
:1050F000B70DF091B40DF695889400FDF195EE0B87
:105100001F0E0E1EE091B80DE25020F0E491E491E4
:10511000E4910AC0E02F16950795E027E0FB16F909
:10512000E091B50DE0FF06F90093B60D1093B70DB1
:10513000E093B80D10E0E091BD0DF091BB0D21FDA5
:10514000289AEF0FE093BD0DE091BE0DF091BF0DD9
:105150000091BC0DE01FF11F0091C20D1091C30D15
:10516000E017F10718F4049100C006C00091C00DCB
:105170001091C10DE01BF10BE093BE0DF093BF0D3C
:105180000491F0011091BA0D010300081F0E0E1ECC
:10519000F0010F911F91F058EF4F1AF4F0E000006A
:1051A00003C0E03009F0FFEFF093B3002F910895B2
:1051B0008093620D9093630D0895E8E4F3E0A0E21C
:1051C000B1E061E26D933197E9F7112408959927D1
:1051D00077272EE1629F080E191EA0E2B1E0A00D14
:1051E000B11D4F5D4C931124089580936A0D9093E7
:1051F0006B0D08958091720D817008952091720D4C
:105200002E7F2093720D0895882329F48091790DC3
:1052100090917A0D089580917D0D90917E0D089565
:10522000E0E6F0E0808183FD089588E198E0F8945D
:10523000808390837894FFCFF999FECF92BD81BD92
:1052400060BDF894FA9AF99A78940895F999FECF86
:1052500092BD81BDF894F89A80B578940895129A19
:10526000C895C895C895C895129840E190E080E02F
:1052700030E020E03695279596958795C895C89596
:10528000C895C8951398009B3068019B9068139A45
:10529000C895C895C895C895415061F730937A0D67
:1052A0002093790D90937E0D80937D0D8091790DE3
:1052B00090917A0D0F9731F080917D0D90917E0D38
:1052C0000F9711F40C94102908951092C40D0099B1
:1052D00003C081E08093C40D019905C08091C40D85
:1052E00082608093C40D0C942F29CF93DF93D0E07C
:1052F000C0E0FE01EE55FF4F6491CE010E941C29D3
:105300002196C032D105A9F7C0E2D0E06FEFCE01FF
:105310000E941C296FEFCE0101960E941C29A096C5
:10532000C11588E0D80791F7DF91CF910895CF9309
:10533000DF9390E080E00E942629C82F81E090E072
:105340000E94262990E0982F8827C80FD92FD11DB9
:1053500081E0CA35D54509F080E0DF91CF9108950D
:10536000FC0167870895E2EAFDE081E091E0958B1A
:10537000848B638B0895FC0190819F7590830895C1
:10538000FC019081906490830895FC0166870895E4
:10539000FC0162870895FC0163870895CF93DF9332
:1053A000EC01262F3981832F90E0FC01EE0FFF1FC7
:1053B000EA59F44A45915491FC01E60FF11D67FD4D
:1053C000FA95EE0FFF1FEA59F44A85919491841BD8
:1053D000950B688570E00E947E3C6115710511F4A3
:1053E00061E070E0EA8186E0E89FF0011124EE556B
:1053F000F24F81819281860F971F928381837E83F2
:105400006D83888188608883230F2F83DF91CF91FC
:105410000895FC0160870895FC0164830895FC01F0
:1054200082810C94962DFC018181680F61838281B9
:105430000C947F2DFC019181961B692F91838281B1
:105440000C947F2D1F93CF93DF93EC01162F8A814D
:105450000E947F2D19838881877F8883DF91CF9178
:105460001F910895CF93DF93EC018C818823A1F0E5
:105470002D893E89662399F0062E000C770B6F5F0D
:105480007F4FAB01440F551F640F751F261B370B51
:105490003E8B2D8B81508C83DF91CF9108952350CB
:1054A0003109F9013297E491ED3091F3EF3FB9F70B
:1054B000EFCF90933D0E80933C0E8FE680933F0E8E
:1054C0001092A00DE7ECFDE080E090E13FEF28E1D5
:1054D0008283908315863487108A238790878F5F15
:1054E00077968530A9F70895CF93DF93EC01E88193
:1054F000F981CF01019699838883949197FD05C026
:10550000892F90E0DF91CF9108959F77892F90E0C8
:105510009F012E5F3F4F9695982F882797958795E7
:10552000522F432FF9013197E4916E2F6F77860F39
:10553000911D2F5F3F4FE7FDEECF58834983E2CFA8
:10554000FF920F931F93CF93DF93EC01162F022F3F
:10555000F8801F868FEF8E874D871C8A9F2D977B43
:10556000988329831A8619861C828B838A818330CB
:1055700031F5F7FC062F81E091E09093B70D809311
:10558000B60D81E08093B50D102FF7FE52C0198B38
:10559000E0913C0EF0913D0E89E0189FE00DF11D69
:1055A0001124339685919491009709F044C01E8A86
:1055B0001D8ADF91CF911F910F91FF900895843044
:1055C00009F031C01092BD0D80913C0E90913D0EBE
:1055D00029E0629F800D911D1124FC0131964591B7
:1055E00054915093BF0D4093BE0D9C01295F3F4FD6
:1055F000F901659174910596FC0185919491681B60
:10560000790B7093C10D6093C00DF9018591949150
:10561000480F591F5093C30D4093C20D602F84E073
:105620000E947F2DB2CF60E00E94962D602F8A816C
:10563000F7CF188BADCF1B8AFC0124912A8B0196E2
:105640009E8B8D8BB6CFCF93DF93E0913C0EF09184
:105650003D0E99E0899FE00DF11D1124E491C3E016
:10566000E130F1F0C4E0E230D9F09091DE0D97FF27
:1056700016C09091EF0D981302C0411110C0909187
:10568000F50D97FF23C09091060E981302C04111AB
:105690001DC02091F20D9091090E9217B8F4C1E04F
:1056A00097E1C99FE0011124C953D24F90E8988334
:1056B0001E8A1D8A20E5462F682FCE010E94A02A4F
:1056C000888180628883DF91CF910895C2E0E8CF1E
:1056D000CF93DF93A82FB0E097E1899FF0011124C9
:1056E000E953F24F908195FF02C097FD19C0211137
:1056F0001AC087E18A9FF0018B9FF00D1124E953B6
:10570000F24F8785811102C096FF158687E18A9F37
:10571000F0018B9FF00D1124E953F24F9F7B908392
:10572000DF91CF910895322F242F97E19A9FE001C6
:105730009B9FD00D1124C953D24F18821E8A1D8AF7
:10574000899FC0011124432F8953924F0E94A02AA0
:10575000888180628883E4CFEF92FF920F931F933A
:10576000CF93DF93C7ECDDE002EA1DE0C801DE0164
:10577000FD014785442389F02685042E000C550B36
:10578000240F352F311D2F3F310519F014F02FEF65
:1057900030E037FD20E0FD0126876C9163FF1CC0DF
:1057A000FD0145815681FC0121813281240F351F85
:1057B00032832183FD017781E72FF0E0EE0FFF1F99
:1057C000EA59F44AE590F490141615060CF0CEC090
:1057D0002E153F0508F0D1C057960696FEE0AA3375
:1057E000BF0731F68091A00D882381F187E1F82E63
:1057F00080913A0E90913B0E2091400E3091410ED7
:1058000082179307F1F42091430E3091440EB901B1
:105810006F5F7F4F7093440E6093430EF901449184
:105820004F3F09F0DBC0A9014E5F5F4F5093440E1C
:105830004093430EFB0164916F3209F0A4C01092B3
:10584000A00D019690933B0E80933A0EEE24EA94BD
:10585000F12C888185FF1CC02D893E89232BC1F046
:1058600086FD16C09B898A89981310C0ED89FE8930
:10587000BF016F5F7F4F7E8B6D8B84918F3F09F0EF
:1058800020C188818F7788831E8A1D8A9F5F9B8BAA
:10589000988180E095FF59C08C898F3F11F08F5F10
:1058A0008C8B97FD28C19C858D852985882309F4DB
:1058B00024C16E85662309F420C1992309F41DC112
:1058C00030913F0E332309F418C1899FC001112480
:1058D0009395892F9927689FA001699F500D1124E6
:1058E000CA0193956B81892F9927689FA001699FB1
:1058F000500D11245395452F5527349FC001359FD6
:10590000900D11249395892F99273A853323D1F04F
:10591000E22FF0E0E050F34AE491E058E39FF00119
:105920001124F395EF2FFF27B7016E1B7F0B689FA4
:10593000A001699F500D789F500D1124CA019395C5
:10594000892F99273B85230F2987F8018083679644
:105950000A5F1F4FFEE0CA33DF0709F07ACFDF91FD
:10596000CF911F910F91FF90EF900895452B09F46F
:1059700033CFE216F30608F42FCFFC01F282E18266
:10598000677F6C9329CF663089F4FA014491C9018D
:1059900004969093440E8093430EF9013396E4915C
:1059A000E33589F49093460E8093450E83E49EE0A0
:1059B0000E94742A9093410E8093400E10923B0EE9
:1059C00010923A0E15CFE53489F78091450E9091EB
:1059D000460E9093440E8093430EE8CF47FD4093CC
:1059E0003E0E90913E0E892F8F7047FF08C02E5FAC
:1059F0003F4F3093440E2093430EFB014491907F20
:105A0000903BD9F0903C09F455C0903979F6E0917B
:105A1000430EF091440E9F012F5F3F4F3093440E91
:105A20002093430E2491220FF89EF0011124E95394
:105A3000F24F60890E94682BB9CFE091430EF0913C
:105A4000440E9F012F5F3F4F3093440E2093430E2F
:105A5000E491473051F4F89EC00111248953924FCC
:105A60002E2F220FFC012487A1CF4B3051F4F89E3A
:105A7000C00111248953924F2E2F220FFC01238342
:105A800095CF4C3551F4F89EC00111248953924FA3
:105A90002E2F220FFC01228789CF443609F086CFB2
:105AA000F89EC00111248953924F2E2F220FFC0122
:105AB00023877CCFF89EF0011124E953F24F408BED
:105AC00075CF3296FE8BED8BFB016491E82FF0E0F1
:105AD000EE0FFF1FEE53FF4F25913491CE01F901D8
