:100000000C94262A0C94902A0C94902A0C94902AF2
:100010000C94902A0C94902A0C94902A0C94902A78
:100020000C94902A0C94902A0C94902A0C94902A68
:100030000C94902A0C94342D0C94732D0C94112B49
:100040000C94902A0C94902A0C94902A0C94902A48
:100050000C94902A0C94902A0C94902A0C94902A38
:100060000C94902A0C94902A0C94902A0C94902A28
:10007000810045005DFF5E1027FF2AD22B7D210CF9
:1000800022FB850084008903888D81096F02444228
:1000900047004501B083B300B10124B925578A1D3B
:1000A0008B035A55012001010038080000000000B0
:1000B0000000000000000000000000000000000040
:1000C0000000AC2FAF2F0B300F301630B72FBC2FE6
:1000D000C12F1E30C42FC72FCA2F053008302E3035
:1000E00000408891D2E4ADB5B6BEBFFF0503001352
:1000F0001415161718191A1B1C1D1E1F00050400C5
:100100000102030405060708090A0B0C0D000E0F77
:1001100010111200000000000000000000000000AC
:1001200000000000000000000000000000000000CF
:1001300000000000000000000000000000000000BF
:1001400000000000000000000000000000000000AF
:10015000000000000000000000000000000000009F
:10016000000000000000000000000000000000008F
:1001700000004900000000004952520000004952AE
:10018000531C25004952522425251B52525C2D2D0B
:100190001C121200000000000000000000000040DF
:1001A00049494900404949525B5B5B4A52525B1CDA
:1001B0001C13125B1C241C12090909241B120909B7
:1001C00009090A0A0A0A0A0A0A0A130A0A120A0A80
:1001D00012130A0000000000000000925252525216
:1001E00052524913121309001C1B130A1212401B0E
:1001F00065641C090A0009241B1C65120000251CEB
:100200001C1C1C010025241C1C1C1C00242524244F
:10021000241C1C00000000000000004940000000F9
:1002200000000052494900000000001C5B4A4800E1
:100230000000001C255249000000006524644900AC
:1002400000000065256449000000006D2E5C490037
:10025000000000000000000000405200000000000C
:1002600049525C0000000053522425000000535204
:1002700025252500004A5225251B0000005B25137B
:1002800000001B005B53000A1C3737095B1C657FAD
:10029000372E2E522E2E1C131312002E251B131236
:1002A0000000121C1C12000012251C120000122E4D
:1002B000371C1300132E37361C131B37372E2E25F1
:1002C000131C1C2E2E2E2E1B1C1C1C6E6E6E1C1C3A
:1002D0001C1C1C09131312121313001313131313F2
:1002E0001C0009131313131C0100371313131C13E1
:1002F000002E2E1B1B1C1C001C772E1B1B25001305
:100300007F251C1C1C010A37241C1C1C130A2E25CB
:10031000250900132E2425252525252E25252525CF
:1003200025252525252D2E251B1C1C2E2E251C1391
:10033000251B13251C1C1C1C0109521C1C1300012D
:100340001C5B5C0A000165775C1B00016E7F6E52CE
:100350001B00006D1C5249000000001C13530000DC
:100360000000001C524A00000000005B5B0000001F
:100370000000005C00000000000000000000000021
:10038000000000000000000000000000000000006D
:10039000000000135B7F776E6E6E6E136577766E6E
:1003A0006E6E6E1B65777676766E771B5BBF76B664
:1003B00076767609136DBFB7B6B765001B125C760B
:1003C000BF766D0000121B125B5B5C000000000931
:1003D0000A12136E77241C1C1C1C1C77251C1C1C69
:1003E0001C24256E1C1C1C2425251B1C1C242525B7
:1003F000130000646D6D1B00096EBF6D5B09126E0A
:10040000BF6D5B5B125B645B121312131B1212094C
:100410000100001C242E1C0900096E25240100097E
:10042000767F7F000012777F7F641264BFBF775BA7
:10043000121B09BF6D5B121B09000012131B090080
:1004400000000009000000000000000000000000A3
:100450000000007F7F53131300000064121B010093
:100460000000001B1200000000000000000000005F
:10047000000000000000000000000000000000007C
:10048000000000000000000000000000000000006C
:100490000000000000000000000000260000002610
:1004A0000026262F0000002F000000370000003734
:1004B000000000FF000000FF000000BF000000BFC0
:1004C0000000BF370000370000370000262600007C
:1004D0000026260000000000000000262626002638
:1004E00026262600002F002F0000000037000037CE
:1004F000000000FF000000FFFFFFFF00000000BF42
:10050000000000000000003700000026262600261C
:1005100026262600000000000000002600262626D1
:1005200026000000002F0000002F00000037000010
:100530000037000000FFFFFFFF00000000BF0000C9
:1005400000BF0000003700000037002600262626E6
:100550002600000000000000000000000026262603
:10056000002600002F00002F002F0037000000376A
:10057000000037FF000000FF000000BF000000BFC8
:100580000000BF3700003700003700262626000095
:10059000002600000000000000000000002600000F
:1005A00000000000002F00000000000037000000E5
:1005B000000000FF0000000000000000BF0000007D
:1005C00000000000003700000000000000260000CE
:1005D000000000000000000000000000000000001B
:1005E000000000000000000000000000000000000B
:1005F0000000E400000000099BEDF60000009BA451
:10060000ADBFBF00529BA4767F7FB75B9B6D777FAA
:10061000766EB70000000000000000000000005BE4
:10062000B6F6F6005BF6FFFFFFFFBFF6FFFFFFFF2A
:10063000BFBFAEFFBFFFFFFFB7AD65BFBFFFFFB7D7
:10064000B6AD65B7BFFFFFBFB7AE6EB7BFFFFFBFA9
:10065000B7B7650000000000000000F6F6EDEDAD54
:10066000A4A49BB66D6D5C526E656465656552654C
:10067000766D255C5C52536E24656E6552526E2514
:100680002524255B52772D25252524526E6E2D2598
:1006900025252500000000000000009B4900000007
:1006A000000000A49B920000000000256493490014
:1006B000000000652E9B52000000006D2565520071
:1006C0000000006D2D6552000000006E2E64520087
:1006D000000000000000000000495B000000000076
:1006E0004A5B65000000005B9B6D2D0000005B5BBA
:1006F0002D2E250000525B2E2E1C0900015B2D1CA7
:1007000001091C005C5B014A65777F4A5B1C6E7FB8
:100710007777769B77776D656E6EA4776E65656586
:100720005BA4B725255C52526DBFBF130949647F96
:10073000BFBFBF095C7F7FBFBFB7BF7F7F777F7FB2
:10074000B7BFBF77777F7F6EB7BFBF777F7F6E778B
:10075000BFBFBFB6FFFFFFBFBFB75BBFFFFFFFBF9E
:10076000BFA464BFFFFFFFBFADA47FBFFFFFFFBFFC
:10077000A4BF7FFFFFFFBFADBFBFBFFFFFFFB6BF7F
:10078000BFBF77FFFFF7BFBFBF7777FFFFFFBFBFD9
:10079000BF64526D7F6E2E2D2D256E7F766E6E6E30
:1007A0002E2565777777762E1C25247F776E251C7E
:1007B000251C1B776525251C090A5B6E6E1C0949E3
:1007C0002564645B494A6E7F645C005377BF775B46
:1007D0005C00006E255B4A000000001C1B5B0000F3
:1007E000000000245B5300000000005B5C00000080
:1007F0000000006400000000000000000000000095
:1008000000000000000000000000000000000000E8
:100810000000005B5C7FBF777677775C6D7FB77792
:100820007777775C6D7FBF777777BF5C64BFBFBF3B
:10083000BFBF7F0A5C6EBFBFBFBF760065646DBF80
:10084000BFBFBF00005B6D646DADB600000000125D
:100850005B646D777F6E6E77BFBFBF7F766D767797
:10086000BFBFBF776D6E767FBFBFBF6D6E767FBF38
:10087000B7ADF676BFBF76A4ADFFFFBFB664ADFFE0
:10088000FFFFFFB6ADBFFFFFFFFFF6ADB6AD645B88
:10089000520000FFFFBFBFAD5B64BFFFFFB6ADAD51
:1008A000BFFFBFFFF6FFFFFFFFBF64FFFFFFFFBFFC
:1008B000B6765BFFFFFFBFBF5B0000FFFFFF5C0082
:1008C000000000A400000000000000000000000084
:1008D000000000BFBF645C5C0000006E5C65490006
:1008E0000000006D5B000000000000000000000040
:1008F00000000000000000000000000000000000F8
:1009000000000000000000000000000000000000E7
:100910000000000000001C090000000000020800A8
:10092000085504085A0000F8000990000A1E320514
:100930000000FF01010101010101010101010101AB
:100940000101010101010101010101010101010197
:100950000101010101010101010101010101010187
:100960000101010101010101010101010101010177
:100970000101010101010101010101010101010167
:100980000101010101010101010101010101010157
:100990000101010101010101010101010101010147
:1009A0000101010101010101010101010101010137
:1009B0000101010101010101010101010101010127
:1009C0000101010101010101010101010101010117
:1009D0000101010101010101010101010101010107
:1009E00001010101010101010101010101010101F7
:1009F00001010101010101010101010101010101E7
:100A000001010101010101010101010101010101D6
:100A100001010101010101010101010101010101C6
:100A20000101010101170A0A0A0A0A130A0A0A0A3D
:100A30000A1801171600000000000B00000000005B
:100A40000B010B001E0E0014000B00000000000B39
:100A5000010B000C16002B000B000E0000000B0118
:100A60000B2900000000000B000F0000000B010B21
:100A70000000000000280B000000281716010B00E2
:100A800000000000000F000000000B01010B00003F
:100A90000014000000000000000B01010B0000002A
:100AA00000000000000014000B0101150A180000EE
:100AB0000000002A0000000B01010101150A0A0ACA
:100AC0000A0A1800170A16010101010101010101BA
:100AD000010B00150A0A18010101010101010101C0
:100AE0000B000000060B01010101010101010118C9
:100AF0000A0A18000B010101170A0A0A0A180B005A
:100B0000150A0A1801011716002B00000B0B05002F
:100B100000000B011716000017180015140A0A1818
:100B2000000B010B00000015160000150A0A10004A
:100B30000B010B000000000000000000000B000B88
:100B4000010B000000000000001718000B000B0153
:100B50000B00170D290000000B0B000F000B010B01
:100B6000000F0000000017160B0000000B010B0027
:100B700000000000171614150A0A0A16010B0017C8
:100B80000A18000B0E170A0A0A0A18010B000B14A8
:100B90000B000B0F0B000000000B010B00150A16D9
:100BA00000150A16001718000B010B0000000000CA
:100BB000000000000B0B000B01150A0A0A0A0A0AC2
:100BC0000A0A0A16150A16010101010101010101B3
:100BD0000101010101010101010101010101010105
:100BE0000101010101010B0A0A0A000B01010101C7
:100BF00001010101010B000000060B0101010101CF
:100C0000010101010B00170A0A160101010101018E
:100C10000101010B00150A0A18010101010101017E
:100C200001010B00000000150A180101010101017A
:100C3000010B000000002B2B0B0101170A0A180101
:100C40000B000000000000150A0A1600000B010B43
:100C50000000000C18000000000000000B01151837
:100C6000002A1F0B000017180000000B0101150AD5
:100C70001800110A0A161518001716010101010BB8
:100C800000150A0A0A0A16000B01010101010B00F6
:100C9000000000000000000B0101010101150A0A1B
:100CA0000A0A0A0A0A0A16010101010101010101E9
:100CB0000101010101010101010101010101010124
:100CC00001010101010101010101010101010117FE
:100CD0000A0A0A180101170A0A0A18010117162B35
:100CE00000000B01010B0000000B01010B000014C0
:100CF000000B01010B000E000B0117160000000095
:100D00000B01010B000B000B010B2900002817162B
:100D100001010B000F000B01150A18001716010145
:100D2000010B002A00150A0A0A1000150A18010111
:100D30000B000E00002B2B000F0000000B01010B1D
:100D400000111800000000000000000B01010B0062
:100D500015120A131800000000000B01010B00001F
:100D600000000B1518001400000B0101110A0A0DF8
:100D7000000B010B000000000B01010B050000003F
:100D80000B01150A0A0A0A1601010B00170A0A16B6
:100D90000101010101010101010101010101010143
:100DA000010101010101010A0A18170A18170A189E
:100DB00001010101010100060B0B2B0B0B1F0B01A5
:100DC00001010101010B001516000B0B000B0101C5
:100DD000010101010B000000001516000B010101CB
:100DE0000101010B0A0A18002B00000B010101018F
:100DF00001010101010B000000000B0101010101D3
:100E0000010101010B00000E000B010101010101B4
:100E10000101011518000F000B0101010101010181
:100E20000101010B0000000B0101010101010101A1
:100E30000101150A0A0A160101010101010101015E
:100E40000101010101010101010101010101010192
:100E50000101010101010101010101010101010182
:100E60000101010101010101010101010101010172
:100E70000101010101010101010101010101010162
:100E80000101010101010101170A0A130A0A0A0AF4
:100E90000A0A130A0A0A180B00000F0000000000DB
:100EA000000B0000000B0B0000000000170A1800E8
:100EB0000B000E00150B001429002815180B000B51
:100EC000000B05000B0000000000000B0B000B00E6
:100ED000110A0A150A0A0A0A18000B0B000F000B68
:100EE00001010101170A0A16000B0B002B000B0170
:100EF00001011716000000000B0B002A000B010176
:100F000017162B00140017160B0014000B01010B11
:100F100000000000000B010B0000000B01010B00A2
:100F20000000281716010B0000171601010B000026
:100F30000017160101150A0A16010101150A0A0A0D
:100F4000160101010101010101010101010101017C
:100F50000101010101010101010101010101010181
:100F60000101010101010101010101010101010171
:100F700001010101010101010101010101170A0A39
:100F80000A130A0A0A180101010101010B000000FD
:100F9000151800000B0101010101010B0000000008
:100FA0000F00280B0101010101010B0000000000EE
:100FB00000210B0101010101010B000000000000F4
:100FC000280B010101010101150A18000000170A90
:100FD0001601010B01150A0A0A1218001716010161
:100FE00001010B000B000000000B000B01010101CF
:100FF000010B0600001718000B000B010101010195
:10100000150A0A0A160B000F000B0101010101016C
:10101000010101010B0000000B01010101010101AF
:10102000010101150A0A0A1601010101010101016C
:1010300001010101010101010101010101010101A0
:101040000101010101010101010101010101010190
:1010500001010101010101010101170A0A0A0A182F
:101060000101010101010101010B00002B000B0135
:1010700001170A0A0A1801010B000000000B170AE9
:10108000160000000B01010B000014000B0B000008
:101090000000000B01010B290000001516000E00D6
:1010A000000C1001010B000000000000000B00000C
:1010B000000B01010B0000000C130A0A1218290092
:1010C0000B01010B001400000B0101010B00000BD0
:1010D00001010B000000000B0101010B00171601BC
:1010E000010B000000000B0101010B00110A0A01B5
:1010F000150A0A0A0A160101010B000F000001017E
:1011000001010101010101010B00000517010101AD
:1011100001010101010101150A0A0A16010101017B
:1011200001010A000A0A0A0101010101010101018C
:10113000010A0600000B0101010101010101010189
:101140000A0A0A000B0101010101010101170A0A43
:101150000D0B000B010101010101010C16170A130F
:101160001600150A0A0A1801170A0A180B2B0B0099
:1011700000000000000B010B00000B0B000F000033
:10118000140000000B171600000B0B0000000000FD
:1011900000000C100B2900001516000E00140000B2
:1011A00000280B0B0000000000000B0000001400E2
:1011B000000B0B000000170A1310000000000000D5
:1011C0000B0B001E000B0115120A0A0A0A0A0A1666
:1011D0000B0000000B0101010101010101010115DA
:1011E0000A0A0A16010101010101010101010101BF
:1011F00001010101010101010101010101010101DF
:1012000001010101010101010101010101170A0AA6
:101210000A130A0A0A0A0A0A0A1801010B002B001B
:101220000B000000002B00000B01010B0000000B65
:10123000000014000000000B01010B000017102932
:101240000000000014000B01011518000B0B00003A
:1012500000000000000B01011716000B150A180012
:101260000E00170A1601010B0000150A180B000BDF
:10127000000B010101010B290000000B0B000B000A
:101280000B01010101110D0000001516000B0015E6
:101290000A1801010B000000000000000B0000050F
:1012A0000B01010B00000000170A0A120A18000BBC
:1012B00001011518000017160101010101010101CA
:1012C0000101150A0A1601010101010101010101D3
:1012D00001010101010101010101010101010101FE
:1012E00001010101010101010101010101010101EE
:1012F000010A0A18010101010101010101010101B5
:1013000000060B01010101010101010101010118A8
:10131000000B0101010101010101010101010B00AB
:101320000B0101010101010101010101010B001586
:101330000A0A180101010101010101010B0000006D
:10134000000B010101010101010101150A0A180048
:101350000B01010101010101010101010A16001542
:101360000A130A180101010101010B00000000002D
:101370000B1F0B0101010101010B000E0000000B0E
:10138000000B0101010101010B000F0000000F0023
:101390000B0101010101010B0000002A0000000BFC
:1013A000010101010101010A0A0A0A0A0A0A1601D9
:1013B000010101010101010101010101010101011D
:1013C000010101010101010101010101010101010D
:1013D000010101010101170A0A0A0A0A18010101A3
:1013E00001010101010B00000000000B01010101DE
:1013F000010101010B000C0A18000B0101010101A0
:101400000101010B0000000B000B010101010101B2
:10141000170A162900000B00150101010101010B3B
:1014200000000000000B05000101010101010B009B
:101430000C130A0A120A0A01170A0A0A0A160000FD
:10144000150A0A0A1301010B000000000000000049
:101450000000000B01010B000C0A0D0000000E0043
:1014600000000B01010B000000000000000F000055
:10147000000B01010B000000000E00002A0000001C
:101480000B0101150A0A0A0A120A0A0A0A0A0A12B2
:10149000010101010101010101010101010101013C
:1014A0000101010101010101010000150A180101FA
:1014B0000101010101010101180600000B010101F8
:1014C00001010101010101150A18000B01010117B9
:1014D0000A0A0A0A180C0A0D0B000B0101010B0085
:1014E0000000001518170A16000B0101010B00146B
:1014F0000000000B0B0000000B0101010B000000BD
:101500000000151600170A160101010B000000006B
:10151000000000000B01010101010B290000000087
:10152000170A0A1601010101010B00000000000B5F
:101530000101010101010101150A1800170A16171E
:101540000A0A0A1801010101010B00110A0A16001A
:1015500000000B01010101010B000F000000000061
:10156000000B01010101010B00000017181E2A00E9
:101570000B0101010101150A0A0A16150A0A0A16C9
:10158000010101010101010101010101010101014B
:10159000010101010101170A0A0A0A0A0A180101D8
:1015A00001010101010B0000000000000B0101011D
:1015B000010101010B000000170D000B01010101E9
:1015C00001170A120A0D000B00000B0101010101B5
:1015D0000B0000000000150A0A1001010101010BB7
:1015E000000E0000000000000B01010101010B00D2
:1015F000110A0A0A0A0A0A16010101170A16001539
:10160000180101010101010101010B000000000BA3
:101610000101010101010101010B00000000150A97
:101620000A0A1801010101010B000014000000006A
:1016300000150A180101010B00002A00001718000C
:1016400000050B010101150A0A0A0A0A16150A18F3
:10165000000B010101010101010101010101010171
:101660000101010101010A0A0A0A0A0A0A0A0A0119
:1016700001010101010B06000000000000000B0148
:1016800001010101010A130A0A0A0A0A000B1817CC
:101690000A0A0A18010B000000000000000B0B20D2
:1016A00000000B010B000000000000000B0B00000D
:1016B000000B010B000C0A0D0000000B0B000000DA
:1016C0000B010B000000000000000B15180017169E
:1016D000010B000000000000000B010B00150A0ABE
:1016E000160000000C0D00000B010B0000000000B4
:1016F000000E00000000280B01150A0A0A0A130A4E
:101700001600000000000B0101010101010B0000A7
:1017100000001400000B0101010101010B00000099
:10172000000000000B010101010101150A0A0A0A6B
:101730000A0A0A1601010101010101010101010169
:10174000010101010101170A0A0A0A0A0A0A18011D
:1017500001010101010B000000000000000B01016C
:10176000010101010B001400001400280B0101010C
:101770000101010B000000000000000B010101014C
:1017800001010B000000000000000B01010101013C
:10179000010B00140000000E000B0101010101010A
:1017A0000B00000000000B000B01010101010115FD
:1017B000130A0A0A0A16000B010101010101010BBB
:1017C0000000000000000B010101010101010B00FC
:1017D0000C0A0A0A0A120A1801010101010B000091
:1017E0000000000000050B0101010101150A130AA8
:1017F0000A0A0A0D0015010101010101010101019F
:1018000001010101010101010101010101010101C8
:1018100001010101010101010101010101010101B8
:1018200001010101010101010101010101010101A8
:1018300001010101010101170A0A0A180101010150
:101840000101170A0A0A160000000B01010101013B
:10185000010B000000000021000B0101010101014A
:101860000B00170A180000000B0101010101010B18
:10187000000B01150A0A0A160101010101010B0002
:101880000B0101010101010101010101010B000A2C
:101890000A01010101010101010101010B00000622
:1018A0000101010101010101010101150A0A010102
:1018B0000101010101010101010101010101010118
:1018C0000101010101010101010101010101010108
:1018D00001010101010101010101010101010101F8
:1018E00001010101010101010101010101010101E8
:1018F00001010101010101010101010101010101D8
:1019000001010101010101010101010101010101C7
:1019100001010101170A0A0A0A0A1801010101015D
:101920000101010B00000000000B01010101010198
:1019300001010B00000000000B01010B01150A184A
:10194000010B0000000E000B01010B0500000B0154
:101950000B0000000B000B0101150A18000B010B16
:101960000000000B000B010101010B000B0115131E
:101970000D00110A160101011716000B01010B00E1
:10198000000B14170A0A0A1600001518010B000CA8
:1019900012180B000000000000000B1716000000DA
:1019A0001516001718000000000B0B0000000000C7
:1019B00000000B110D0000000B0B00140000170AB3
:1019C0000A160B000014000B0B000000000B0101B5
:1019D000010B000000000B150A0A0A0A160101019A
:1019E000150A0A0A0A16170A0A0A0A180101010149
:1019F00001010101010B000000000B0101010101C7
:101A0000010101010B000000000B010101010101B6
:101A10000101010B0000001E0B0101010101010188
:101A20000101150A1800171601010A0A0A0101012D
:101A30000101010B00151801010A06000101010155
:101A400001010B00000B01010A000A010101010163
:101A5000011518000B01010A000A01010101170A12
:101A60000A16000B01010A000A010101010B000026
:101A700000000B01010A000A010101010B00000036
:101A800000150A0A0A000A010101010B000000000A
:101A900000000000000A010101010B000000001716
:101AA0000A0A0A0A0A010101010B000000000B01E9
:101AB0000101010101010101180A0A0A0A160101C6
:101AC000010101010101010101010101170A0A0AD5
:101AD0000A0A0A18010101010101010B00000000BE
:101AE00000000B010101010101010B0000000000D9
:101AF000000B0101170A0A0A0A1600000000000084
:101B00000B01010B00000000000000000000000BB2
:101B100001010B00170A18000000000000000B0173
:101B2000010B000B010B000000000000000B010185
:101B30000B000B010B000000000000000B01010B6B
:101B4000000B01150A0A0A0A0A0A0A160101160000
:101B50000B01010101010101010101010100050B5E
:101B60000101010101010101010101010A0A16013E
:101B70000101010101010101010101010101010155
:101B80000101010101010101010101010101010145
:101B90000101010101010101010101010101010135
:101BA000010101010101010100000000000000002D
:101BB0000000000000000000000000000000000025
:101BC0000000000000000000000000000000000015
:101BD0000000000000000000000000000000000005
:101BE0000000000000000000FFFFFFFFFFFFFFFFFD
:101BF000FFFFFFFFFFFFFFFFFFFFFFFFFFFFFFFFF5
:101C0000FFFFFFFFFFFFFFFFFFFFFFFFFFFFFFFFE4
:101C1000FFFFFFFFFFFFFFFFFFFFFFFFFFFFFFFFD4
:101C2000FFFFFFFFFFFFFFFFF6F6F6F6F6F6F6F60C
:101C3000F6F6F6F6F6F6F6F6F6F6F6F6F6F6F6F644
:101C4000F607F6F6F6F607F6FF0707F6F607FF07BC
:101C500007FF07F607F607FFF607F607FF0707F681
:101C6000F607F6F607F607F6F6F6F6F6FF07F6F6C7
:101C7000F6F6F60707FF0707F6F6F6F60707F6F695
:101C8000F6F6F6F6F6F607F6F6F6F6F6F607FF07B8
:101C9000F6F6F6F607F607F6F6F6F607FF07070775
:101CA000F6F6F6F607FFF6F66F6F666F6EF6F6F667
:101CB000377677376FF6F6F6000000007666F6F6B0
:101CC00007000700376FF6F600000000776F66F632
:101CD0003777377677376FF677767777377666F6B2
:101CE00067666F6F6F6666F6F6F6F66E2F666F2F95
:101CF000F6F6F66F37777637F6F666760000000070
:101D0000F6F66F3700070007F6666F7700000000F1
:101D1000F66F377776377737F66676377777767771
:101D2000F666666F6F6F6667F6F6F6F6F6F6F665B8
:101D3000F6F6F6F6F6F66526F6F6F6F6F6656F6F43
:101D4000F6F6F6F665262626F6F6F6656F6F6F65EB
:101D5000F6F6652626266525F6656F6F6F652525DF
:101D6000652626266525252565F6F6F6F6F6F6F6A9
:101D70002665F6F6F6F6F6F66F6F65F6F6F6F6F603
:101D800026262665F6F6F6F6656F6F6F65F6F6F6AB
:101D9000256526262665F6F62525656F6F6F65F69F
:101DA0002525256526262665000000000000000088
:101DB000000000000000000000FF00000000000024
:101DC0000000000000000000000000000000FF0014
:101DD0000000000000FFFFFF000000000000FF0007
:101DE00000000000000000000000000000000000F3
:101DF000000000000000000000000000FF000000E4
:101E0000000000FFFFFF000000000000FF000000D6
:101E100000000000000000000000000000000000C2
:101E200000000000000000000000000000000000B2
:101E30000000000000000000000000000000FF00A3
:101E40000000000000000000000000000000000092
:101E50000000FF000000000000FFFFFF0000000086
:101E60000000FF0000000000000000000000000073
:101E70000000000000000000000000000000000062
:101E800000FF000000000000000000000000000053
:101E90000000000000000000000000000000000042
:101EA0000000000000000000000000000000000032
:101EB000000000000000000000000000000000FF23
:101EC0000000000000000000000000000000000012
:101ED0000000000000000000000000000000000002
:101EE00000000000000000000000000000000000F2
:101EF000FF00000000000000FFFF000000000000E5
:101F0000FF000000000000000000000000000000D2
:101F100000000000000000000000000000000000C1
:101F200000000000000000140000000000373737F8
:101F300000000000373F373F00000000373F373FC9
:101F400000000037373F373F000014141466666600
:101F50000014141414666F6F14141414666F6F6FEA
:101F600014141414666F6F6F370000000000000037
:101F70003F370000000000003F3700000000000075
:101F80003F370000000000FF6666660000000000AA
:101F90006F6F6600000000006F6F6F66000000004A
:101FA000676F6F6600000000000000000000000086
:101FB0000000000000000000FF0000000000000022
:101FC000FFFF000000000000FF0000000000000014
:101FD0000000000000000000000000000000000001
:101FE0000000000000000000F6F607FFF6F6F6F627
:101FF0000707FF0707F6F6F6F6F60707F6F6F6F612
:10200000F607F6F6F6F6F6F607FF07F6F6F6F6F634
:10201000F607F607F6F6F6F6070707FF07F6F6F6F1
:10202000F6F6FF07F6F6F6F6F607F6F607F607F603
:10203000F607F607FF0707F607FF07F607F607FF9D
:10204000FF0707F6F607FF07F607F6F6F6F607F6B8
:10205000F6F6F6F6F6F6F6F6F6F6F6F6F6F6F6F620
:10206000F6F6F6F6F6F6F6F6677737000700372F3E
:10207000667677000000766F6F7737000700776627
:102080006F7776000000372F6F37777737766F6E70
:102090006676376F6F66F6F666666F66F6F6F6F684
:1020A000F6F6F6F6F6F6F6F6F6F6F6F6F6F6F6F6D0
:1020B00066666F66F6F6F6F66676376F6F66F6F664
:1020C0006F37777737766F6E6F7776000000372F30
:1020D0006F77370007007766667677000000766FC7
:1020E000677737000700372F252525252525252546
:1020F0002526262626262625256F6F6F6F6F6F25CE
:102100002526262626262625256F6F6F6F6F6F25BD
:102110002526262626262625256F6F6F6F6F6F25AD
:102120002526262626262625252626262626262553
:10213000256F6F6F6F6F6F2525262626262626258D
:10214000256F6F6F6F6F6F2525262626262626257D
:10215000256F6F6F6F6F6F2525262626262626256D
:102160002525252525252525000000000000000047
:10217000000000000000000000FF00000000000060
:10218000FFFFFF000000000000FF00000000000053
:10219000000000000000000000000000000000003F
:1021A00000000000000000140000000000001414F3
:1021B0000000000000141414000000001414141493
:1021C0000000001414141414000014141414141433
:1021D00000141414141414141414141414141414D3
:1021E0001414141414141414141414666F6F6F6FF1
:1021F000141414666F656F6F1414666F6F6F6F6FD2
:102200001414666F6F6F6F6F14666F6F6F6F676F09
:1022100014666F6F6F67676F666F6F6F6F6F6F6F4B
:10222000666F6F6F6F6F6F6F6F6F6F6F660000001D
:102230006F6F6F6F660000006F6F6E6F660000005B
:102240006F6E6F6F6F6600006F6F6F6F6F6600006D
:102250006F6F6F6F6F6F66006F6F6F656F6F6F6619
:102260006F6F6F6F6F6F6F660000000000000000FF
:10227000000000000000000000000000000000005E
:10228000000000000000000000000000000000004E
:1022900000000000000000000000000000FF00003F
:1022A0000000000000000000B1B1B1B1B1B1B1B1A6
:1022B000B1B1F6F6F6F6B1F6B1F6B1B1B1B1F6B12B
:1022C000B1F6B1F6F6B1F6B1B1F6B1F6F6B1F6B1D6
:1022D000B1F6B1B1B1B1F6B1B1B1F6F6F6F6B1F60B
:1022E000B1F6B1B1B1B0F6B0B0B1B1B1B1B1B1B157
:1022F000F6B1F6F6F6F6B1B1B1F6B1B1B1B1F6B1EB
:10230000B1F6B1F6F6B1F6B1B1F6B1F6F6B1F6B195
:10231000B1F6B1B1B1B1F6B1F6B1F6F6F6F6B1B1CA
:10232000B1F6B1B1B1B0F6B0B0B0B0B0B0B0B0B01D
:10233000F6F6F6F6F6F6F6F6B0B0B0B0B0B0B0B06D
:10234000B0F6F6B0B0F6F6B0B0F6F6B0B0F6F6B05D
:10235000B0B0B0B0B0B0B0B0F6F6F6F6F6F6F6F64D
:10236000B0B0B0B0B0B0B0B0F6F6F6F6F6F6F6F63D
:10237000F6F6F6F6F6F6F6F6F6F6F6F6F6F6F6F6FD
:10238000F6F6F6F6F6F6F6F6F6F6F6F6F6F6F6F6ED
:10239000F6F6F6F6F6F6F6F6F6F6F6F6F6F6F6F6DD
:1023A000F6F6F6F6F6F6F6F67777777777777777C5
:1023B000777737777777777777773777777777772D
:1023C000773777777777377777777777777777375D
:1023D000777777773737777777777777777777770D
:1023E00077777777377777777777777777777777BD
:1023F00077777777777777777737777777377777ED
:10240000773737777777777777777777777737771C
:10241000777777773777777777777777777777778C
:102420007777377777777777000000000000001420
:102430000000000000000014000000000000141460
:102440000000000000001414000000000014141428
:1024500000000000001414140000000014141414F0
:10246000000000001414141414141414141414147C
:10247000141414141414141414141414141414141C
:10248000141414141414141414141414141414140C
:1024900014141414141414141414141414141414FC
:1024A000141414141414141414141414141414669A
:1024B0001414141414141466141414141414666FDD
:1024C0001414141414666F6F1414141414666F6FBC
:1024D00014141414666F6F6F141414666F6F6F6F9B
:1024E000141414666F6F6F6F6F6F6F6F6F6F6F6F16
:1024F0006F6F6F6F6F6F6F6F6F6F656F6F6F6F6FF6
:102500006F656F6F6F6F6F6F6F6F6F6F6F6F6F6FE5
:102510006F6F6F6F6F6F6F6F6F6F6F6F6F6F6F6FCB
:102520006F6F6F6F6F6F6F6F6F6F6F6F6F6F6F6FBB
:102530006F6F6F6F6F6F6F6F6F6F6F6F6F6F6F6FAB
:102540006F6F6F6F6F6F6F6F6F6F6F6F6F6F6F6F9B
:102550006F6F6F6F6F6F6F6F6F6F6F6F6F6F6F6F8B
:102560006F6F6F6F6F6F6F6F6F6F6F6F6F6F6F6F7B
:102570006F6F6F6F6F6F6F6F6F6F666F6F6F6F6F74
:102580006F666F6F6F6F6F6F6F6F6F6F6F6F6F6F64
:102590006F6F6F6F6F6F6F6F6F6F6F6F6F6F6F6F4B
:1025A0006F6F6F6F6F6F6F6F6F6F6F6F6F6F6F6F3B
:1025B0006F6F6F6F6F6F6F6F6F676F6F6F6F6F6F33
:1025C0006F6767676F6F6F6F6F6F6F6F6F6F6F6F33
:1025D0006F6F6F6F6F6F66666F6F6F6F6F6F6F6626
:1025E0006F6F6F6F6F6F6F6F66000000000000000D
:1025F00066000000000000006F66000000000000A0
:102600006F6F6600000000006F6F66000000000042
:102610006F6F6F6600000000666F6F66000000005D
:102620006F6F6F6F66000000000000000000000088
:10263000000000000000000000000000000000009A
:10264000000000FF0000000000000000000000008B
:10265000000000000000000000000000000000007A
:1026600000000000000000141414141414141414B6
:102670001414141414141466141414141414146676
:10268000141414141414666F141414141414666FB0
:10269000141414141414666F1414141414666F6F45
:1026A0001414141414666F6F666F6F6F6F6F6F6F13
:1026B0006F6F6F6F6F6F6F6F6F6F6F6F6F6F6F6F2A
:1026C0006F6F6F6F6F656F6F6F6E6F6F6F6F6F6F25
:1026D0006F6F6F6F6F6F6F6F6F6F6F6F6F6F6F6F0A
:1026E0006F6F6F6F6F6F6F6F6F6F6F6F6F6F6F6603
:1026F0006F6F6F6F6F6F6F6F6F6F6F6F6F6F6F6FEA
:102700006F6F6F6F6F6F676F6F6F6F6F6F6F6F6FE1
:102710006F6F6F6F6F6F6F6F6F6E6F6F6F6F6F6FCA
:102720006E6F6F6F6F6F6F6F000000000000000032
:1027300066000000000000006600000000000000CD
:102740006F660000000000006F6F66000000000070
:102750006F6F6600000000006F6F660000000000F1
:102760006F6F6F6600000000B1F6B1B1B1B1F6B1A4
:10277000B1B1F6F6F6F6B0F6B1F6B1B1B1B1F6B068
:10278000B1F6B1F6F6B0F6B0B1F6B1F6F6B0F6B015
:10279000B1F6B1B0B1B1F6B0B1B1F6F6F6F6B0F649
:1027A000B1B1B1B1B1B0B0B0B1F6B1B1B1B1F6B192
:1027B000F6B1F6F6F6F6B1B1B1F6B1B1B1B1F6B126
:1027C000B1F6B1F6F6B1F6B1B1F6B1F6F6B1F6B1D1
:1027D000B1F6B1B1B1B1F6B1F6B1F6F6F6F6B1B106
:1027E000B1B1B1B1B1B0B0B0B0F6B0B0B0B0F6B058
:1027F000B0F6B0F6F6B0F6B0B0F6B0F6F6B0F6B0A9
:10280000B0F6B0B0B0B0F6B0B0F6B0B0B0B0F6B0B0
:10281000B0F6B0F6F6B0F6B0B0F6B0F6F6B0F6B088
:10282000B0F6B0B0B0B0F6B0777737773777777764
:102830007777777777777777777777777777777728
:102840007777377777777777777777777777777758
:102850007777773777777777777777777777377788
:1028600077777777777777777777777777777777F8
:1028700077777777773777777777773777377777A8
:102880007777777777777777777777773777777718
:102890003777773737777777777777777777777788
:1028A000777777777777777700000014141414140C
:1028B000000000141414141400001414141414143C
:1028C0000000141414141414001414141414141404
:1028D00000141414141414141414141414141414CC
:1028E0001414141414141414141414666F6F6F6FEA
:1028F0001414666F6F6F6F6F1414666F6F6F6F6F66
:1029000014666F6F6F6F6F6F14666F6F6F6F6F66A8
:10291000666F6F6F6F6F6666666F6F6F6F6F6F6FEB
:10292000666F6F6F6F6F6F6F6F6F6F6F6F6F6F6FC0
:102930006F6F6F6F6F6F6F6F6F6F6F6F6F6F6F6FA7
:102940006F6F6F6F6F6F6F6F666F6F6F6F6F6F6FA0
:102950006F6F6F6F6F6F6F6F6F6F6F6F6F6F6F6F87
:102960006F6F6F6F6F6F6F6F6F6F6F676F6F6F6F7F
:102970006F6F6F676F6F6F6F6F6F67676F6F6F6F7F
:102980006F6F6F6F6F6F6F6F6F6F6F6F6F6F6F6F57
:102990006F6F6F6F6F6F6F6F6F6F6F6F6F6F6F6F47
:1029A0006F6F6F6F6F6F6F6F6F6F6F6F6F6F6F6F37
:1029B0006F6F6F6F6F6F6F6F6F6F6F6F6F6F6F6F27
:1029C0006F6F6F6F6F6F6F6F6F6E6F6F6F6F6F6F18
:1029D0006F6F6F6F6F6F676F6F6F6F6F6F676F6F17
:1029E0006F6F6F6F6F6F6F6F6F6F6F6F6E6F6F6FF8
:1029F0006F6F6E6E6F6F6F6F6F6F6F6F6F6F6F6FE9
:102A00006F6F6F6F6F6F6F6F6F6F6F6F6F6F6F6FD6
:102A10006F6F6F66666F6F6F6F6F6F6F6F666F6FE1
:102A20006F6F6F6F6F6F6F6F6F6F6F6F660000000C
:102A30006F6F6F6F6F6600006F6F6F6F6F66000074
:102A40006F676F6F6F6F66006F6F676F6F6F660096
:102A50006F6F6F676F6F6F666F6F6F6F6F6F6F66A0
:102A60006F6F6F6F6F6F6F6614141414666F6F6FF4
:102A700014141414666F6F6F141414666F6F6F6FF5
:102A80001414666F6F6F6F6F14666F6F6F6F6F6583
:102A900014666F6F6F6F6565666F6F6F6F6F6F6FC7
:102AA000666F6F6F6F6F6F6F6F6F6F6F6F6F6F6F3F
:102AB0006F6F6F676F6F6F6F6F6F6F6F6F6F6F6F2E
:102AC0006F6F6F6F6F6F6F6F6F6F6F6F6F6F6F6F16
:102AD0006F6F6F6F6F6F6E6F6F6F6F6F6F6F6F6F07
:102AE0006F6F6F6F6F6F6F6F6F6F6F6F6F6F6F6FF6
:102AF0006F6F6F6F6F6F6F6F6F6F6F6F6F656F6FF0
:102B00006F6F6F6F6F6F656F6F6F6F6F6F6F6F6FDF
:102B10006F6F6F6F6F6F6F6F6F6F6F6F6F676F6FCD
:102B20006F6F6F6F6F6F6F6F6F6F6F66000000007A
:102B30006F6F6F6F660000006F6F6F6F6600000051
:102B40006F6F6F6F6F6600006F6F6E6F6F6F6600F5
:102B50006F6F6F6F6F6F66006F6F6F6F6F6F6F6606
:102B60006F6F6F6F6F6F6F66003737000000000088
:102B70000037370000000000003737000000000079
:102B80000037370000000000003737000000000069
:102B9000003737000000000000373737373737007D
:102BA0000027272727272700003737373737000028
:102BB00000373727272700000037370000000000C4
:102BC000003737373700000000373727270000006D
:102BD0000037370000000000003737373737000074
:102BE0000027272727270000373700000037370046
:102BF000373700000037370037370000003737001D
:102C0000373700000037370037370000003737000C
:102C10002737370037372700002737373727000097
:102C200000002727270000003737000000000000C1
:102C300037370000000000003737000000000000B8
:102C400037370000000000003737000000000000A8
:102C500037370000000000003737373737370000BC
:102C6000272727272727000000003737000000000C
:102C70000000373700000000000037370000000078
:102C80000000373700000000000037370000000068
:102C90000000373700000000000037370000000058
:102CA0000000272700000000000000373700000068
:102CB0000000003737000000000000373700000038
:102CC0000000003737000000000000373700000028
:102CD000000000273737003700000000273737375C
:102CE0000000000000272727373700000000000001
:102CF00037370000000000003737000000000000F8
:102D000037370000000000003737000000000000E7
:102D1000372700000000000027000000000000002E
:102D200000000000000000000000000000000000A3
:102D30000000000000000000000000000000004053
:102D40000000000000004040000000000040408003
:102D500000000000404080800000004040808080F3
:102D600000004040808080F600000000000000006D
:102D70004040404040404040404040404040404053
:102D80008080808080808080808080808080808043
:102D90008080808080808080F6F6F6F6F6F6F6F683
:102DA000F6F6F6F6F6F6F6F6000000000000000073
:102DB00000000000000000004000000000000000D3
:102DC0004040000000000000804040000000000083
:102DD0008080404000000000808080404000000073
:102DE000F6808080404000006F6F6F6F6E6F6F6F76
:102DF0006F6F6E6E6F6F6F6F6F6F6F6F6F6F6F6FE5
:102E00006F6F6F6F6F6F6F6F6F6F6F6F6F6F6F6FD2
:102E10006F6F00000000006F6F6F6F00F6006F6F44
:102E20006F6F6F00F60000006F6F6F6F660000003D
:102E30006F6F6F6F6F6600006F6F6F6F6F66000070
:102E40006F676F6F6F6F66006F6F676F6F6F660092
:102E50006F6F6F676F6F6F666F6F6F6F6F6F6F669C
:102E60000000000000000000000000000000000062
:102E70000000000000000000000000000000000052
:102E80000000000000000000000000000000000042
:102E9000FF00000000000000000000000000000033
:102EA0000000000000000000000000000005050513
:102EB00000000000050705070000000005070507E2
:102EC0000000000505070507000014141466666677
:102ED0000014141414666F6F14141414666F6F6F5B
:102EE00014141414666F6F6F0500000000000000DA
:102EF00007050000000000000705000000000000BA
:102F000007050000000000FF666666000000000084
:102F10006F6F6600000000006F6F6F6600000000BA
:102F2000676F6F6600000000B0B0B0B0B0B0B0B076
:102F3000B0F6F6F6F6F6F6F6B0F6B0B0B0B0B0B061
:102F4000B0F6B0F6F6F6F6B0B0F6B0F6F6F6F6B0C5
:102F5000B0F6B0B0B0B0B0B0B0F6F6F6F6F6F6F641
:102F6000B0B0B0B0B0B0B0B0B0B0B0B0B0B0B0B061
:102F7000B0F6F6F6F6F6F6B0B0F6B0B0B0B0F6B021
:102F8000B0F6B0F6F6B0F6B0B0F6B0F6F6B0F6B011
:102F9000B0F6B0F6F6B0F6B0B0F6B0F6F6B0F6B001
:102FA000B0F6B0B0B0B0F6B0F6B0B0B0B0B0B0F609
:102FB000B0B0F6F6F6F6B0B0B0F6F6B0B0F6F6B0E1
:102FC000B0F6B0F6F6B0F6B0B0F6B0F6F6B0F6B0D1
:102FD000B0F6F6B0B0F6F6B0B0B0F6F6F6F6B0B0C1
:102FE000F6B0B0B0B0B0B0F6B0F6B0B0B0B0F6B0C9
:102FF000F6B0B0F6F6B0B0F6B0B0B0F6F6B0B0B02D
:10300000B0F6F6F6F6F6F6B0B0F6F6F6F6F6F6B078
:10301000B0B0B0B0B0B0B0B0F6F6F6F6F6F6F6F680
:10302000B0B0B0B0B0B0B0B0B0F6B0B0B0B0F6B014
:10303000F6B0B0F6F6B0F6B0B0B0B0F6F6B0F6B0A6
:10304000B0F6F6F6F6B0F6B0B0F6F6F6F6B0F6B0C4
:10305000B0B0B0F6F6B0F6B0F6B0B0F6F6B0F6B086
:10306000B0F6B0B0B0B0F6B0000037370000373778
:103070000000373700003737000037370000373798
:103080000000373700003737000037370000373788
:103090000000373700003737000037370000373778
:1030A00000002727000027273737000037370000A8
:1030B0003737000037370000373700003737000058
:1030C0003737000037370000373700003737000048
:1030D000372700003737000027000000373700008F
:1030E0000000000027270000373700000000000024
:1030F00037370000000000003737000000000000F4
:1031000037370000000000003737000000000000E3
:1031100037370000000000003737000000000000D3
:103120002727000000000000004040808080F6F665
:10313000004040808080F6F6004040808080F6F6B7
:10314000004040808080F6F6004040808080F6F6A7
:10315000004040808080F6F6004040808080F6F697
:10316000004040808080F6F6F6F6F6F6F6F6F6F6C3
:10317000F6F6FFFFF6F6F6F6F6FFFFFFFFF6F6F6B9
:10318000F6FFFFFFFFF6F6F6F6F6FFFFF6F6F6F6A9
:10319000F6F6F6F6F6F6F6F6F6F6F6F6F6F6FFFFBD
:1031A000F6F6FFFFF6F6FFFFF6F68080804040005F
:1031B000F6F6808080404000F6F680808040400037
:1031C000F6F6808080404000F6F680808040400027
:1031D000F6F6808080404000F6F680808040400017
:1031E000F6F68080804040006F6F6F00F600B7B742
:1031F0006F6F6F00F600B7B76F6F6600F600B7B776
:103200006F666F00F600B7B76F6F6F00F600B7B765
:103210006F6F6F00F600B7B76F6F6F00F600B70003
:103220006F6F6F00F600B7B7B7B7B7B7B7B7B7B735
:10323000B7B7B7B7B7B7B7B7B7B7B700000000B7FA
:10324000B7B700070707FF00B700070707F707FF33
:1032500000FF0707070707FFFFFF0707070707FF2D
:1032600000FFFF070707FF00B7B7B7B7B7000000B9
:10327000B7B7B7B7B7000000B7B7B7B7B700B7B7BA
:1032800000B7B7B7B700B7B7FF0000B7B700B7B719
:10329000FFFFFF00B700B7B7FF0000B7B700B7B731
:1032A00000B7B7B7B700B7B70000000000000000D4
:1032B0000000000000000000B7B7B7B7B70000007B
:1032C000B7B7B7B700000000B7B7B7B70000000046
:1032D000B7B7B70000000000B7B7B70000000000A4
:1032E000B7B7000000000000B0B0B0B0B0B0B0B0F0
:1032F000F6F6F6F6F6F6F6B0B0B0B0B0B0B0F6B09E
:10330000B0F6F6F6F6B0F6B0B0F6F6F6F6B0F6B001
:10331000B0B0B0B0B0B0F6B0F6F6F6F6F6F6F6B07D
:10332000B0B0B0B0B0B0B0B0B0F6B0B0B0B0F6B011
:10333000B0F6B0F6F6B0F6B0B0F6B0F6F6B0F6B05D
:10334000B0F6B0F6F6B0F6B0B0F6B0F6F6B0F6B04D
:10335000B0F6B0B0B0B0F6B0B0F6F6F6F6F6F6B03D
:10336000B0B0B0B0B0B0B0B0B0B0B0B0B0B0B0B05D
:10337000F6F6F6F6F6F6F6F6B0B0B0B0B0B0B0B01D
:10338000B0F6F6F6F6F6F6B0B0F6F6F6F6F6F6B0F5
:10339000B0B0B0F6F6B0B0B0F6B0B0F6F6B0B0F689
:1033A000B0F6B0B0B0B0F6B0B0F6B0B0B0B0F6B005
:1033B000B0F6B0F6F6B0B0F6B0F6B0F6F6B0B0B023
:1033C000B0F6B0F6F6F6F6B0B0F6B0F6F6F6F6B041
:1033D000B0F6B0F6F6B0B0B0B0F6B0F6F6B0B0F603
:1033E000B0F6B0B0B0B0F6B00000373700003737F5
:1033F0000000373700003737000037370000373715
:103400000000373700003737000037370000373704
:10341000000037370000273700003737000000274B
:1034200000002727000000000000003737000000E0
:1034300000000037370000000000003737000000B0
:1034400000000037370000000000003737000000A0
:1034500037003737270000003737372700000000D4
:10346000272727000000000037370000373700000B
:103470003737000037370000373700003737000094
:103480003737000037370000373700003737000084
:103490003737000037370000373700003737000074
:1034A000272700002727000000004040808080F68A
:1034B000000000404080808000000000404080808C
:1034C000000000000040408000000000000040407C
:1034D00000000000000000400000000000000000AC
:1034E0000000000000000000F6F6FFFFF6F6F6F61A
:1034F000F6F6F6F6F6F6F6F680808080808080801C
:1035000080808080808080808080808080808080BB
:1035100040404040404040404040404040404040AB
:103520000000000000000000F680808040400000A5
:10353000808080404000000080804040000000000B
:1035400080404000000000004040000000000000FB
:10355000400000000000000000000000000000002B
:1035600000000000000000006F6F6F00F600B7B7AA
:103570006F6F6F00F600B7B76F6F6F00F600B7B7E9
:103580006F6F6F00F60000006F6E6F00F6006F6FD8
:103590006F6F6F00F600676F6F6F6F00F6006F6FF1
:1035A0006F6F6F00F6006F6FB7000000000000B78C
:1035B000B7B7B7B7B7B7B7B7B7B7B7B7B7B7B7B79B
:1035C00000000000000000006F6F6F6F6F6F6F6F83
:1035D0006F6F6F66666F6F6F6F6F6F6F6F666F6F16
:1035E0006F6F6F6F6F6F6F6FB7B7B7B7B700B7B762
:1035F000B7B7B7B7B700B7B7B7B7B7B7B700B7B7C9
:10360000000000000000B7B76F6F00666600B7B734
:103610006F6F006600B7B7B76F6F0000B7B7B7B787
:103620006F6F000000000000B7B70000000000004E
:10363000B7B7000000000000B7B7B70000000000F7
:10364000B7B7B70000000000B7B7B7B70000000079
:10365000B7B7B7B700000000B7B7B7B7B7000000FB
:10366000000000000000000000003737000037377E
:1036700000003737000037370000373700002737A2
:103680000000373700000027000037370000000037
:1036900000003737000000370000373700003737A9
:1036A0000000272700002727000000373700000010
:1036B000370037373700000037373737270000002B
:1036C0003737372700000000373737000000000089
:1036D0003737373700000000270027373700000052
:1036E000000000272700000077777700F600777743
:1036F00077777700F600777777777700F600777738
:1037000077777700F600777777777700F600777727
:1037100077777700F600777777777700F600777717
:1037200077777700F6007777777777777777777798
:103730007777777777777777777777777777777719
:103740007777777777777777777777777777777709
:1037500077777777777777777777777777777777F9
:1037600077777777777777770000373700000037FC
:1037700000003737370037370000273737373737FC
:1037800000000027373737270000000037373700A1
:103790000000003737373737000037372700273723
:1037A000000027270000002737000000000000006D
:1037B00037000000000000002700000000000000AB
:1037C00000000000000000000000000000000000F9
:1037D00000000000000000003700000000000000B2
:1037E00027000000000000007777777777777777FA
:1037F0007777777777777777777777777777777759
:103800007777777777777777777777777777777748
:103810007777777777777777770000000000000079
:10382000777777777777777777777700F600777797
:1038300077777700F600777777777700F6007777F6
:1038400077777700F600777777777700F6007777E6
:1038500077777700F60077777777000000000077BA
:10386000777777777777777777777777770000004D
:10387000777777770000FFFF7777777700007777A4
:103880007777777700007777777777770000000092
:10389000777777770000FFFF777777770000777784
:1038A00077777777FFFF7777000077770000777774
:1038B000FF000077000077777700007700007777C8
:1038C00077000077000077770000007700007777B7
:1038D000FF0000770000777777000077FF00000097
:1038E00077FFFF7777FFFFFF77000077000000008A
:1038F00077000077FFFFFF0077000077777777008A
:103900007700007777777700770000777777770011
:1039100077000077777777000000FF777777770079
:10392000FFFF7777777777FF000000007700007759
:1039300000FFFFFF77000077007777777700007749
:10394000007777777700000000777777770000FFC0
:1039500000777777770000770077777777000077C1
:10396000FF77777777FFFF7777770000777700002B
:1039700077770000770000FF777700007700007707
:103980000000000077000077FFFF0000770000775D
:1039900077770000770000777777000077FF0000E7
:1039A0007777FFFF7777FFFF000000777700000051
:1039B000FFFF0000770000FF7777000077000077B7
:1039C00077770000770000777777000077000000B6
:1039D00077770000770000FF000000FF7700007796
:1039E000FFFFFF7777FFFF7700000000777777779B
:1039F000FFFFFF000077777777777700007777779B
:103A0000777777000077777700000000FF77777788
:103A1000FFFF0000777777777777FF00007777777A
:103A2000777777FFFF777777777777777777000004
:103A300077777777777700007777777777770000F2
:103A400077777777777700007777777777770000E2
:103A500077777777777700007777777777770000D2
:103A6000777777777777FFFF7700007777770000B2
:103A700077000000777700007700000000770000F3
:103A80007700000000000000770000FF0000000049
:103A900077000077FF0000007700007777FF0000D5
:103AA00077FFFF777777FFFF7777000000000077D9
:103AB000770000FFFFFF00007700007777770000B6
:103AC00077000077777700007700000000000000A3
:103AD000770000FFFFFF0000770000777777000096
:103AE00077FFFF777777FFFF770000777700007722
:103AF000770000770000FF777700000000FF7777FE
:103B000077000000FF7777777700000000777777FE
:103B1000770000FF0000777777000077FF000077DD
:103B200077FFFF7777FFFF770000777777777777F3
:103B300000007777777777770000777777777777F1
:103B400000007777777777770000777777777777E1
:103B500000007777777777770000777777777777D1
:103B6000FFFF777777777777000000000000007716
:103B70000000FFFFFFFF000000007777777700006D
:103B8000000077777777000000000000000000FF5A
:103B90000000FFFFFFFFFF770000777777777777E9
:103BA000FFFF7777777777777700000000000000D6
:103BB000770000FFFFFFFF0077000077777777003F
:103BC000770000777777770077000000000000002B
:103BD000770000FFFFFF0000770000777777FF0096
:103BE00077FFFF77777777FF777700007700000020
:103BF00000770000770000FF007700007700007773
:103C00000077000077000000FF770000770000FFDA
:103C100077770000770000770077000077000000DA
:103C2000FF77FFFF77FFFFFF000000007700000035
:103C3000FFFFFFFF77FFFFFF77777777777777775C
:103C40000000007777777777FFFFFF7777777777D1
:103C500077777777777777770000000077777777D0
:103C6000FFFFFFFF7777777700000000007777008E
:103C70000000FFFFFF7700000000777777770000F4
:103C8000000077777777000000007777777700007C
:103C90000000777777770000000077777777FF006D
:103CA000FFFF7777777777FF0000000077777777E8
:103CB000FFFFFF00007777777777770000777777D8
:103CC0007777770000777777777777000077777760
:103CD000777777000077777700000000FF777777B6
:103CE000FFFFFFFF7777777777770000000000000E
:103CF00000770000FFFFFFFF0077000077777777FE
:103D00000077000000000000FF770000FFFFFFFFCA
:103D10007777000077777777007700000000000062
:103D2000FF77FFFFFFFFFFFF000077770000000035
:103D3000FFFF770000FFFFFF777777000077777747
:103D4000777777FF0000000077777777FFFFFFFF37
:103D50007777777777777777000077000000000034
:103D6000FFFF77FFFFFFFFFF0000007777000000F5
:103D7000FFFFFF770000FFFF777777770000777707
:103D800000007777FF000000FF00007777FFFFFF5C
:103D900077000077777777770000FF7700000000E3
:103DA000FFFF7777FFFFFFFF00000000777777774F
:103DB000FFFFFFFF77777777777777777777777773
:103DC0000000007777777777FFFF000077777777C6
:103DD0007777000077777777000000FF777777773E
:103DE000FFFFFF77777777777700007777770000A7
:103DF000770000007700000077FF0000000000FF60
:103E00007777FF000000FF777777770000007777FC
:103E1000777700000000007777000000FF000000C7
:103E200077FFFFFF77FFFFFF6F77C0C07777C0C0D6
:103E30007700000000000000C0000000000000004B
:103E4000C00000000000000077000000000000003B
:103E50007700000000000077C0000000000000773D
:103E6000C0000000000000777777C0C07777C0C03F
:103E70000000000000000000000000000000000042
:103E80000000000000000000777777777777000068
:103E900077272727277777007700000000777700BC
:103EA00077000000007777007777C0C07777C0C0D1
:103EB0000000000000000000000000000000000002
:103EC0000000000000000000000077777777777728
:103ED0000077772727272727007777000000000043
:103EE00000777700000000007777C0C07777C0C008
:103EF00000000000000000000000000000000000C2
:103F000000000000000000007700007777770000D5
:103F100027000077777700000000007777770000B0
:103F200000000077777700007777C0C07777C0C050
:103F30000000000000000000000000000000000081
:103F400000000000000000007777777777777777B9
:103F500077772727272727777777000000000077D4
:103F600077770000000000777777C0C07777C0C010
:103F70000000000000000000000000000000000041
:103F800000000000000000000000007777770000CC
:103F90007700007777770000770000777777000069
:103FA00077000077777700007777C0C07777C0C059
:103FB0000000000000000000000000000000000001
:103FC00000000000000000000077777777777777B0
:103FD000777727272727272777770000000000001B
:103FE00077770000000000007777C0C07777C06F58
:103FF00000000000000000C000000000000000778A
:10400000000000000000007700000000000000C079
:1040100000000000000000C0000000000000007769
:10402000000000000000007777000000000000772B
:104030007700000000000077C0000000000000775B
:10404000C00000000000007777000000000000279B
:104050007700000000000000C00000000000000029
:10406000C00000000000000077000000007777002B
:104070007700000000777700770000000077770076
:1040800077000000007777007777777777772700DA
:104090002727272727270000000000000000000036
:1040A000000000000000000000277777777777771F
:1040B000000027272727277700000000000000774F
:1040C0000000000000000077007777777777777738
:1040D00000272727272727270000000000000000CF
:1040E000000000000000000000000077777700006B
:1040F0007700007777770000770000777777000008
:104100007700007777770000270000777777000047
:10411000000000272727000000000000000000002A
:10412000000000000000000077770000000000772A
:10413000777777777777777777772727272777774F
:10414000777700000000277777770000000000777E
:1041500027270000000000270000000000000000EA
:104160000000000000000000770000777777000073
:10417000270000777777000000000077777700004E
:104180007700007777770000770000777777000077
:104190002700002727270000000000000000000083
:1041A000000000000000000027777777777777001E
:1041B0000027272727277777000000000000777760
:1041C0000000000000007777777777777777772799
:1041D00027272727272727000000000000000000CE
:1041E000000000000000000000000000000000C00F
:1041F00000000000000000C0000000000000007788
:10420000000000000000007700000000000000C077
:1042100000000000000000C0000000000000007767
:1042200000000000000000777700000000000000A0
:104230007700000000000000C000000000E2E20083
:10424000C000000000E2E2007700000000E2E200AF
:104250007700000000E2E200C000000000E2E2009F
:10426000C000000000E2E2000000000000000000CA
:1042700000000000000000000000000000E2E2E298
:1042800000000000E2E2D0D000000000E2E2000006
:1042900000000000E2E2000000000000E2E2000096
:1042A00000000000E2E2000000000000000000004A
:1042B0000000000000000000E2E20000E2E2E2E2B2
:1042C000D0E2E200E2E2D0D000E2E200E2E200006E
:1042D00000E2E200E2E2000000E2E200E2E2E2E20A
:1042E00000E2E200E2E2D0D00000000000000000A6
:1042F0000000000000000000E2E2E20000E2E2E272
:10430000D0D0E2E200E2E2D00000E2E200E2E2002D
:104310000000E2E200E2E200E2E2E2D000E2E200DB
:10432000D0E2E20000E2E200000000000000000035
:104330000000000000000000E2E2E20000000000D7
:10434000D0D0E2E2000000000000E2E20000000045
:104350000000E2E2000000000000E2E200000000D5
:104360000000E2E200000000000000000000000089
:10437000000000000000000000000000E2E2E2E2B5
:10438000000000E2E2D0D0D0000000E2E200000035
:10439000000000E2E2000000000000E2E200000095
:1043A000000000E2E2000000000000000000000049
:1043B0000000000000000000E20000E2E2E2E2E2B1
:1043C000E2E200E2E2D0D0D0E2E200E2E20000006D
:1043D000E2E200E2E2E2E2E2E2E200E2E2D0D0D0B7
:1043E000E2E200E2E200000000000000000000C085
:1043F00000000000000000C0E2E2E20000000077E0
:10440000D0D0D0000000007700000000000000C005
:10441000E2000000000000C0D000000000000077B3
:1044200000000000000000777700000000E2E2E2F8
:104430007700000000D0D0D0C000000000000000D5
:10444000C00000000000000077000000000000E253
:10445000770000000000E2E2C00000000000E2E29D
:10446000C00000000000D0E2E2E2E200D0E2E2E2BE
:10447000D0D0D00000D0D0D000000000000000005C
:104480000000000000000000E2E2E2E2E2E200E2FE
:10449000D0D0D0D0D0D000E200000000000000E278
:1044A000E2E2E2E2E20000E2E2E2D000E2E2000068
:1044B000D0D00000D0D000000000000000000000BC
:1044C0000000000000000000E200E2E20000000046
:1044D000E200E2E200000000E200E2E20000000090
:1044E000E200E2E20000000000D0E2E200E2E2E2EC
:1044F0000000D0D000D0D0D00000000000000000AC
:10450000000000000000000000E2E2E2E2E2E2E27D
:1045100000E2E2D0D0D0D0D000E2E2000000000003
:1045200000E2E2E2E2E2E200E2E2E2D000000000C9
:10453000D0D0D0000000000000000000000000000B
:104540000000000000000000E200E2E2000000E2E3
:10455000D000E2E2E20000E20000E2E2E2E200E299
:104560000000E2E2E2E2E2E2000000D0E2E2E2E2A7
:1045700000000000D0D0D0D00000000000000000FB
:104580000000000000000000E20000E2E2E2E2E2DF
:10459000E200E2E2D0D0D0E2E200E2E2000000D0AD
:1045A000E200E2E200000000E2D000E2E2000000EF
:1045B000D00000D0D000000000000000000000008B
:1045C00000000000000000000000E2E2E2E2E2E29F
:1045D000E200E2E2D0D0D0D0D000E2E20000000061
:1045E0000000E2E2E2E2E2E200000000000000C0BF
:1045F00000000000000000C0000000000000007784
:104600000000000000000077E2E20000000000C0AF
:10461000D0D00000000000C00000000000000077C3
:10462000000000000000007777000000000000D0CC
:104630007700000000000000C00000000000E2E27F
:10464000C00000000000D0D0770000000000000093
:104650007700000000000000C00000000000000023
:104660006FC07777C0C07777D0D0D0D0E2E200E2D9
:1046700000000000E2E200E2E2E2E2E2E2D000E278
:10468000D0D0D0D0D00000D000000000000000004A
:10469000000000000000000000000000000000001A
:1046A000C0C07777C0C07777E200E2E20000000088
:1046B000E200E2E200000000E200E2E2E2E2E2E226
:1046C000D000D0D0D0D0D0D000000000000000003A
:1046D00000000000000000000000000000000000DA
:1046E000C0C07777C0C0777700E2E2D0D0D0D000EA
:1046F00000E2E2000000000000E2E2E2E2E2E2E2C8
:1047000000D0D0D0D0D0D0D00000000000000000F9
:104710000000000000000000000000000000000099
:10472000C0C07777C0C077770000E2E2D0E2E2E273
:104730000000E2E200D0E2E2E200E2E20000D0E2C9
:10474000D000D0D0000000D0000000000000000029
:104750000000000000000000000000000000000059
:10476000C0C07777C0C07777E200E2E200000000C7
:10477000E200E2E2000000E2E200D0E2E2E2E2E295
:10478000D00000D0D0D0D0D0000000000000000049
:104790000000000000000000000000000000000019
:1047A000C0C07777C0C077770000E2E2D0D0D0D029
:1047B000E200E2E200000000D000E2E2E2E2E2E237
:1047C0000000D0D0D0D0D0D0000000000000000009
:1047D00000000000000000000000000000000000D9
:1047E000C0C07777C0C0777700000000000000C02D
:1047F00000000000000000C0E2E2000000000077BE
:10480000D0D000000000007700000000000000C0D1
:1048100000000000000000C0000000000000007761
:10482000C0C07777C0C0776F07017F808586878893
:10483000890101711201737475767778797A7B7CBE
:104840007D7E7F808182838408058A8B8C8D8E8F0C
:10485000909192939495969798999A9B9C9D9E9FE0
:10486000A0A1A2A3A4A5A6A7A8A9AAABACADAEAFD0
:10487000B0B10405494A004B595A5B5C6768696AE4
:104880006D6E6E6E726E6E6E020220213233010109
:104890000A010109010108030346474856575864B5
:1048A000656602010E0F02014C4D06040B0C0D0E45
:1048B0000F10001718191A1B2A182B2C2D2E18232D
:1048C0003B3C3D3E02022627373802022829393A6E
:1048D0000402222324253423353601011601011553
:1048E00001010701010602016F7002016B6C0301F7
:1048F00044546303014454550201445402014445A5
:104900000201616201014301015301014305013FBD
:104910004041404201011F01013001011D01012FF1
:1049200001011C01015E01014F01015D01014E0108
:10493000015001016001015F0101520101510101BA
:104940001E010131010104010105010114010113DE
:104950000101110101030101120101020101000025
:10496000FF06015300C00000B0076400C00000B0A3
:1049700007640090456400C30300B3076400C303E9
:1049800000B30764009303640890450000904764F7
:1049900008904700009048640890480000904A64DE
:1049A00008904A0000904D6410904D0000904C64B7
:1049B00010904C0000904D640093046410904D00E2
:1049C00000904F6410904F00009048642090480081
:1049D000009054640093036410905400009051645C
:1049E0001090510000905664089056000090536457
:1049F00008905300009058640890580000904F644D
:104A000008904F0000904C640093046408904C00A0
:104A1000009047640890470000904D6408904D0056
:104A200000904A6408904A00009048642090480032
:104A3000009045640093036408904500009047642B
:104A400008904700009048640890480000904A642D
:104A500008904A0000904D6410904D0000904C6406
:104A600010904C0000904D640093046410904D0031
:104A700000904F6410904F0000904D6420904D00C6
:104A800000905464009303641090540000905364A9
:104A900010905300009056640890560000905364A4
:104AA0000890530000905864089058000090536498
:104AB0000890530000904C640093046408904C00EC
:104AC00000904A6408904A0000904F6408904F009C
:104AD00000904C6408904C0000904D6420904D0074
:104AE0000090586400930364089058000090546448
:104AF0000890540000905864089058000090536447
:104B00000890530000904D6410904D000090516447
:104B10001090510000904C640093046408904C0085
:104B200000904F6408904F0000904A6408904A003B
:104B300000904D6408904D00009053642090530005
:104B400000905164009303640890510000904D64FC
:104B500008904D0000904F6408904F0000904C6406
:104B600008904C00009048641090480000904A64FF
:104B700010904A0000904D640093046408904D002A
:104B800000904C6408904C0000904A6408904A00E1
:104B900000904864089048000090456420904500CB
:104BA00000904564009303640890450000904764BA
:104BB00008904700009048640890480000904A64BC
:104BC00008904A0000904D6410904D0000904C6495
:104BD00010904C0000904D640093046410904D00C0
:104BE00000904F6410904F0000904864209048005F
:104BF000009054640093036410905400009051643A
:104C00001090510000905664089056000090536434
:104C100008905300009058640890580000904F642A
:104C200008904F0000904C640093046408904C007E
:104C3000009047640890470000904D6408904D0034
:104C400000904A6408904A00009048642090480010
:104C50000090456400930364089045000090476409
:104C600008904700009048640890480000904A640B
:104C700008904A0000904D6410904D0000904C64E4
:104C800010904C0000904D640093046410904D000F
:104C900000904F6410904F000090486420904800AE
:104CA0000090546400930364109054000090516489
:104CB0001090510000905664089056000090536484
:104CC00008905300009058640890580000904F647A
:104CD00008904F0000904C640093046408904C00CE
:104CE000009047640890470000904D6408904D0084
:104CF00000904A6408904A00009048642090480060
:104D00000090586400930364089058000090546425
:104D10000890540000905864089058000090536424
:104D20000890530000904D6410904D000090516425
:104D30001090510000904C640093046408904C0063
:104D400000904F6408904F0000904A6408904A0019
:104D500000904D6408904D000090536420905300E3
:104D600000905164009303640890510000904D64DA
:104D700008904D0000904F6408904F0000904C64E4
:104D800008904C00009048641090480000904A64DD
:104D900010904A0000904D640093046408904D0008
:104DA00000904C6408904C0000904A6408904A00BF
:104DB00000904864089048000090456420904500A9
:104DC0000090436400930364109043000090456496
:104DD0001090450000904764109047000090486490
:104DE0001090480000904D640093046420904D00A2
:104DF00000904A6420904A00009054640093036439
:104E00001090540000905164109051000090546430
:104E100010905400009051641090510000904D6427
:104E20000093046420904D0000904C6410904C005E
:104E30000090486410FF0601450090480000904D26
:104E4000640093036410904D0000904A6410904AEF
:104E5000000090486420904800009047640093044C
:104E60006410904700009045641090450000904702
:104E70006410904700009048641090480000904CE7
:104E8000640093036420904C0000904F6410904F96
:104E90000000904D6410904D0000904C640093040D
:104EA0006410904C0000904A6410904A0000904CAE
:104EB0006420904C0000904A640093036410904A70
:104EC00000009047641090470000904A6410904A98
:104ED00000009047641090470000904864009304DD
:104EE0006410904800009045641090450000904385
:104EF0006420904300009303644093046400FF2FF8
:104F00000000FF06015300C00000B0076400C000AD
:104F100000B007640090456400C30300B307640059
:104F2000C30300B30764009303641090450000902E
:104F3000476410904700009048641090480000902B
:104F40004A6410904A0000904C64009304642090DE
:104F50004C00009051641090510000904F641090EC
:104F60004F0000904C640093036420904C0000902C
:104F700045642090450000904C64009304641090B8
:104F80004C0000904A6410904A00009048641090D1
:104F900048000090476410904700009045640093DB
:104FA0000364109045000090476410904700009003
:104FB00048641090480000904A6410904A000090A5
:104FC0004C640093046420904C0000904A6410905C
:104FD0004A00009048641090480000904764009395
:104FE00003641090470000904564109045000090C5
:104FF000476410904700009048641090480000906B
:10500000476400930464109047000090456410903A
:105010004500009043641090430000904764109056
:105020004700009045640093036410904500009091
:10503000476410904700009048641090480000902A
:105040004A6410904A0000904C64009304642090DD
:105050004C00009051641090510000904F641090EB
:105060004F0000904C640093036420904C0000902B
:1050700045642090450000904C64009304641090B7
:105080004C0000904A6410904A00009048641090D0
:1050900048000090476410904700009045640093DA
:1050A0000364109045000090476410904700009002
:1050B00048641090480000904A6410904A000090A4
:1050C0004C640093046420904C0000904A6410905B
:1050D0004A00009048641090480000904764009394
:1050E000036420904700009048642090480000909E
:1050F0004A640093046420904A0000904C6420901D
:105100004C0000904F640093036410904F00009097
:1051100051641090510000904C6410904C0000902D
:105120004A6410904A0000904C64009304642090FC
:105130004C0000904A6410904A0000904C6410901B
:105140004C0000904F640093036410904F00009057
:1051500051641090510000904C6410904C000090ED
:105160004A6410904A0000904C64009304642090BC
:105170004C0000904A6410904A0000904C641090DB
:105180004C0000904A640093036410904A00009021
:1051900048641090480000904764109047000090C9
:1051A0004364109043000090456400930464209091
:1051B00045000090436410904300009045641090B7
:1051C00045000090476400930364109047000090EE
:1051D00048641090480000904A6410904A00009083
:1051E0004C6410904C00009045640093046420903F
:1051F000450000904A6410904A0000904C64109062
:105200004C0000904F640093036410904F00009096
:1052100051641090510000904C6410904C0000902C
:105220004A6410904A0000904C64009304642090FB
:105230004C0000904A6410904A0000904C6410901A
:105240004C0000904F640093036410904F00009056
:1052500051641090510000904C6410904C000090EC
:105260004A6410904A0000904C64009304642090BB
:105270004C0000905164109051000090536410FF56
:10528000060145009053000090546400930364109D
:10529000905400009053641090530000905164109B
:1052A00090510000904F6410904F0000904C6400AB
:1052B00093046420904C0000904A6410904A0000CF
:1052C000904C6410904C0000904A6400930364106A
:1052D000904A000090486410904800009047641085
:1052E0009047000090436410904300009045640094
:1052F0009304644090450000904F64009303641051
:10530000904F00009051643090510000904F640025
:1053100093046410904F000090516430905100004D
:1053200093036420904C6410904C0000904F6410E4
:10533000904F0000904F640093046410904F000061
:105340009051641090510000FF2F000000003E5467
:1053500000000000000000305400000000000000C9
:105360002854000000000100001454000000000157
:105370000000FD5300000000000000C253000000C8
:10538000000000008A530000000000020001030337
:1053900001030301030301030401030401030402E5
:1053A00004050204050103050103050103060103C9
:1053B00006020408020408010306010306020500B0
:1053C00000FF0002020103040203040204040204B9
:1053D0000402040802040803030603030603040886
:1053E00003040803040C03040C00020003030E036F
:1053F000030E04030E04030E04050000FF00010267
:105400000007220000FF0101010101020201010564
:1054100000FE40FF00011200072E0000FC010117F2
:105420000101120100F400FF0002090000F100FF79
:1054300000020900071E0000F10400F900FF00024D
:105440000800070A0100140500F700FF11241FBE21
:10545000CFEFD0E1DEBFCDBF11E0A0E0B1E0E0E0F2
:10546000F6E802C005900D92A230B107D9F720E10D
:10547000A2E0B1E001C01D92AA31B207E1F714BE6B
:105480000FB6F894A89580916000886180936000C1
:10549000109260000FBEF89480E790E0FC01259127
:1054A0003491F901FF273083029620E0823A920777
:1054B000A9F70E94932F811102C00E94712F81E0F1
:1054C0008093B60D8093B70D8093B50D1092A20D09
:1054D0001092A80D1092AE0D1092B40D1092BA0D4C
:1054E0001092700D1092720D92E19093710D90EEEA
:1054F0009093780D94E19093770D10927C0D10921B
:105500007B0D1092800D10927F0D8093A10D0E9453
:10551000D13A78940E94373B0E9498410C94FE4205
:105520000C94000003E80A95F1F700C00091600DAB
:10553000ECEFFCE023E0029FE00DF11D20915F0DF8
:105540003CE3321B300F201751F000000000A19106
:10555000B1911C9111930C9303950217C0F313E0C2
:105560001A95F1F700C03A95D1F7C0E2D1E066276D
:1055700017E01A95F1F700C040916E0D50916F0D34
:1055800060906A0D70906B0DD3015E01762F00C0A4
:1055900030916D0D303009F0C8E609F0D4E009F023
:1055A000DA0115E01A95F1F78090780D07E0009385
:1055B000360001E00093810001E000936F0008E0F5
:1055C000609F8D0100541840000D111D18010CEB57
:1055D00014E0000D111D280100E4E02E03E31AEF92
:1055E000CF93DF93599100C000C01FD32CE02A95C0
:1055F000F1F71093850000938400789400275E9D56
:105600005132F10108F4F201001FE00DF11D1AE022
:105610001A95F1F70000112700FF02C0000065C0D5
:1056200048C018B90F900F90DF91CF9103E00A9511
:10563000F1F700C063958A94B1F0683029F007E073
:105640000A95F1F700C0BBCF66276E9604910491CE
:1056500000C03A9509F4672F09F4E50100C000C0C5
:1056600009F4D301ACCF20E12A95F1F700E00093D3
:1056700085000CE200938400D8D211240E94BA2C39
:10568000E091720D42E0E160E427E093720D07E0E3
:105690000093360009E00093810002E000936F0060
:1056A0000895059108B9020C0000059108B9131C72
:1056B000F001059108B900C0059108B9499105911B
:1056C00008B900C0059108B94E9D059108B941324D
:1056D0000000059108B928F70000059108B9040CED
:1056E0000000059108B9151CF0010000019108B9EE
:1056F00049910000019108B900004E9D019108B93F
:105700000491019108B90491019108B9413200C096
:10571000019108B950F40000040C019108B9151C5E
:1057200000000191F00108B9E0CF020C019108B925
:10573000131C00000191F00108B9BBCF20E4E091F7
:105740006A0DF0916B0D829FE00DF11DACEBB4E0A2
:10575000629FA00DB11D15901D9215901D92159080
:105760001D9215901D9215901D9215901D921590E9
:105770001D9215901D9215901D9215901D921590D9
:105780001D9215901D9215901D9215901D921590C9
:105790001D9215901D9215901D9215901D921590B9
:1057A0001D9215901D9215901D9215901D921590A9
:1057B0001D9215901D9215901D9215901D92159099
:1057C0001D9215901D9215901D9215901D92159089
:1057D0001D9215901D9215901D9215901D92159079
:1057E0001D9215901D9215901D9215901D92159069
:1057F0001D9215901D9215901D9215901D92159059
:105800001D9215901D9215901D9215901D92159048
:105810001D9215901D9215901D9215901D92159038
:105820001D9215901D9215901D9215901D92159028
:105830001D9215901D9215901D9215901D92159018
:105840001D9215901D9215901D9215901D92159008
:105850001D9215901D921124089520E4ECEBF4E0C4
:10586000829FE00DF11DACEBB4E0629FA00DB11D75
:1058700011901D9211901D9211901D9211901D92E8
:1058800011901D9211901D9211901D9211901D92D8
:1058900011901D9211901D9211901D9211901D92C8
:1058A00011901D9211901D9211901D9211901D92B8
:1058B00011901D9211901D9211901D9211901D92A8
:1058C00011901D9211901D9211901D9211901D9298
:1058D00011901D9211901D9211901D9211901D9288
:1058E00011901D9211901D9211901D9211901D9278
:1058F00011901D9211901D9211901D9211901D9268
:1059000011901D9211901D9211901D9211901D9257
:1059100011901D9211901D9211901D9211901D9247
:1059200011901D9211901D9211901D9211901D9237
:1059300011901D9211901D9211901D9211901D9227
:1059400011901D9211901D9211901D9211901D9217
:1059500011901D9211901D9211901D9211901D9207
:1059600011901D9211901D9211901D9211901D92F7
:1059700011240895E091600D8E2FEE0FE80FFF27A0
:10598000E450F34F00905F0D801930F4A191B19174
:1059900001900C928395D1F7089598E0799FA12DFD
:1059A000BB27AE59B24FED91FD9190E4699FE00D98
:1059B000F11D899FD001A454BB4F90E040FD09C068
:1059C000822F48E0421B70FF0AC01796E80FF91FAC
:1059D00008C088E0821B422F70FFF8CF1197A20FFA
:1059E000B91F68E028E0231B50FD09C0639FA00D8C
:1059F000B11D71FDE85C71FDFF4F122E08C0132E22
:105A00001A9471FF122E619DE00DF11D132E71FD90
:105A1000409770FD05C057EF540F70E061E004C07F
:105A200059EF541B7FEF6FEF3EEF042E469530F495
:105A300061F0259123132C93A60FB71F25912313F3
:105A40002C93A60FB71F4150A1F7259123132C9338
:105A50001A9449F0E80FF91FA51BBF4F402D46953A
:105A600068F739F7F2CF08950F921F92EF93FF93E3
:105A7000FFB7E0918400FF93E2FD04C0E1FD02C0A6
:105A8000000000C0E0FF00C0E091710DEA95E093D6
:105A9000710DF091700DF0FD51C0EC3098F0F3E015
:105AA000F0938900FDE8F0938800E0FB289826F445
:105AB000E1E00E94262EB2C0E5E1EA95F1F7000090
:105AC000289AACC0E63008F100C000C02898E0FB7E
:105AD000E4E016F40E94262EE4E0E0933600E6E0CF
